:100000000C94C2060C9406070C9406070C94060781
:100010000C9406070C9406070C9406070C9406072C
:100020000C9406070C9406070C94AC0E0C947E0FEF
:100030000C94FA1D0C9406070C9406070C94060702
:100040000C9406070C9406070C9406070C940607FC
:100050000C9406070C946D1E0C9406070C9406076E
:100060000C9406070C9406070C9406070C940607DC
:100070000C9406070C9406070C9406070C940607CC
:100080000C9406070C9406070C9406070C940607BC
:100090000C9406070C9406070C9406070C940607AC
:1000A0000C9406070C9406070C940607E30F051042
:1000B000F0100510F01047106A10F010BF10D210A9
:1000C0002414241452145214AE14EA14DB16DB1652
:1000D0000215DB16F915F915B516DB16DB16C91670
:1000E000F1A6218A228A2913F1A7018C028C048CA3
:1000F000088C291E1F20212223242526272D2E2A65
:100100002B141A0815171C180C12132F3031C004A9
:100110001607090A0B0D0E0F33340028E1001D1BD2
:10012000061905111036373800E5E0E3E200002C2F
:1001300000000000E6E765E4351E1F20212223248D
:100140002526272D2E2A2B141A09130A0D0F181CE9
:10015000332F30312A04151617070B11080C1234EF
:100160000028E1001D1B0619050E1036373800E582
:10017000E0E3E200002C00000000C0E765E4351E6B
:100180001F20212223242526272F302A2B343637DF
:10019000131C090A06150F382E3139041208180CE1
:1001A000070B1711162D0028E10033140D0E1B0547
:1001B000101A191D00E5E0E3E200002C0000000029
:1001C000C0E765E4351E1F20212223242526272D84
:1001D0002E2A2B1407151A050D091813332F303149
:1001E0002A04160B170A1C1108120C340028E1000F
:1001F0001D1B1006190E0F36373800E5E0E3E2004C
:10020000002C00000000C0E765E4010101010101CC
:1002100001010101010101010101010101010101CE
:1002200001010101010101010101010101010101BE
:1002300001010001010001010101010101010101B0
:100240000052010101000001000000000150514F67
:100250002901010101010101010101010101010166
:10026000010101010101010101010101010101017E
:100270000101010101010101000101000101010170
:100280000101010101010001010101000001000063
:10029000000001010101353A3B3C3D3E3F404142F7
:1002A0004344454C014A524D4B01010101010101FA
:1002B00001490150514F4E010101010101010001AD
:1002C000010001010101010101A9AAA80001010128
:1002D000010000010000000001010101C5C6C7C8FE
:1002E0000101010101010101010101C5C801010173
:1002F0000101010101010101010101C70101010128
:1003000001010101000101000101C601010101011A
:1003100001010001010101000001000000000101D4
:1003200001010A002530313662003A2000253032C2
:1003300058000A722F632030313233343536373863
:10034000394142434445460A000A002530325800EC
:10035000626F756E6365213A20005B735D004B65CB
:1003600079626F6172642073746172742E0A005531
:10037000534220636F6E666967757265642E0A006A
:100380005B575D005B535D005B525D005B445D004D
:100390005B435D000A034700480036003000000060
:1003A00012036700650065006B0068006100630070
:1003B0006B0000000403090409028D00050100A080
:1003C00032090400000103010100092111010001AB
:1003D000223F000705810308000A09040100010308
:1003E000010200092111010001224D0007058203CD
:1003F00008000A090402000103000000092111019C
:1004000000012236000705830308000A09040300DF
:10041000020300000009211101000122200007054C
:1004200084032000010705040320000109040400DF
:100430000103000000092111010001223900070514
:1004400085031000011201100100000008EDFE609C
:100450006001000102000105010906A1010507195B
:10046000E029E715002501950875018102050819A5
:100470000129059505750191029501750391010505
:10048000071900297715002501957875018102C0AB
:100490000631FF0974A1010975150025FF95207526
:1004A0000881020976150025FF952075089102C084
:1004B00005010980A101850216010026B7001A0175
:1004C000002AB700751095018100C0050C0901A133
:1004D000018503160100269C021A01002A9C027560
:1004E0001095018100C005010902A1010901A100C7
:1004F00005091901290515002501950575018102D8
:100500009501750381010501093009311581257FA8
:1005100095027508810609381581257F95017508B2
:100520008106050C0A38021581257F950175088121
:1005300006C0C005010906A101050719E029E71554
:100540000025019508750181029501750881010555
:100550000819012905950575019102950175039109
:10056000010507190029FF150025FF95067508816B
:1005700000C00A002530325820006B6579626F6137
:1005800072645F7265706F72743A20000A002530E1
:100590003258006B6579626F6172645F7365745F76
:1005A0006C65643A200064656C5F6B65795F6269B5
:1005B000743A2063616E27742064656C3A2025309C
:1005C00032580A006164645F6B65795F6269743AEE
:1005D0002063616E2774206164643A2025303258AC
:1005E0000A00646F6E652E0A00626F6F746D61673A
:1005F0006963207363616E3A202E2E2E2000290A33
:10060000002575002F002575005D28002564002059
:1006100000256400200025640020002564007C0083
:1006200025303258006D6F7573656B6579205B629C
:10063000746E7C782079207620685D287265702F32
:1006400061636C293A205B006D6B5F776865656C50
:100650005F74696D655F746F5F6D6178203D202503
:10066000640A006D6B5F776865656C5F6D61785FCC
:100670007370656564203D2025640A006D6B5F74AE
:10068000696D655F746F5F6D6178203D2025640A38
:10069000006D6B5F6D61785F7370656564203D20F0
:1006A00025640A006D6B5F696E74657276616C20FB
:1006B0003D2025640A006D6B5F64656C6179203DA7
:1006C0002025640A006D6B5F776865656C5F7469EF
:1006D0006D655F746F5F6D6178203D2025640A0051
:1006E0006D6B5F776865656C5F6D61785F73706572
:1006F0006564203D2025640A006D6B5F74696D653B
:100700005F746F5F6D6178203D2025640A006D6B1A
:100710005F6D61785F7370656564203D2025640AB4
:10072000006D6B5F696E74657276616C203D20258B
:10073000640A006D6B5F64656C6179203D202564FF
:100740000A000A00257500363A20776865656C5FF7
:1007500074696D655F746F5F6D61783A20000A009F
:10076000257500353A20776865656C5F6D61785F47
:1007700073706565643A20000A00257500343A20DC
:1007800074696D655F746F5F6D61783A20000A006F
:10079000257500333A206D61785F73706565643A42
:1007A00020000A00257500323A20696E7465727661
:1007B000616C286D73293A20000A00257500313AD2
:1007C0002064656C6179282A31306D73293A2000E4
:1007D0000A092D2056616C756573202D0A004D3E67
:1007E000004D25643E20003F0073657420646566FB
:1007F00061756C740A00433E20007768657265205D
:1008000064656C74613A20637572736F723D256420
:100810002C20776865656C3D25640A536565206802
:100820007474703A2F2F656E2E77696B69706564EA
:1008300069612E6F72672F77696B692F4D6F7573C2
:10084000655F6B6579730A000A092D204D6F75731A
:10085000656B6579202D0A4553432F713A097175EF
:1008600069740A313A0964656C6179282A31306DFE
:1008700073290A323A09696E74657276616C286D63
:1008800073290A333A096D61785F73706565640A8C
:10089000343A0974696D655F746F5F6D61780A350C
:1008A0003A09776865656C5F6D61785F737065653F
:1008B000640A363A09776865656C5F74696D655FCF
:1008C000746F5F6D61780A0A703A097072696E74AC
:1008D0002076616C7565730A643A097365742064E7
:1008E000656661756C74730A75703A092B310A6418
:1008F0006F776E3A092D310A706775703A092B319E
:10090000300A7067646F776E3A092D31300A0A73C6
:1009100070656564203D2064656C7461202A206DDB
:1009200061785F7370656564202A20287265706540
:100930006174202F2074696D655F746F5F6D6178DD
:10094000290A003F004D3E2000433E20004C256414
:100950000A000A092D20436F6E736F6C65202D0A03
:100960004553432F713A09717569740A6D3A096DDF
:100970006F7573656B65790A000A092D204D6167F3
:100980006963202D0A643A0964656275670A783ADA
:10099000096465627567206D61747269780A6B3AE3
:1009A000096465627567206B6579626F6172640ABC
:1009B0006D3A096465627567206D6F7573650A76B7
:1009C0003A0976657273696F6E0A733A09737461D6
:1009D0007475730A633A09636F6E736F6C65206D8B
:1009E0006F64650A302D343A096C61796572302D77
:1009F00034284631302D4634290A506175733A093E
:100A0000626F6F746C6F616465720A653A0965653F
:100A100070726F6D0A6E3A094E4B524F0A000A000F
:100A20002575002E6E6B726F3A20000A0025750046
:100A30002E737761705F6261636B736C6173685F63
:100A40006261636B73706163653A20000A0025750B
:100A5000002E737761705F67726176655F6573639F
:100A60003A20000A002575002E6E6F5F6775693A9F
:100A700020000A002575002E737761705F72616C2B
:100A8000745F726775693A20000A002575002E733D
:100A90007761705F6C616C745F6C6775693A200098
:100AA0000A002575002E636170736C6F636B5F7451
:100AB0006F5F636F6E74726F6C3A20000A00257569
:100AC000002E737761705F636F6E74726F6C5F631B
:100AD0006170736C6F636B3A20000A0025303258E6
:100AE000006B65796D61705F636F6E6669672E720A
:100AF00061773A20000A002575002E6D6F757365C9
:100B00003A20000A002575002E6B6579626F6172CC
:100B1000643A20000A002575002E6D6174726978B0
:100B20003A20000A002575002E656E61626C653AF8
:100B300020000A00253032580064656275675F63E3
:100B40006F6E6669672E7261773A20000A0025751C
:100B50000064656661756C745F6C617965723A20DA
:100B6000003F004E4B524F3A206F66660A004E4BD4
:100B7000524F3A206F6E0A0074696D65725F72653C
:100B80006164333228293A202530346C580A006BCE
:100B90006579626F6172645F6E6B726F3A2025587F
:100BA0000A006B6579626F6172645F69646C653AB3
:100BB0002025580A006B6579626F6172645F7072FC
:100BC0006F746F636F6C3A2025580A00686F7374F6
:100BD0005F6B6579626F6172645F6C65647328290D
:100BE0003A2025580A000A092D2053746174757340
:100BF000202D0A004743433A20342E382E3220411C
:100C000056522D4C4942433A20312E382E30204145
:100C100056525F415243483A20617672350A004F7E
:100C20005054494F4E533A204C55464120424F4F65
:100C3000544D41474943204D4F5553454B4559204D
:100C400045585452414B455920434F4E534F4C4504
:100C500020434F4D4D414E44204E4B524F20343097
:100C600039360A004255494C443A203036386166DC
:100C70006664202831333A33323A3137204170727A
:100C80002020332032303136290A005649443A2098
:100C9000307846454544286765656B6861636B2914
:100CA000205049443A20307836303630284748368C
:100CB0003029205645523A203078303030310A0001
:100CC000444553433A20742E6D2E6B2E206B65796C
:100CD000626F617264206669726D77617265206609
:100CE0006F7220474836300A000A092D2056657277
:100CF00073696F6E202D0A000A6D6F7573653A2057
:100D00006F66660A000A6D6F7573653A206F6E0A2A
:100D1000000A6B6579626F6172643A206F66660AD9
:100D2000000A6B6579626F6172643A206F6E0A0027
:100D30000A6D61747269783A206F66660A000A6DFE
:100D400061747269783A206F6E0A000A6465627590
:100D5000673A206F6E0A000A64656275673A206F11
:100D600066660A000A0A626F6F746C6F616465726E
:100D70002E2E2E2000433E20006565636F6E66694F
:100D8000673A0A0011241FBECFEFDAE0DEBFCDBF05
:100D900004B603FE24C08091E6019091E701A09182
:100DA000E801B091E9018730904BA740B04BB9F40E
:100DB0001092E6011092E7011092E8011092E90109
:100DC00014BE84B7877F84BF88E10FB6F894809300
:100DD0006000109260000FBEE0E0F8E3099511E0BA
:100DE000A0E0B1E0E2E4F6E502C005900D92A83380
:100DF000B107D9F711E0A8E3B1E001C01D92A63E0A
:100E0000B107E1F70E94E20B0C941F2B0C94000039
:100E1000FF93EF93E0913801F0913901309709F099
:100E20000995EF91FF910895FC018591803011F0B3
:100E3000EFDFFBCF0895FF27E0E230E247FF0CC071
:100E4000419597FF09C0EDE260957095809590956A
:100E5000611D711D811D911D27FF02C0219530E389
:100E600050E2AA27660F771F881F991FAA1FA41791
:100E700010F0A41B63955A95A9F7AA3008F0A95F52
:100E8000A05DAF93F395611571058105910541F75B
:100E9000ED3211F4EF93F395F21718F43F93F395B5
:100EA000FBCF8F91B5DFFA95E1F70895E991F991BC
:100EB0008591803021F0853219F0AADFF9CF0895AD
:100EC00020E0E89455915532C1F3503311F4689401
:100ED00055915A3348F4505390F3220F022E220FAB
:100EE000220F200D250FF4CF0EF4219589919991B1
:100EF000533619F3533729F1533559F1BC0188277B
:100F00009927E8945C3621F48991999168945591D8
:100F1000543639F446EF7EF077FF0DC08FEF9FEF28
:100F20000AC055374AE039F0583540E121F05236D1
:100F300042E009F00895FF93EF937DDFEF91FF9179
:100F4000B7CFFF93EF93FC0181918030B9F360DF5D
:100F5000FBCFFF93EF9368DFF1CFDF93CF93CDB754
:100F6000DEB72596A3DFCF91DF9108959EE0799FAC
:100F7000F001112496E4899FE00DF11D1124E60F84
:100F8000F11DEE50FF4F84910895E82FF0E0EE0F31
:100F9000FF1FE05AF0408591949108958AB1807DB9
:100FA0008AB98BB1807D8BB908950E94CE0780B33A
:100FB0008C7F80BB81B3836081BB6E98769A8AB147
:100FC0008F728AB98BB1806D8BB987B18F7387B9F6
:100FD00088B1806C88B984B1847084B985B18B6F15
:100FE00085B9E4E4F1E0AAE3B1E0119211921D9217
:100FF0001D9281E0EE34F807C1F70895CF92DF9299
:10100000EF920F931F93CF93DF93CAE3D1E010E0E9
:1010100001E0A5E0EA2EBBE4CB2EB3E0DB2E1230DC
:1010200071F018F4113041F004C0133059F014304D
:1010300061F0509A58980BC0519A599808C0529A2A
:101040005A9805C0539A5B9802C0559A5D9880EAF9
:101050008A95F1F78FB18170802790E0799B03C06A
:1010600020E030E002C022E030E0822B932B669B30
:1010700003C020E030E002C024E030E0822B932B5C
:1010800026B1332727FD3095209530952227330F41
:10109000221F3327F3E0220F331FFA95E1F7822B4B
:1010A000932B369B03C060E070E002C060E170E00B
:1010B000862B972B1E9B03C060E070E002C060E2AD
:1010C00070E0682B792B4C9B03C020E030E002C01D
:1010D00020E430E0262B372B199B03C040E050E082
:1010E00002C040E850E0422B532B189B0DC083B147
:1010F000992787FD9095809590958827990F881F4F
:101100009927982F882702C080E091E0842B952BA7
:101110001D9B03C020E030E002C020E032E0822BC3
:10112000932B1C9B03C020E030E002C020E034E0A1
:10113000822B932B29B1332727FD309520953095AD
:101140002227330F221F3327322F2227330F330F4B
:10115000330F822B932B4E9B03C020E030E002C064
:1011600020E030E1822B932B1B9B03C020E030E07A
:1011700002C020E030E2822B932B2881398128178E
:10118000390741F19983888380910001882301F117
:101190008091C70180FF04C080E593E00E9414079E
:1011A0008091C70180FF0CC0809100011F928F9336
:1011B000DF92CF920E94AD070F900F900F900F908B
:1011C0008091C70180FF04C089E493E00E94140766
:1011D000E09200010E94CE071F5F2296153009F0B1
:1011E0001ECF809100018823C1F0815080930001BF
:1011F000882339F08FE99FE00197F1F700C00000E4
:101200000CC0A4E4B1E0EAE3F1E0819191918D9307
:101210009D9391E0E434F907C1F781E0DF91CF912C
:101220001F910F91EF90DF90CF900895E82FF0E09D
:10123000EE0FFF1FEC5BFE4F808191810895CF92EE
:10124000DF92EF92FF920F931F93CF93DF9382E38E
:1012500093E00E94140724E4E22E21E0F22EC0E085
:10126000D0E03DE2C32E33E0D32E04E213E0DF935F
:10127000CF93DF92CF920E94AD078AE293E00E9463
:101280001407F701819191917F010E94A11D9F9305
:101290008F931F930F930E94AD0782E293E00E9409
:1012A000140721968DB79EB708960FB6F8949EBF87
:1012B0000FBE8DBFC530D105D1F6DF91CF911F9103
:1012C0000F91FF90EF90DF90CF90089581FF02C0C3
:1012D000229A01C022982A98089580916101089568
:1012E0009FB7F894109250019FBF9091DC01943009
:1012F00009F058C09091E9009F702091EC0020FF08
:1013000002C020E801C020E0292B94E09093E9007E
:101310009091EB0090FF43C09091EE0097FF3FC08B
:1013200090914E01992321F09091E80095FF37C0EC
:1013300010924E0196E03091E80035FD15C03091D5
:10134000DC01343061F53091EB0035FD28C091505F
:1013500021F481E080934E0122C0EFE9FFE0319754
:10136000F1F700C00000E7CF8093F1008091E80022
:1013700085FD0AC08091E80080FFFCCF8091E800E5
:101380008E778093E80006C08FB7F89491E0909331
:1013900050018FBF2F702093E90080E008952F70D7
:1013A0002093E9008FEF0895CF93DF9300D01F9231
:1013B000CDB7DEB72091DC01243019F523E0298375
:1013C0009B838A832093E9008FEF9091E8008150FE
:1013D00095FD06C095ED9A95F1F700008111F5CFC6
:1013E0008091E80085FF0DC040E050E063E070E0D0
:1013F000CE0101960E949F0C8091E8008E77809329
:10140000E8000F900F900F90DF91CF910895CF9348
:10141000DF9300D01F92CDB7DEB72091DC012430DE
:1014200021F522E029839B838A8383E08093E9006E
:101430008FEF9091E800815095FD06C095ED9A954B
:10144000F1F700008111F5CF8091E80085FF0DC014
:1014500040E050E063E070E0CE0101960E949F0CF6
:101460008091E8008E778093E8000F900F900F90A6
:10147000DF91CF9108952091DC012430F1F422E036
:101480002093E9002FEF3091E800215035FD06C090
:1014900035ED3A95F1F700002111F5CF2091E800E4
:1014A00025FF0BC040E050E065E070E00E949F0C1B
:1014B0008091E8008E778093E8000895CF93DF93C2
:1014C000EC018091DC01843009F047C080910B0170
:1014D0008823E1F080910C018823C1F085E080939E
:1014E000E9008FEF9091E800815095FD06C095E1ED
:1014F0009A95F1F700008111F5CF8091E80085FF02
:101500002CC040E050E060E170E017C081E08093C3
:10151000E9008FEF9091E800815095FD06C095EDB0
:101520009A95F1F700008111F5CF8091E80085FFD1
:1015300014C040E050E068E070E0CE010E949F0CD3
:101540008091E8008E778093E80080E1FE01A1E5BC
:10155000B1E001900D928A95E1F7DF91CF91089566
:1015600080E993E00E9414078091DB01811109C09A
:101570000E94310E0E948E0E8091E2008460809362
:10158000E20008958CE893E00E9414071092DB01BA
:10159000089588E893E00C94140784E893E00C9491
:1015A000140780E893E00E9414070C94F81D8091C2
:1015B0004F018F5F80934F0162E30E94B42A911123
:1015C00035C010924F0180915001882379F18091AC
:1015D000DC01843049F58091E9008F709091EC0036
:1015E00090FF02C090E801C090E0982B84E08093C7
:1015F000E9008091EB0080FF14C08091EE0087FF2E
:1016000010C08091E80085FF03C01092F100F9CF6F
:101610008091E80080FF05C08091E8008E7780937C
:10162000E8009F709093E90010925001089542E005
:1016300061EC81E00E94AB0D42E061EC82E00E942F
:10164000AB0D42E061EC83E00E94AB0D42E261EC45
:1016500084E00E94AB0D42E161EC85E00C94AB0D9F
:101660008091DE01833009F455C030F4813071F08F
:10167000823009F48EC008958A3009F47AC08B3024
:1016800009F460C0893009F09CC020C08091DD0160
:10169000813A09F096C08091E800877F8093E80046
:1016A0008091E1019091E201892B21F060E080E0DE
:1016B00090E003C060E181E591E070E00E94E80CF9
:1016C0008091E8008B778093E80008958091DD0198
:1016D000813209F076C08091E1019091E20100979A
:1016E00019F0049709F06DC08091E800877F80931E
:1016F000E8008091E80082FD05C08091DC01811145
:10170000F8CF5FC08091F100809361018091E80083
:101710008B7753C08091DD01813A09F052C08091EE
:10172000E1019091E201892B09F04BC08091E80022
:10173000877F8093E8008091E80080FFFCCF809154
:101740000B0136C08091DD018132D9F58091E10134
:101750009091E201892BA9F58091E800877F809321
:10176000E8000E94E00D8091DF0180930B010C9452
:10177000FC168091DD01813221F58091E800877FA0
:101780008093E8000E94E00D8091E0018093620167
:1017900008958091DD01813AA1F48091E800877F6E
:1017A0008093E8008091E80080FFFCCF8091620187
:1017B0008093F1008091E8008E778093E8000C948C
:1017C000E00D089584B7877F84BF88E10FB6F89451
:1017D00080936000109260000FBE90E080E80FB62A
:1017E000F89480936100909361000FBE0E9496115F
:1017F0000E94310E0E948E0E8091E20084608093E0
:10180000E20080E799E00E948A1D78948091DC01D3
:101810008430E1F78FE693E00E9414070E9498114C
:1018200081E091E00E9408118EE593E00E94140788
:101830008091DC01853089F48AE593E00E941407E9
:101840000E94BB1D8091DA01882391F30E94E31D61
:10185000882371F30E94890CEBCF0E94C611E8CF58
:10186000292F332723303105A9F06CF421303105BD
:1018700009F442C02230310509F043C08DE890E000
:1018800028EB33E042C021323105C9F02232310564
:1018900019F137C099278130910541F082309105C7
:1018A00041F0892B71F5E4EBF3E005C0E0EAF3E0E9
:1018B00002C0E4E9F3E0849190E09F0126C0653026
:1018C00000F5E62FF0E0EE0FFF1FEC5DFE4F2081EC
:1018D000318189E090E019C0653098F4E62FF0E09E
:1018E000DF01AA0FBB1FA65EBE4F2D913C91EB5EA0
:1018F000FE4F808190E009C082E190E025E434E071
:1019000004C080E090E020E030E0FA0131832083E1
:10191000089580E189BD82E189BD09B400FEFDCF53
:101920008091D8008F7D8093D8008091E000826004
:101930008093E0008091E00081FDFCCF0895CF927C
:10194000DF92EF92FF920F931F93CF93DF937C016F
:101950008B01EA010E94010E811131C0209731F004
:1019600088819981081B190BE80EF91EC12CD12C16
:101970000115110519F18091E80085FD14C08091D1
:10198000E8008E778093E800209741F08881998164
:101990008C0D9D1D9983888385E011C00E94010EE6
:1019A000882331F30CC0F70181917F018093F1000E
:1019B00001501109FFEFCF1ADF0ADACF80E0DF9183
:1019C000CF911F910F91FF90EF90DF90CF900895EE
:1019D0002091E3013091E4012617370748F06115A3
:1019E000710539F42091E8002E772093E80001C0BA
:1019F000B901FC0120E061157105B9F18091DC01AC
:101A0000882309F440C0853009F43FC08091E80084
:101A100083FD3DC08091E80082FF06C08091E80010
:101A200082FF26C080E008958091E80080FFE3CF28
:101A30002091F3008091F20090E0922B61157105E6
:101A400051F08830910538F421912093F1006150D4
:101A500071090196F3CF21E0089709F020E0809109
:101A6000E8008E778093E800C6CF2111C7CFD6CF8C
:101A70008091DC01882339F0853039F08091E800CD
:101A800083FFCCCF04C082E0089583E0089581E015
:101A900008952091E3013091E4012617370748F0BB
:101AA0006115710539F42091E8002E772093E80044
:101AB00001C0B901FC0120E061157105C1F18091FF
:101AC000DC01882309F441C0853009F440C08091CD
:101AD000E80083FD3EC08091E80082FF06C080914F
:101AE000E80082FF27C080E008958091E80080FF31
:101AF000E3CF2091F3008091F20090E0922B6115EA
:101B0000710559F08830910540F424912093F1003B
:101B10003196615071090196F2CF21E0089709F0E2
:101B200020E08091E8008E778093E800C5CF2111F6
:101B3000C6CFD5CF8091DC01882339F0853039F0CC
:101B40008091E80083FFCBCF04C082E0089583E05A
:101B5000089581E00895982F973058F59093E90003
:101B6000981739F07091EC002091ED005091F00041
:101B700003C0242F762F50E021FF19C03091EB00D5
:101B80003E7F3093EB003091ED003D7F3093ED00D0
:101B90003091EB0031603093EB007093EC002093B8
:101BA000ED005093F0002091EE0027FF07C09F5FEB
:101BB000D3CF8F708093E90081E0089580E008958D
:101BC0008091DD0187FD05C08091E80080FF0EC097
:101BD00012C08091E80082FD05C08091DC01811176
:101BE000F8CF08958091E8008B7708C08091DC01E0
:101BF0008111EACF08958091E8008E778093E80004
:101C000008958091E4009091E50045E62091EC0074
:101C100020FF21C02091E80020FD21C02091DC019F
:101C2000222389F0253089F02091EB0025FD0FC09B
:101C30002091E4003091E5002817390739F341502D
:101C400041F0C901E3CF82E0089583E0089581E087
:101C5000089584E008952091E80022FFDFCF80E01E
:101C600008950E949F0E0E94A70EE0EEF0E0808192
:101C700081608083E8EDF0E080818F77808319BCFC
:101C8000A7EDB0E08C918E7F8C9380818F7E8083D6
:101C90001092DB0108950F931F93CF93DF930E945F
:101CA0009F0E0E94A70EC8EDD0E088818F778883B1
:101CB00088818068888388818F7D888319BC109291
:101CC000DC011092D8011092DA011092D90100EED5
:101CD00010E0F80180818B7F808388818160888318
:101CE00042E060E080E00E94AB0DE1EEF0E0808138
:101CF0008E7F8083E2EEF0E080818160808380814E
:101D000088608083F80180818E7F808388818061F4
:101D10008883DF91CF911F910F910895E8EDF0E056
:101D200080818F7E8083E7EDF0E080818160808319
:101D300084E082BF81E08093DB010C944B0EE8EDE0
:101D4000F0E080818E7F80831092E20008951092EF
:101D5000DA001092E10008951F920F920FB60F92D1
:101D600011242F933F934F935F936F937F938F93A0
:101D70009F93AF93BF93EF93FF938091E10082FF16
:101D80000BC08091E20082FF07C08091E1008B7F51
:101D90008093E1000E94D70A8091DA0080FF1FC083
:101DA0008091D80080FF1BC08091DA008E7F8093E5
:101DB000DA008091D90080FF0DC080E189BD82E109
:101DC00089BD09B400FEFDCF81E08093DC010E9453
:101DD000B00A05C019BC1092DC010E94C20A8091B1
:101DE000E10080FF19C08091E20080FF15C0809162
:101DF000E2008E7F8093E2008091E2008061809318
:101E0000E2008091D80080628093D80019BC85E000
:101E10008093DC010E94CD0A8091E10084FF30C0F4
:101E20008091E20084FF2CC080E189BD82E189BD00
:101E300009B400FEFDCF8091D8008F7D8093D8003B
:101E40008091E1008F7E8093E1008091E2008F7E9F
:101E50008093E2008091E20081608093E2008091B3
:101E6000D801882311F084E007C08091E30087FF48
:101E700002C083E001C081E08093DC010E94D10AAE
:101E80008091E10083FF29C08091E20083FF25C09B
:101E90008091E100877F8093E10082E08093DC0104
:101EA0001092D8018091E1008E7F8093E1008091B3
:101EB000E2008E7F8093E2008091E2008061809357
:101EC000E20042E060E080E00E94AB0D8091F00013
:101ED00088608093F0000E94C90AFF91EF91BF9142
:101EE000AF919F918F917F916F915F914F913F91B2
:101EF0002F910F900FBE0F901F9018951F920F9269
:101F00000FB60F9211242F933F934F935F936F93CC
:101F10007F938F939F93AF93BF93CF93EF93FF9351
:101F2000C091E900CF708091EC001092E90080919F
:101F3000F000877F8093F00078940E94BA0F10928F
:101F4000E9008091F00088608093F000C093E90080
:101F5000FF91EF91CF91BF91AF919F918F917F9121
:101F60006F915F914F913F912F910F900FBE0F9006
:101F70001F9018951F93CF93DF93CDB7DEB7AA9725
:101F80000FB6F894DEBF0FBECDBFEDEDF1E080914E
:101F9000F100819321E0E53EF207C9F70E94300B82
:101FA0008091E80083FF1CC12091DD013091DE01AA
:101FB000832F90E08A30910508F012C1FC01EA5AA3
:101FC000FF4F0C94D42A203881F0223809F008C140
:101FD0008091E1018F708093E9008091EB0085FB97
:101FE000882780F91092E90006C08091D90190916C
:101FF000DA01911182609091E800977F9093E80058
:102000008093F1001092F100C5C0822F8D7F09F0FE
:10201000E7C0222319F0223061F0E2C08091DF0195
:10202000813009F0DDC0333009F080E08093DA01BF
:1020300028C08091DF01811124C02091E1012F701F
:1020400009F4CEC02093E9008091EB0080FF19C015
:102050008091EB00333011F4806211C08061809375
:10206000EB0081E090E0022E01C0880F0A94EAF7AD
:102070008093EA001092EA008091EB0088608093E0
:10208000EB001092E9008091E800877F86C0211163
:10209000A7C01091DF011F778091E3008078812B2A
:1020A0008093E3008091E800877F8093E8000E949E
:1020B000E00D8091E80080FFFCCF8091E300806814
:1020C0008093E300112311F083E001C082E080934C
:1020D000DC0186C02058223008F082C08091DF01E8
:1020E0009091E0018C3D23E0920779F583E08A83AB
:1020F0008AE289834FB7F894DE01139620E03EE030
:1021000051E2E32FF0E050935700E49120FF03C029
:10211000E295EF703F5FEF708E2F90E0EA3010F0A5
:10212000C79601C0C0968D939D932F5F243149F7C8
:102130004FBF8091E800877F8093E8006AE270E0FB
:10214000CE0101960E94E80C14C0AE014F5F5F4FB4
:102150006091E1010E94300C009709F441C0209188
:10216000E800277F2093E800BC0189819A810E94C2
:10217000490D8091E8008B778093E80031C02038CA
:1021800079F58091E800877F8093E8008091D801FD
:102190008093F1008091E8008E778093E8000E94A0
:1021A000E00D1EC021111CC09091DF019230C0F4DF
:1021B0008091E800877F8093E8009093D8010E9487
:1021C000E00D8091D801811104C08091E30087FF68
:1021D00002C084E001C081E08093DC010E94170B03
:1021E0008091E80083FF0AC08091E800877F809398
:1021F000E8008091EB0080628093EB00AA960FB616
:10220000F894DEBF0FBECDBFDF91CF911F9108952F
:1022100090936801809367010895E0916701F091C0
:102220006801309721F00190F081E02D099480E061
:102230000895FF920F931F93CF93DF938C01E0914A
:102240006701F0916801309799F10280F381E02DE8
:1022500009958091C70182FF2BC080FF04C08AE7E7
:1022600095E00E941407E80180E1F82E04E715E0EC
:102270008091C70180FF0BC088811F928F931F93AD
:102280000F930E94AD070F900F900F900F90FA944C
:102290002196F110EDCF8091C70180FF09C082E740
:1022A00095E0DF91CF911F910F91FF900C9414074F
:1022B000DF91CF911F910F91FF900895E0916701F9
:1022C000F0916801309721F00480F581E02D0994A8
:1022D000089520916501309166018217930771F08E
:1022E0009093660180936501E0916701F091680128
:1022F000309721F00680F781E02D09940895209110
:102300006301309164018217930771F09093640127
:1023100080936301E0916701F0916801309721F0AB
:102320000084F185E02D0994089508950C94951189
:102330000E94231E0E94D5070C944420CF93C82FDF
:102340008091C70182FF1EC080FF04C083E995E031
:102350000E9414078091C70180FF0CC01F92CF9389
:102360002EE835E03F932F930E94AD070F900F901A
:102370000F900F908091C70180FF04C08CE895E01A
:102380000E9414078C2FCF910C9466095F926F9274
:102390007F928F929F92AF92BF92CF92DF92EF92F5
:1023A000FF920F931F93CF93DF93CDB7DEB72A979A
:1023B0000FB6F894DEBF0FBECDBF0E94FE079AE6AF
:1023C000C92E91E0D92E00E010E0AA24A394B12CEC
:1023D000502E802F0E9416093C01F601E190F190E9
:1023E0006F01E826F926E114F104B1F40F5F1F4FE5
:1023F0000530110569F78FEF89838A831B820E945C
:102400002C1E8160782F9D838C8349815A816B813A
:102410008D810E947F123AC08091C70181FD0E9488
:102420001F0920E030E04501022E02C0880C991CF3
:102430000A94E2F7C4018E219F21892B09F12E8392
:102440005F826820792081E0672809F480E088872E
:102450000E942C1E8160782F9A8789874E815F8128
:1024600068858A850E947F12F801EE0FFF1FE659EA
:10247000FE4F80819181882599259183808306C0B4
:102480002F5F3F4F2E30310571F6B0CF0E94C92328
:10249000109169010E940D111817D9F00E940D11B9
:1024A000809369012A960FB6F894DEBF0FBECDBFA8
:1024B000DF91CF911F910F91FF90EF90DF90CF9020
:1024C000BF90AF909F908F907F906F905F900C9493
:1024D0009E112A960FB6F894DEBF0FBECDBFDF91D6
:1024E000CF911F910F91FF90EF90DF90CF90BF9011
:1024F000AF909F908F907F906F905F900895CF9353
:10250000DF93CDB7DEB72B970FB6F894DEBF0FBEC3
:10251000CDBF4F83588769877A878B87DE011196F5
:1025200086E0FD0111928A95E9F785E0FE01379674
:1025300001900D928A95E1F749815A816B817C81E6
:102540008D819E810E94C8192B960FB6F894DEBF2C
:102550000FBECDBFDF91CF910895CF93C82F8823B1
:1025600009F4CCC0823859F40E940D1181FDC6C017
:1025700089E30E94821C0E94641D89E30CC0833899
:1025800079F40E940D1180FDB9C083E50E94821C80
:102590000E94641D83E50E94D31CCF910C94641D9E
:1025A000843859F40E940D1182FDA8C087E40E946E
:1025B000821C0E94641D87E4EECF8CEF8C0F813A61
:1025C00048F48C2F0E944028811198C08C2F0E94C3
:1025D000821CE3CF80E28C0F883048F4C77081E022
:1025E00001C0880FCA95EAF70E94281DD6CF8BE557
:1025F0008C0F833078F4C53A29F0C63A31F482E87A
:1026000090E005C081E890E002C083E890E0CF91BF
:102610000C94691188E58C0F853108F06FC0C83AB9
:1026200061F1C93A69F1CA3A71F1CB3A79F1CC3A20
:1026300081F1CD3A89F1CE3A91F1CF3A99F1C13B8E
:10264000A1F1C03BA9F1C23BB1F1C33BB9F1C43B1D
:10265000C1F1C53BC9F1C63BD1F1C73BD9F1C83B7C
:10266000E1F1C93BE9F1CA3BF1F1CB3BF9F1CC3BDC
:1026700009F03FC08AE292E03EC082EE90E03BC0AB
:1026800089EE90E038C08AEE90E035C085EB90E0AE
:1026900032C086EB90E02FC083EB90E02CC084EB3F
:1026A00090E029C087EB90E026C08CEC90E023C03E
:1026B0008DEC90E020C083E891E01DC08AE891E0B5
:1026C0001AC082E991E017C084E991E014C081E268
:1026D00092E011C083E292E00EC084E292E00BC06F
:1026E00085E292E008C086E292E005C087E292E0CF
:1026F00002C080E090E0CF910C947F11CF910895BB
:10270000882309F44BC0823859F40E940D1181FFCF
:1027100045C089E30E94821C0E94641D89E30CC0AD
:10272000833871F40E940D1180FF38C083E50E9448
:10273000821C0E94641D83E50E94D31C0C94641DBE
:10274000843859F40E940D1182FF28C087E40E944A
:10275000821C0E94641D87E4EFCF9CEF980F913A92
:1027600058F390E2980F983050F4877091E001C0D0
:10277000990F8A95EAF7892F0E942E1DDFCF9BE5DE
:10278000980F933020F480E090E00C946911885AFF
:10279000853120F480E090E00C947F110895882327
:1027A00021F00E94281D0C94641D0895882321F0B7
:1027B0000E942E1D0C94641D0895CF92DF92EF921B
:1027C000FF920F931F93CF93DF93CDB7DEB7289778
:1027D0000FB6F894DEBF0FBECDBF8C0185E0F801C7
:1027E000DE01119601900D928A95E1F7F801408182
:1027F0003181F280258122952F7083819481892BEC
:1028000031F03F3F31F481E04F3F19F403C081E0E4
:1028100001C080E080FDCFC249833A8389819A81DB
:102820002F830E94401C9E8388870E943F1C0E9429
:10283000121B4E81E42FE295EF70F0E0E05AFF4F5B
:102840002F8168850C94D42A842F807F142F1F70C9
:10285000882311F01295107FFF2059F0112309F4FD
:102860005FC2812F68870E943B1D0E94641D68859E
:1028700057C2862F0E948013112309F49CC2812F16
:102880000E94411D28960FB6F894DEBF0FBECDBF43
:10289000DF91CF911F910F91FF90EF90DF90CF903C
:1028A0000C94641D842F807F942F9F70E92E8032BA
:1028B00019F0E29480EFE822662319F0613001F10B
:1028C00029C0FF20A9F08E2D222349F1213039F5AE
:1028D00028960FB6F894DEBF0FBECDBFDF91CF9123
:1028E0001F910F91FF90EF90DF90CF900C944B1DB4
:1028F000222319F0213009F45EC20E944E1D2CC023
:10290000FF20E9F0263008F056C20E94251D8E21D6
:1029100029F022C0FF20F1F0211115C08E2D28963C
:102920000FB6F894DEBF0FBECDBFDF91CF911F91E0
:102930000F91FF90EF90DF90CF900C94CF13253044
:1029400008F039C209C0F801858180FFE9C18F70A4
:102950008583E4CF2111F8C18E2D66C1242F2695E1
:102960002695237030E02115310521F02130310505
:10297000C9F021C2FF2021F0862F942F937002C04E
:1029800080E090E028960FB6F894DEBF0FBECDBF72
:10299000DF91CF911F910F91FF90EF90DF90CF903B
:1029A0000C946911FF2021F0862F942F937002C0A0
:1029B00080E090E028960FB6F894DEBF0FBECDBF42
:1029C000DF91CF911F910F91FF90EF90DF90CF900B
:1029D0000C947F11862FFF2019F00E944F2202C015
:1029E0000E94B72228960FB6F894DEBF0FBECDBF67
:1029F000DF91CF911F910F91FF90EF90DF90CF90DB
:102A00000C943C23842F837009F076C0F110D3C15D
:102A1000262F229526952770220F220F862F8F7042
:102A2000C82ED12CE12CF12C022E04C0CC0CDD1CC4
:102A3000EE1CFF1C0A94D2F764FF10C06FE070E038
:102A400080E090E004C0660F771F881F991F2A95C9
:102A5000D2F7609570958095909503C060E070E026
:102A6000CB01242F269526952370422F50E042302B
:102A70005105D1F04330510559F16C297D298E293A
:102A80009F294130510541F128960FB6F894DEBFD9
:102A90000FBECDBFDF91CF911F910F91FF90EF90AF
:102AA000DF90CF900C94371B6C297D298E299F29AC
:102AB00028960FB6F894DEBF0FBECDBFDF91CF9141
:102AC0001F910F91FF90EF90DF90CF900C94511BCE
:102AD0000E94371BC701B60128960FB6F894DEBFD7
:102AE0000FBECDBFDF91CF911F910F91FF90EF905F
:102AF000DF90CF900C941D1BFF2019F0842F817064
:102B000001C08695882309F456C1262F2295269563
:102B10002770220F220F862F8F70C82ED12CE12C08
:102B2000F12C022E04C0CC0CDD1CEE1CFF1C0A9400
:102B3000D2F764FF10C06FE070E080E090E004C066
:102B4000660F771F881F991F2A95D2F76095709599
:102B50008095909503C060E070E0CB01242F26950E
:102B600026952370422F50E042305105D1F043307A
:102B7000510559F16C297D298E299F294130510534
:102B800041F128960FB6F894DEBF0FBECDBFDF919E
:102B9000CF911F910F91FF90EF90DF90CF900C9409
:102BA0000B1C6C297D298E299F2928960FB6F89435
:102BB000DEBF0FBECDBFDF91CF911F910F91FF9070
:102BC000EF90DF90CF900C94251C0E940B1CC70146
:102BD000B60128960FB6F894DEBF0FBECDBFDF91C9
:102BE000CF911F910F91FF90EF90DF90CF900C94B9
:102BF000F11B603F49F118F4603E48F48CC0623F1D
:102C000009F451C0E0F1633F09F461C084C0162F9C
:102C10001F70842F8F71FF2021F00E948A1B812F4B
:102C20007ECE0E94AB1B812F28960FB6F894DEBF94
:102C30000FBECDBFDF91CF911F910F91FF90EF900D
:102C4000DF90CF900C94D613FF20A9F0253008F028
:102C5000B2C0842F8F7128960FB6F894DEBF0FBED6
:102C6000CDBFDF91CF911F910F91FF90EF90DF903B
:102C7000CF900C94D01B263008F09DC0EACFFF20E7
:102C8000A1F0842F8F7128960FB6F894DEBF0FBE87
:102C9000CDBFDF91CF911F910F91FF90EF90DF900B
:102CA000CF900C948A1BFF2061F3842F8F7128969C
:102CB0000FB6F894DEBF0FBECDBFDF91CF911F914D
:102CC0000F91FF90EF90DF90CF900C94AB1BFF2003
:102CD00091F0842F8F7128960FB6F894DEBF0FBE47
:102CE000CDBFDF91CF911F910F91FF90EF90DF90BB
:102CF000CF900C94751B28960FB6F894DEBF0FBECC
:102D0000CDBFDF91CF911F910F91FF90EF90DF909A
:102D1000CF900C946B1BFF20A1F0222309F4B1CFBC
:102D2000862F28960FB6F894DEBF0FBECDBFDF9179
:102D3000CF911F910F91FF90EF90DF90CF900C9467
:102D4000AD12222309F4B1CF862F28960FB6F8943E
:102D5000DEBF0FBECDBFDF91CF911F910F91FF90CE
:102D6000EF90DF90CF900C9480134F70C8010E94B9
:102D7000E61F28960FB6F894DEBF0FBECDBFDF91D9
:102D8000CF911F910F91FF90EF90DF90CF900C9417
:102D9000751A4F70C80128960FB6F894DEBF0FBEA3
:102DA000CDBFDF91CF911F910F91FF90EF90DF90FA
:102DB000CF900C94E91F28960FB6F894DEBF0FBE93
:102DC000CDBFDF91CF911F910F91FF90EF90DF90DA
:102DD000CF9008950E94481D0E94171D0E94641DF7
:102DE0000E946A240E943C2380E090E00E946911C6
:102DF00080E090E00C947F110E94381D0C94EA163C
:102E00000E94401C292F22952F7030E02C30310574
:102E10004CF42A3031056CF422503109223031054E
:102E200090F407C02C30310551F02F30310539F0C6
:102E30000AC0803E10F0803F31F481E0089593FB9A
:102E4000882780F9089580E00895CF93DF9300D01C
:102E500000D01F92CDB7DEB70F900F900F900F905C
:102E60000F90DF91CF910895CF93DF9300D000D0E2
:102E700000D0CDB7DEB726960FB6F894DEBF0FBEF2
:102E8000CDBFDF91CF9108951F93CF93DF93C09172
:102E9000740116E080917501C81799F0D0E01C9F6D
:102EA000F0011D9FF00D1124EA58FE4F4081518121
:102EB00062817381848195810E9434172196C77045
:102EC000E9CFDF91CF911F9108954091A6015091D4
:102ED000A7016091A8017091A9018091AA01909128
:102EE000AB010C943417CF938091AB0182958F7016
:102EF00009F05FC08091A801882309F45AC020918D
:102F00007401A09175016091A6017091A701809153
:102F1000A9019091AA0131E06F3F09F030E0B32F91
:102F2000C6E02A1709F445C0009721F07F3F21F43D
:102F30004B2F03C041E001C040E030E040FD35C010
:102F4000C29FF001C39FF00D1124EA58FE4F41814A
:102F500074132BC04081641328C04281411125C0E5
:102F6000438154814817590710F441505109481BB7
:102F7000590B483C5105C8F48091AB018F708061BA
:102F80008093AB0186E0829FF001839FF00D1124B6
:102F9000E558FE4F80818F708061808386EA91E0E2
:102FA0000E94DD13CF910C9444172F5F3F4F277081
:102FB000B8CFCF910895CF92DF92EF92FF920F9307
:102FC0001F93CF93DF93CDB7DEB762970FB6F89418
:102FD000DEBF0FBECDBF8C0185E0F801DE011D967E
:102FE00001900D928A95E1F7D8014C9111965C9170
:102FF000119712966C9112971396ED90FC9014977E
:103000007091A601E091A7012091A9013091AA0138
:103010002115310531F0EF3F31F481E07F3F19F4A4
:1030200003C081E001C080E0B82FB170CB2E80FDDD
:103030006CC1D090A801DD2009F4F5C0F091AB017E
:10304000E216F30638F0C701821B930B883C91050A
:1030500048F09BC0209530952E0D3F1D283C310532
:1030600008F093C08F2F807F09F052C0E51314C081
:10307000741312C0D62E61110FC0FF70F061F0936F
:10308000AB010E94651786EA91E00E94DD138091F2
:10309000AB01F80185836CC1EF2831F05F3F31F45B
:1030A00081E04F3F19F403C081E001C080E080FD62
:1030B00003C081E0862701C080E0F82FF170FF2E69
:1030C00080FF1CC0809174012091750136E0821749
:1030D00009F428C190E0389FF001399FF00D1124C8
:1030E000EA58FE4F7181571306C07081471303C021
:1030F0007281671303C001968770E9CFD62E6623CD
:1031000009F436C18091AB0181608093AB0153C05B
:10311000E51308C0741306C0611104C0D8011596E8
:10312000FC93AEC04D875E878D859E856A8B0E941D
:1031300000176A89882329F1D62E662311F1209180
:10314000AB01822F82958F7090E002970CF460C0E3
:103150008091A6019091A70198878F831986FB869D
:10316000EA862C87CE01079651C0E51731F14D87CD
:103170005E878D859E856A8B0E9400176A89811102
:103180002EC0C8010E94DD13A4C08F2F807F69F775
:103190007E2DF98AE88A89890E94251786EA91E0BE
:1031A0000E94DD13E6EAF1E086E0DF011D928A95D8
:1031B000E9F70E946517D12CDBC07413D8CF6111D9
:1031C000D6CFD8011596FC93C8010E94DD13E6EA1C
:1031D000F1E086E0DF011D928A95E9F7C9C0D62E9D
:1031E000662379F22091AB01822F82958F7090E057
:1031F000029774F08091A6019091A7019A83898328
:103200001B82FD82EC822E83CE0101960E94DD138B
:1032100086E0F801A6EAB1E001900D928A95E1F707
:103220000E9473176FC0E216F30628F0C701821BD5
:10323000930B9C0104C0209530952E0D3F1D283C1A
:10324000310508F052C0D62E662309F49ACFE51353
:103250002CC074132AC08091AB0180FD1DC0982F33
:1032600092959F70C9F0D80115968C9315979F3051
:1032700039F09F5F9295907F8F70892B15968C9374
:10328000C8010E94DD1386E0F801A6EAB1E00190D2
:103290000D928A95E1F736C086E0F801A6EAB1E022
:1032A00001900D928A95E1F763C04D875E878D8509
:1032B0009E850E940017882379F086E0F801A6EA2F
:1032C000B1E001900D928A95E1F70E9473170E9478
:1032D0006517DD24D3944CC08091AB01816080934D
:1032E000AB01C8010E94DD1343C07E2DF98AE88A34
:1032F00089890E942517E6EAF1E086E0DF011D9248
:103300008A95E9F70E94651733C0662309F439CF1F
:103310004D875E878D859E850E940017882309F45E
:1033200030CFCBCF4D875E878D859E850E94401C18
:10333000292F22952F7030E0223031052CF49F7018
:1033400041F0811106C00CC0243031052CF49F706F
:1033500049F4805E883020F0C8010E94DD13CF2C34
:10336000DC2C06C0D80115969C91907F91F7F8CF80
:103370008D2D62960FB6F894DEBF0FBECDBFDF91E4
:10338000CF911F910F91FF90EF90DF90CF90089514
:103390001F93CF93DF93CDB7DEB72C970FB6F8947A
:1033A000DEBF0FBECDBF4F83588769877A878B8773
:1033B0009C87CE0107960E94DB178823C1F02F81DE
:1033C00038858A859B85892B31F03F3F11F080E05D
:1033D00003C02F3FE1F781E0811147C04F8158853D
:1033E00069857A858B859C850E9434173EC086E06E
:1033F000FE013796DE01119601900D928A95E1F754
:10340000FF81E8854A855B854115510531F0EF3F25
:1034100031F481E0FF3F19F403C081E001C080E096
:1034200080FD23C02091750130E0C90101968770AD
:1034300099276091740170E086179707F1F1F9837D
:10344000EA835D834C8396E0929FD001939FB00DF9
:103450001124AA58BE4FFE01319601900D929A9503
:10346000E1F7809375010E94441716E08091740182
:1034700090917501891779F1189FC00111248A581C
:103480009E4F0E94DB17882331F1E09174011E9F4B
:10349000F0011124EA58FE4F40815181628173810D
:1034A000848195810E9434178091740190E0019687
:1034B0008770992780937401D9CF0E94FC161092CF
:1034C000750110927401E6EAF1E086E0DF011D92D9
:1034D0008A95E9F7CACF2C960FB6F894DEBF0FBED7
:1034E000CDBFDF91CF911F910895DF92EF92FF92B0
:1034F0000F931F93CF93DF939C01009709F48AC029
:10350000E12CF12CDD24D394E9012196F901849179
:10351000853709F462C058F4843708F04EC084300F
:1035200008F069C08130D1F0823071F173C0883702
:1035300009F45CC050F4863709F454C0873709F0A9
:1035400069C08E2D0E94351D53C09CE7980F90379F
:1035500008F060C08F770E9480134FC089010E5F12
:103560001F4FFE01C49180E28C0F883048F4C77071
:103570008D2D01C0880FCA95EAF70E943B1D15C02A
:103580008C2F0E94AD1213C089010E5F1F4FFE01E8
:10359000C49180E28C0F883060F4C7708D2D01C01B
:1035A000880FCA95EAF70E94411D0E94641DE80138
:1035B00024C08C2F0E948013FACF2E5F3F4FFE0154
:1035C000C491CC2341F08FE99FE00197F1F700C04F
:1035D0000000C150F6CFE90110C0FE01F490E901EE
:1035E00022960BC00E94251DE82E07C00E94381DA0
:1035F0000E94641D02C00E94AD129F2D992341F0CC
:10360000EFE9FFE03197F1F700C000009150F6CFED
:103610009E017ACFDF91CF911F910F91FF90EF9094
:10362000DF90089508956093B0017093B101809385
:10363000B2019093B3010C94EA160F931F9300917B
:10364000B0011091B1012091B2013091B301062B6C
:10365000172B282B392B0093B0011093B101209325
:10366000B2013093B3011F910F910C94EA160F939E
:103670001F930091B0011091B1012091B2013091DE
:10368000B30106231723282339230093B001109395
:10369000B1012093B2013093B3011F910F910C94AB
:1036A000EA160F931F930091B0011091B101209180
:1036B000B2013091B3010627172728273927009335
:1036C000B0011093B1012093B2013093B3011F9167
:1036D0000F910C94EA161092AC011092AD01109269
:1036E000AE011092AF010C94EA1641E050E060E0A8
:1036F00070E004C0440F551F661F771F8A95D2F7EC
:103700004093AC015093AD016093AE017093AF0153
:103710000C94EA1641E050E060E070E004C0440F11
:10372000551F661F771F8A95D2F78091AC01909143
:10373000AD01A091AE01B091AF01842B952BA62BCA
:10374000B72B8093AC019093AD01A093AE01B093E1
:10375000AF010C94EA1641E050E060E070E004C074
:10376000440F551F661F771F8A95D2F740955095D5
:10377000609570958091AC019091AD01A091AE01E2
:10378000B091AF0184239523A623B7238093AC0186
:103790009093AD01A093AE01B093AF010C94EA16E3
:1037A00041E050E060E070E004C0440F551F661F28
:1037B000771F8A95D2F78091AC019091AD01A091CD
:1037C000AE01B091AF0184279527A627B727809334
:1037D000AC019093AD01A093AE01B093AF010C94F6
:1037E000EA160F931F930091AC011091AD01209147
:1037F000AE013091AF01062B172B282B392B0093EC
:10380000AC011093AD012093AE013093AF011F9135
:103810000F910C94EA160F931F930091AC01109135
:10382000AD012091AE013091AF010623172328236B
:1038300039230093AC011093AD012093AE01309376
:10384000AF011F910F910C94EA160F931F930091F3
:10385000AC011091AD012091AE013091AF0106276E
:103860001727282739270093AC011093AD01209327
:10387000AE013093AF011F910F910C94EA16089599
:10388000CF92DF92EF92FF920F931F93CF93DF932C
:10389000EC01C090B001D090B101E090B201F09085
:1038A000B3018091AC019091AD01A091AE01B091B6
:1038B000AF01C82AD92AEA2AFB2A0FE110E0B70192
:1038C000A601002E04C076956795579547950A94F2
:1038D000D2F740FF07C0BE01802F0E94731F8130C6
:1038E000910539F40150110950F7BE0180E00E94A2
:1038F000731FDF91CF911F910F91FF90EF90DF9099
:10390000CF90089590910B01992361F190910C0152
:10391000992341F1982F9695969596959F3088F426
:10392000E0910D01F0910E01E90FF11D877021E08A
:1039300030E001C0220F8A95EAF78181822B8183D2
:1039400008959091C70190FF2DC01F928F9384EC32
:1039500095E09F938F930E94AD070F900F900F906B
:103960000F90089540910D0150910E0120E030E03C
:103970009FEFFA01E20FF31F6281681799F09F3FF2
:1039800019F4611101C0922F2F5F3F4F2E30310586
:1039900081F79F3F39F0FA01E90FF11D97FDFA9584
:1039A00082830895089590910B01992369F1909174
:1039B0000C01992349F1982F9695969596959F30ED
:1039C00090F4E0910D01F0910E01E90FF11D877067
:1039D00021E030E001C0220F8A95EAF7209581812D
:1039E0002823218308959091C70190FF1FC01F9243
:1039F0008F9386EA95E09F938F930E94AD070F9077
:103A00000F900F900F90089540910D0150910E016D
:103A100020E030E0FA01E20FF31F9281981301C019
:103A200012822F5F3F4F2E303105A1F7089581E0BC
:103A300090E0E0910D01F0910E01E80FF91F108266
:103A4000019680319105A9F708958091C6010895E6
:103A50009091C601982B9093C601089580959091FE
:103A6000C60198239093C60108958093C6010895D6
:103A70001092C60108959091C501982B9093C501AD
:103A8000089580959091C50198239093C50108955C
:103A90001092C50108958093B40108951092B40165
:103AA000089540910D0150910E0120E030E080E03A
:103AB000FA01E20FF31F918191118F5F2F5F3F4F4A
:103AC0002F303105A9F70895E0910D01F0910E0115
:103AD0008091C6018083E0910D01F0910E018081FB
:103AE0009091C501892B80839091B401992361F055
:103AF000E0910D01F0910E018081892B80830E945D
:103B0000511D81111092B40180910D0190910E010F
:103B10000C9419119093390180933801089582957E
:103B2000982F9C7C96959695837344E0849F900192
:103B30001124922B892F8A7A86959575990F892B56
:103B400008951F93CF93DF931F92CDB7DEB799836C
:103B50000E948F1D182F9981892F0E948F1D212F60
:103B600030E0322F2227A901482BCA010F90DF91A4
:103B7000CF911F9108958091DC01843009F110925A
:103B8000C80120E488E190E00FB6F894A8958093EE
:103B900060000FBE2093600083B7817F846083BF85
:103BA00083B7816083BF7894889583B78E7F83BF06
:103BB00088E10FB6F89480936000109260000FBE09
:103BC000089508950895CF930E94E11D0E94FE0775
:103BD0000E94E21DC0E08C2F0E941609892B29F457
:103BE000CF5FC530C1F780E001C081E0CF9108957B
:103BF0000C94FC161F920F920FB60F9211248F9304
:103C00009F93AF93BF938091C801811113C080919E
:103C1000C9019091CA01A091CB01B091CC0141960C
:103C2000A11DB11D8093C9019093CA01A093CB013E
:103C3000B093CC01BF91AF919F918F910F900FBE28
:103C40000F901F90189582E084BD93E095BD9AEF88
:103C500097BD80936E0008952FB7F8948091C901A5
:103C60009091CA01A091CB01B091CC012FBF0895D2
:103C70002FB7F8946091C9017091CA018091CB016E
:103C80009091CC012FBF0895CF92DF92EF92FF92D7
:103C90000F931F932FB7F8944091C9015091CA0117
:103CA0006091CB017091CC012FBF6A017B01EE24A2
:103CB000FF248C0120E030E0C016D106E206F306B6
:103CC00010F441505109481B590BCA011F910F9123
:103CD000FF90EF90DF90CF9008951F920F920FB654
:103CE0000F9211248F939F93AF93BF938091C9013B
:103CF0009091CA01A091CB01B091CC010196A11D78
:103D0000B11D8093C9019093CA01A093CB01B093D8
:103D1000CC01BF91AF919F918F910F900FBE0F90EB
:103D20001F9018950E94310EF8942FEF87EA91E6C4
:103D3000215080409040E1F700C0000087E090EB08
:103D4000DC018093E6019093E701A093E801B09332
:103D5000E9012CE088E190E00FB6F894A8958093F3
:103D600060000FBE20936000FFCF8D3B60F4883A67
:103D700080F5853A28F5843008F5813009F06BC06C
:103D800081E090E00895883E98F4803EB8F48F3B3F
:103D900009F061C00E94FC162FEF80E792E02150ED
:103DA00080409040E1F700C000000E94921E53C086
:103DB000803F08F450C090E09065089590E0089529
:103DC000853A09F44BC0863A09F04BC082E890E48A
:103DD0000895883A09F448C0893A09F448C08A3AF3
:103DE00009F448C08B3A09F448C08C3A09F448C039
:103DF0008D3A09F448C08E3A09F448C08F3A09F464
:103E000048C0813B09F448C0803B09F448C0823B6C
:103E100009F448C0833B09F448C0843B09F448C016
:103E2000853B09F448C0863B09F448C0873B09F448
:103E300048C0883B09F448C0893B09F448C08A3B24
:103E400009F448C08B3B09F448C08C3B09F048C0DA
:103E50008AE296E4089580E090E0089581E890E495
:103E6000089583E890E4089582EE94E4089589EE3D
:103E700094E408958AEE94E4089585EB94E408951B
:103E800086EB94E4089583EB94E4089584EB94E442
:103E9000089587EB94E408958CEC94E408958DECF8
:103EA00094E4089583E895E408958AE895E40895F4
:103EB00082E995E4089584E995E4089581E296E421
:103EC000089583E296E4089584E296E4089585E2F5
:103ED00096E4089586E296E4089587E296E40895CC
:103EE00080E094E408950E94B607803EA8F4803CE8
:103EF00000F5813309F45CC038F4893209F452C00A
:103F00008A3209F45BC05FC08933B1F08238A1F016
:103F1000853309F441C057C0833E41F128F4803E07
:103F200099F0823EB9F04FC0863E31F1873E71F183
:103F30004AC00E94C50708959091E50190FD02C016
:103F400091FF41C080EE3FC08091E50180FFFACF34
:103F500089E339C08091E50182FF0CC08091E501C1
:103F600084FF02C080E02FC083EE2DC08091E50168
:103F700082FFF4CF82EE27C08091E50183FF0AC063
:103F80008091E50184FDEECF87EE1DC08091E501B3
:103F900083FFF6CF86EE17C08091E50185FF06C04E
:103FA00089E211C08091E50185FFFACF85E30BC05E
:103FB0008091E50186FF06C08AE205C08091E50197
:103FC00086FFFACF81E30E94B51E089580E090E05D
:103FD00008950895BF92CF92DF92EF92FF920F93D0
:103FE0001F93CF93DF938C01B12CEE24E394F12C3B
:103FF0008B2D0E9416096C01C0E0D0E097010C2EB9
:1040000002C0220F331F0A94E2F72C213D21232BFB
:10401000B1F06C2F7B2D80E00E94731F9C018017F4
:10402000910759F0832F807E932F907C11F0803A76
:1040300031F430E02017310711F481E009C02196F6
:10404000CE30D105D9F6B39485E0B812D1CF80E057
:10405000DF91CF911F910F91FF90EF90DF90CF9064
:10406000BF900895CF93DF93EC018CE290E00E9423
:10407000EA1F882329F0CE01DF91CF910C94EA1F2B
:1040800080E0DF91CF910895CF930E94A821811104
:1040900002C00E948E2189EE95E00E941407C5E6B9
:1040A000C15049F00E94FE078FE39CE90197F1F7A8
:1040B00000C00000F5CF82EE95E00E94140789E26F
:1040C00090E00E943220811127C18AE290E00E9494
:1040D000322081110E948E2185E090E00E943220E2
:1040E00081110E94921E0E94B3218093C70187E034
:1040F00090E00E9432208823B1F18BE190E00E9491
:104100003220882351F09091C70191FB882780F9D4
:1041100021E0822780FB91F924C08EE090E00E948C
:104120003220882351F09091C70192FB882780F9B3
:1041300021E0822780FB92F914C080E190E00E9488
:1041400032209091C701882341F093FB882780F9A2
:1041500021E0822780FB93F904C0892F809580FBA2
:1041600090F99093C7018091C7010E94B7210E94E6
:10417000C5218093E50180EE90E00E9432208823E3
:1041800041F08091E501982F909590FB80F9809304
:10419000E50189E390E00E943220882359F0909154
:1041A000E50191FB882780F921E0822780FB91F9C6
:1041B0009093E50182EE90E00E943220882359F02E
:1041C0009091E50192FB882780F921E0822780FB0E
:1041D00092F99093E50186EE90E00E9432208823C8
:1041E00059F09091E50193FB882780F921E082271F
:1041F00080FB93F99093E50183EE90E00E943220DA
:10420000882359F09091E50194FB882780F921E0FB
:10421000822780FB94F99093E50185E390E00E946A
:104220003220882359F09091E50195FB882780F989
:1042300021E0822780FB95F99093E50181E390E0EE
:104240000E943220882359F09091E50196FB88273F
:1042500080F921E0822780FB96F99093E50181E1C6
:1042600090E00E943220882359F09091E50197FB5D
:10427000882780F921E0822780FB97F99093E50158
:104280008091E5010E94C9218091E50187FB882783
:1042900080F980930C0187E290E00E943220C82FC1
:1042A0008EE190E00E9432208111C2608FE190E0A7
:1042B0000E9432208111C46080E290E00E9432208E
:1042C0008111C86081E290E00E9432208111C061BA
:1042D00082E290E00E9432208111C06283E290E08D
:1042E0000E9432208111C06484E290E00E9432205A
:1042F000882311F0C06802C0CC2329F08C2F0E94C3
:10430000C0216C2F03C00E94BC21682F70E080E0A8
:1043100090E0CF910C94131BCF9108956DEE7EEF3A
:1043200080E090E00E940A2B60E082E090E00E9432
:10433000FC2A60E083E090E00E94FC2A60E084E0D8
:1043400090E00E94FC2A60E085E090E00C94FC2A5A
:1043500080E090E00E94F62A21E08D3E9E4F09F019
:1043600020E0822F089582E090E00C94EE2A682FDE
:1043700082E090E00C94FC2A83E090E00C94EE2A1A
:10438000682F83E090E00C94FC2A84E090E00C9489
:10439000EE2A682F84E090E00C94FC2A8091CF01F3
:1043A00080FF0BC06091120185E0689FB00111246D
:1043B00075956795759567952AC081FF09C06091CD
:1043C000120185E0689FB0011124759567951FC0A3
:1043D00082FF07C06091120185E0689FB00111243F
:1043E00016C04091D0014423C9F0609111014617D5
:1043F00088F72091120185E0289F90011124429FA7
:10440000C001439F900D112470E00E94C02A6038C3
:10441000710540F46115710539F002C065E070E086
:10442000862F08958FE7089581E008958091CF0148
:1044300080FF08C06091100170E0759567957595D3
:10444000679521C081FF06C06091100170E07595ED
:10445000679519C082FF04C06091100170E010C020
:104460008091D0018823C1F060910F018617A0F7D9
:1044700090911001989FC001112470E00E94C02A01
:104480006038710528F46115710521F0862F0895B3
:104490008FE7089581E0089561E070E0F4CF803FF8
:1044A00021F40E94CE21819504C0813F29F40E940D
:1044B000CE218093D3010895823F21F40E94CE2122
:1044C000819504C0833F29F40E94CE218093D201BC
:1044D0000895893F19F40E94162205C08A3F31F4DD
:1044E0000E94162281958093D40108958B3F21F478
:1044F0000E941622819504C08C3F29F40E94162246
:104500008093D5010895843F21F48091D101816089
:1045100017C0853F21F48091D101826011C0863F90
:1045200021F48091D10184600BC0873F21F48091F8
:10453000D101886005C0883F31F48091D10180614C
:104540008093D10108958D3F21F48091CF01816046
:104550000BC08E3F21F48091CF01826005C08F3F58
:1045600029F48091CF0184608093CF010895803F2A
:1045700039F48091D30187FF6CC01092D30169C0D8
:10458000813F29F48091D3011816BCF362C0909149
:10459000D201823F29F497FF5CC01092D20159C02A
:1045A000833F19F41916CCF354C0893F41F480912C
:1045B000D40118160CF04DC01092D4014AC08A3FA5
:1045C00029F48091D40187FF44C0F6CF8B3F39F4A2
:1045D0008091D50187FF3DC01092D5013AC08C3F34
:1045E00029F48091D5011816BCF333C0843F21F41F
:1045F0008091D1018E7F17C0853F21F48091D10138
:104600008D7F11C0863F21F48091D1018B7F0BC03B
:10461000873F21F48091D101877F05C0883F31F425
:104620008091D1018F7E8093D10113C08D3F21F401
:104630008091CF018E7F0BC08E3F21F48091CF01FE
:104640008D7F05C08F3F29F48091CF018B7F8093B0
:10465000CF018091D20181110EC08091D3018111CF
:104660000AC08091D401811106C08091D5018111C9
:1046700002C01092D00108958091C70183FF7EC0CF
:1046800085E296E00E9414078091D1011F928F93DA
:1046900080E296E09F938F930E94AD078EE196E0B3
:1046A0000E9414072091D201822F992787FD9095AF
:1046B0009F932F938BE196E09F938F930E94AD077A
:1046C00089E196E00E9414072091D301822F992757
:1046D00087FD90959F932F9386E196E09F938F930C
:1046E0000E94AD0784E196E00E9414072091D40156
:1046F000822F992787FD90959F932F9381E196E0D4
:104700009F938F930E94AD078FE096E00E9414075D
:104710002091D501822F992787FD90959F932F9304
:104720008CE096E09F938F930E94AD0789E096E01E
:104730000E9414078091D0011F928F9386E096E02B
:104740009F938F930E94AD0784E096E00E94140728
:104750008091CF011F928F9381E096E09F938F937A
:104760000E94AD078EEF95E00E9414078DB79EB7AB
:104770004C960FB6F8949EBF0FBE8DBF81ED91E0B1
:104780000E945E110E942C1E9093CE018093CD0159
:1047900008951F93CF93DF938091CD019091CE0127
:1047A0000E94441E4091D001442321F02091130126
:1047B00030E006C0209114015AE0259F9001112499
:1047C0008217930708F482C08091D2011091D3011F
:1047D000D091D401C091D501811107C0111105C03C
:1047E000D11103C0CC2309F471C04F3F19F04F5FC2
:1047F0004093D001181624F40E94CE218093D20158
:104800008091D20187FF05C00E94CE2181958093BF
:10481000D201111624F40E94CE218093D3018091FD
:10482000D30187FF05C00E94CE2181958093D301DB
:104830006091D201662339F11091D301112319F14E
:10484000772767FD7095872F972F0E94C52923E34F
:1048500033E343E35FE30E94292A0E949229609395
:10486000D201612F772767FD7095872F972F0E94C0
:10487000C52923E333E343E35FE30E94292A0E942F
:1048800092296093D3011D1624F40E94162280936E
:10489000D4018091D40187FF05C00E941622819522
:1048A0008093D4011C1624F40E9416228093D50113
:1048B0008091D50187FF05C00E94162281958093C3
:1048C000D501DF91CF911F910C943C23DF91CF91C3
:1048D0001F910895E1EDF1E085E0DF011D928A95D9
:1048E000E9F71092D0011092CF01089588E498E082
:1048F0000E9414071F9281E08F931F9285E08F938F
:104900008AEF97E09F938F930E94AD070F900F90CF
:104910000F900F900F900F9008958330E9F128F4D5
:10492000813061F0823009F10895853009F462C068
:1049300008F449C0863009F474C008952091140128
:10494000862F90E0820F911D8F3F910520F4620F1A
:104950006093140103C08FEF8093140180911401C0
:104960001F928F9383E397E072C020911301862FEB
:1049700090E0820F911D8F3F910520F4620F6093AC
:10498000130103C08FEF80931301809113011F92D5
:104990008F9381E297E05BC020911201862F90E017
:1049A000820F911D8F3F910520F4620F60931201D9
:1049B00003C08FEF80931201809112011F928F9399
:1049C0008EE097E044C020911101862F90E0820F85
:1049D000911D8F3F910520F4620F6093110103C078
:1049E0008FEF80931101809111011F928F9389EFB6
:1049F00096E02DC020911001862F90E0820F911D2E
:104A00008F3F910520F4620F6093100103C08FEF78
:104A100080931001809110011F928F9380EE96E099
:104A200016C020910F01862F90E0820F911D8F3FBD
:104A3000910520F4620F60930F0103C08FEF809304
:104A40000F0180910F011F928F9385EC96E09F9349
:104A50008F930E94AD070F900F900F900F900895C5
:104A6000833081F128F4813059F08230D1F00895FB
:104A7000853009F449C0B8F1863009F456C008956C
:104A800080911401681720F4861B8093140102C0E2
:104A900010921401809114011F928F9386EB96E07F
:104AA00054C080911301681720F4861B8093130172
:104AB00002C010921301809113011F928F9384EA18
:104AC00096E043C080911201681720F4861B809302
:104AD000120102C010921201809112011F928F9355
:104AE00081E996E032C080911101681720F4861B9D
:104AF0008093110102C010921101809111011F9247
:104B00008F938CE796E021C080911001681720F404
:104B1000861B8093100102C0109210018091100139
:104B20001F928F9383E696E010C080910F01681763
:104B300020F4861B80930F0102C010920F01809118
:104B40000F011F928F9388E496E09F938F930E94AA
:104B5000AD070F900F900F900F900895CF93C82F2F
:104B60001F928F932DE439E03F932F930E94AD075E
:104B700061E070E080E090E004C0660F771F881F5E
:104B8000991FCA95D2F70E94131B0F900F900F9098
:104B90000F90CF910C94FC16CF938B3109F4CBC1BD
:104BA00008F049C08E3009F4D9C100F5873009F406
:104BB000A9C1A8F4863009F057C28091C701817F4E
:104BC0008E7F8093C70182E599E00E94140785E7F4
:104BD0009DE00E94140781E08093D70191C1883045
:104BE00009F45BC08B3009F487C13EC2813109F4FE
:104BF00023C220F4803109F4C4C136C2863109F4DD
:104C0000DAC1893109F030C289EE9CE00E941407B4
:104C100080EC9CE00E9414078BE89CE00E94140743
:104C200084E69CE00E9414078FE19CE00E94140738
:104C300084EF9BE063C1853309F410C268F48732C6
:104C400009F40CC228F48E3108F40EC28D5109C249
:104C5000893209F403C208C2833438F48A3308F075
:104C6000FFC1883309F448C1FFC1833409F4F6C198
:104C7000883409F0F9C10E94FC1684E69DE00E9488
:104C800014079FEF23ED80E3915020408040E1F72F
:104C900000C000000E94921E33C189E79DE00E947F
:104CA000140781E59BE00E9414070E94BC211F921B
:104CB0008F938EE49BE09F938F930E94AD078CE4CB
:104CC0009BE00E9414070E94B321C82F89E39BE058
:104CD0000E9414071F92CF9324E33BE03F932F934E
:104CE0000E94AD0782E39BE00E94140788E29BE0EC
:104CF0000E9414078C2F81701F928F9325E23BE056
:104D00003F932F930E94AD0783E29BE00E9414071C
:104D100089E19BE00E941407C1FB882780F91F925C
:104D20008F9326E13BE03F932F930E94AD0784E1F0
:104D30009BE00E94140788E09BE00E941407C2FBDE
:104D4000882780F91F928F9325E03BE03F932F93B4
:104D50000E94AD0783E09BE00E9414078AEF9AE06F
:104D60000E941407C3FBCC27C0F91F92CF9387EF93
:104D70009AE09F938F930E94AD0785EF9AE00E947F
:104D800014070E94C521C82F81EE9AE00E941407E3
:104D90001F92CF932CED3AE03F932F930E94AD07E3
:104DA0008AED9AE00E94140781EC9AE00E941407B1
:104DB0008C2F81701F928F932EEB3AE03F932F93AD
:104DC0000E94AD078DB79EB780960FB6F8949EBF30
:104DD0000FBE8DBF8CEB9AE00E94140785EA9AE023
:104DE0000E941407C1FB882780F91F928F9322EA43
:104DF0003AE03F932F930E94AD0780EA9AE00E9429
:104E000014078EE89AE00E941407C2FB882780F9F5
:104E10001F928F932BE83AE03F932F930E94AD07A8
:104E200089E89AE00E94140787E79AE00E94140735
:104E3000C3FB882780F91F928F9324E73AE03F93C2
:104E40002F930E94AD0782E79AE00E94140788E63C
:104E50009AE00E941407C4FB882780F91F928F9361
:104E600025E63AE03F932F930E94AD0783E69AE050
:104E70000E94140781E59AE00E941407C5FB882769
:104E800080F91F928F932EE43AE03F932F930E9474
:104E9000AD078CE49AE00E94140780E39AE00E9438
:104EA0001407C6FB882780F91F928F932DE23AE002
:104EB0003F932F930E94AD078BE29AE00E94140764
:104EC00083E29AE00E941407C7FBCC27C0F91F9227
:104ED000CF9380E29AE09F938F930E94AD078EE17B
:104EE0009AE00E9414078DB79EB74C960FB6F894BF
:104EF0009EBF0FBE8DBF04C089E799E00E941407D2
:104F0000C1E0B7C08091C701C82FC17080FF09C040
:104F100087E59DE00E9414078091C701817F8E7F05
:104F200044C08BE49DE00E9414078091C70181601A
:104F30008093C701E5CF8091C70181FBCC27C0F9E1
:104F400091E0C927C0FB81F98093C701CC2319F0F8
:104F50008EE39DE025C080E39DE0D0CF8091C70126
:104F600082FBCC27C0F991E0C927C0FB82F980936E
:104F7000C701CC2319F081E29DE012C081E19DE0E0
:104F8000BDCF8091C70183FBCC27C0F991E0C92731
:104F9000C0FB83F98093C701CC2351F085E09DE0ED
:104FA0000E9414078091C70181608093C70161C08E
:104FB00088EF9CE0A3CF86EE9BE00E9414070E943E
:104FC0000D111F928F938CEC9BE09F938F930E9407
:104FD000AD0780910B011F928F9385EB9BE09F9310
:104FE0008F930E94AD07809162011F928F9382EA96
:104FF0009BE09F938F930E94AD0780910C011F92BD
:105000008F938FE89BE09F938F930E94AD070E9440
:10501000381E9F938F937F936F9388E79BE09F93B6
:105020008F930E94AD078DB79EB746960FB6F89442
:105030009EBF0FBE8DBF64CF0E94FC16C0910C01B5
:1050400081E0C827C0930C01CC2329F08EE69BE0B9
:105050000E9414070EC083E69BE050CF80E001C0A1
:1050600089530E94AE254CCF81E69BE00E94140735
:10507000C0E08C2FCF91089580E0089580E00895DE
:10508000CF93C82F8091D701813071F020F082300A
:1050900009F448C03FC1A0910D01B0910E018C915F
:1050A000823209F039C107C0A0910D01B0910E0103
:1050B0008C91823249F48C2F0E943C2881112FC0A0
:1050C0008C2F0E94CC252CC08C2F0E943E28811151
:1050D00026C0C431E1F070F4CB3081F0C031D1F49E
:1050E0000E94762485E499E00E94140782E0809370
:1050F000D70115C0C93259F0C83361F482E599E08F
:105100000E94140789E499E00E94140708C01092D5
:10511000D70104C183E499E00E941407FFC081E035
:105120008170FEC0C43228F5CE3108F0C1C0CB304A
:10513000A1F1D0F4C73009F0D3C08EE180931401FF
:1051400082E3809313018AE08093120184E18093CB
:10515000110188E08093100188E280930F0189EEAD
:1051600097E00E941407BFC0C33149F1C431C1F0B8
:10517000B7C0CB3409F4A9C028F4C93289F0C833C8
:1051800061F0AEC0C13509F49EC0C23509F499C0C2
:10519000CE3409F0A5C06AE09EC00E947624A3C068
:1051A0008091D601882319F01092D6019CC086EF19
:1051B00097E00E94140781E08093D701B1C080ED91
:1051C00097E00E9414078EEB97E00E9414078091ED
:1051D00014011F928F938BEB97E09F938F930E9404
:1051E000AD0789EB97E00E94140787EA97E00E94D9
:1051F0001407809113011F928F9384EA97E09F9385
:105200008F930E94AD0782EA97E00E94140783E91A
:1052100097E00E941407809112011F928F9380E9FA
:1052200097E09F938F930E94AD078EE897E00E94CE
:1052300014078DE797E00E941407809111011F92D7
:105240008F938AE797E09F938F930E94AD0788E73B
:1052500097E00E94140783E697E00E94140780916C
:1052600010011F928F9380E697E09F938F930E9487
:10527000AD078EE597E00E94140787E497E00E944F
:10528000140780910F011F928F9384E497E09F93FE
:105290008F930E94AD0782E497E00E9414078DB7B8
:1052A0009EB748960FB6F8949EBF0FBE8DBF1BC029
:1052B000CE51EC2FF0E0E25DFE4F80818093D6016D
:1052C00012C061E003C061E006C06AE08091D601CF
:1052D0000E948D2408C08091D6010E94302503C011
:1052E00087EE97E013C08091D601882369F01F9262
:1052F0008F9381EE97E09F938F930E94AD070F905D
:105300000F900F900F9004C08EED97E00E9414074D
:1053100081E006C01092D70180E002C080E000CF9B
:10532000CF91089504D06894B1118DC0089570D0C4
:1053300088F09F5790F0B92F9927B751A0F0D1F07E
:10534000660F771F881F991F1AF0BA95C9F712C008
:10535000B13081F077D0B1E0089574C0672F782F15
:105360008827B85F39F0B93FCCF386957795679574
:10537000B395D9F73EF490958095709561957F4FE0
:105380008F4F9F4F0895E89409C097FB3EF4909586
:105390008095709561957F4F8F4F9F4F9923A9F00E
:1053A000F92F96E9BB279395F6958795779567959D
:1053B000B795F111F8CFFAF4BB0F11F460FF1BC0E1
:1053C0006F5F7F4F8F4F9F4F16C0882311F096E974
:1053D00011C0772321F09EE8872F762F05C0662322
:1053E00071F096E8862F70E060E02AF09A95660FDB
:1053F000771F881FDAF7880F9695879597F9089594
:1054000057FD9058440F551F59F05F3F71F0479575
:10541000880F97FB991F61F09F3F79F0879508955A
:10542000121613061406551FF2CF4695F1DF08C079
:10543000161617061806991FF1CF86957105610596
:1054400008940895E894BB2766277727CB0197F93E
:1054500008950BD078C069D028F06ED018F095234D
:1054600009F05AC05FC01124EECFCADFA0F3959FA8
:10547000D1F3950F50E0551F629FF001729FBB273B
:10548000F00DB11D639FAA27F00DB11DAA1F649FE7
:105490006627B00DA11D661F829F2227B00DA11D9A
:1054A000621F739FB00DA11D621F839FA00D611D20
:1054B000221F749F3327A00D611D231F849F600D41
:1054C000211D822F762F6A2F11249F5750408AF07A
:1054D000E1F088234AF0EE0FFF1FBB1F661F771F06
:1054E000881F91505040A9F79E3F510570F014C09D
:1054F000AACF5F3FECF3983EDCF3869577956795EE
:10550000B795F795E7959F5FC1F7FE2B880F911D23
:105510009695879597F9089597F99F6780E870E0C9
:1055200060E008959FEF80EC089500240A94161619
:10553000170618060906089500240A941216130681
:10554000140605060895092E0394000C11F488230F
:1055500052F0BB0F40F4BF2B11F460FF04C06F5F2B
:105560007F4F8F4F9F4F0895991B79E004C0991F7B
:10557000961708F0961B881F7A95C9F780950895AD
:1055800097FB072E16F4009407D077FD09D00E94F0
:10559000DA2A07FC05D03EF4909581959F4F089537
:1055A000709561957F4F0895EE0FFF1F0590F49160
:1055B000E02D0994AA1BBB1B51E107C0AA1FBB1F0A
:1055C000A617B70710F0A61BB70B881F991F5A958F
:1055D000A9F780959095BC01CD010895F999FECF6A
:1055E00092BD81BDF89A992780B50895A8E1B0E0F1
:1055F00042E050E00C94112B262FF999FECF1FBAF0
:1056000092BD81BD20BD0FB6F894FA9AF99A0FBEEB
:10561000019608950E94FC2A272F0C94FD2ADC0194
:10562000CB01FC01F999FECF06C0F2BDE1BDF89AAD
:10563000319600B40D9241505040B8F70895F89457
:02564000FFCF9A
:10564200056D095E0A3B0A070AD4090101B5012862
:1056520008140A321E3F4D3620393305E604B004E1
:1056620090045704CA03E303FC0315043504010242
:08567200030405060708090006
:00000001FF
