:100000000C94EA050C942E060C942E060C942E06E5
:100010000C942E060C942E060C942E060C942E0690
:100020000C942E060C942E060C943E0D0C94100E7F
:100030000C941E1D0C942E060C942E060C942E0669
:100040000C942E060C942E060C942E060C942E0660
:100050000C942E060C94851D0C942E060C942E06E2
:100060000C942E060C942E060C942E060C942E0640
:100070000C942E060C942E060C942E060C942E0630
:100080000C942E060C942E060C942E060C942E0620
:100090000C942E060C942E060C942E060C942E0610
:1000A0000C942E060C942E060C942E06750E970EAC
:1000B000820F970E820FD90EFC0E820F510F640F24
:1000C00095129512C312C3121813541345154515F2
:1000D0006C134515631463141F1545154515331529
:1000E000F1A1F1A20000000000000000F1A329C06E
:1000F000E1E01C0B050014043876180D11281A16BF
:100100001DE20C0E10C108071BC1120F364C150959
:10011000062B133337E7170A192C2AC0E5E401012F
:10012000E101343823004A501E012DC424015251EC
:100130001F012EC525C64D4F20012FC226014B4E53
:10014000210130C32701353122010101E5010101FF
:10015000010101010100ACC70101CA0101CBAEC818
:1001600001010101B101ADBC0101C901B201ABBB8B
:1001700001010101B301A9A8AA01010101010101C5
:1001800001013F6B01003A440101406C01013B4514
:100190000101416D01013C680101426E01013D69AF
:1001A0000101436F01013E6A0101010101010101E9
:1001B0000101010101005301490101010101010196
:1001C000010101010101010101010101010101011F
:1001D00001014601010101010101010101010A00C2
:1001E0002530313662003A200025303258000A723C
:1001F0002F6320303132333435363738394142437A
:100200004445460A000A002530325800626F756E78
:100210006365213A20005B735D004B6579626F6115
:1002200072642073746172742E0A00555342206305
:100230006F6E666967757265642E0A005B575D00B4
:100240005B535D005B525D005B445D005B435D00A2
:10025000140343004D004B00200050006C0061006F
:100260006E006B0000003C0343006F0064006500FB
:100270004D006F006E006B00650079004B0065005B
:10028000790062006F00610072006400730020005A
:1002900028006200790020005400640075006200AC
:1002A000290000000403090409027400040100A0ED
:1002B00032090400000103010100092111010001BC
:1002C000223F000705810308000A09040100010319
:1002D000010200092111010001224D0007058203DE
:1002E00008000A09040200010300000009211101AD
:1002F00000012236000705830308000A09040300F1
:10030000020300000009211101000122200007055D
:1003100084032000010705040320000112011001DD
:1003200000000008EDFE60600100010200010631DE
:10033000FF0974A1010975150025FF952075088135
:10034000020976150025FF952075089102C0050168
:100350000980A101850216010026B7001A01002AB2
:10036000B700751095018100C0050C0901A1018538
:1003700003160100269C021A01002A9C02751095A2
:10038000018100C005010902A1010901A1000509BF
:1003900019012905150025019505750181029501B1
:1003A000750381010501093009311581257F950209
:1003B0007508810609381581257F95017508810624
:1003C000050C0A38021581257F950175088106C044
:1003D000C005010906A101050719E029E715002557
:1003E00001950875018102950175088101050819BB
:1003F0000129059505750191029501750391010586
:1004000007190029FF150025FF950675088100C012
:100410000A002530325820006B6579626F61726482
:100420005F7265706F72743A20000A00253032588E
:10043000006B6579626F6172645F7365745F6C6590
:10044000643A2000646F6E652E0A00626F6F676DFC
:1004500061676963207363616E3A202E2E2E20003F
:10046000290A002575002F002575005D28002564E8
:100470000020002564002000256400200025640081
:100480007C0025303258006D6F7573656B6579207F
:100490005B62746E7C782079207620685D287265B6
:1004A000702F61636C293A205B006D6B5F77686524
:1004B000656C5F74696D655F746F5F6D6178203D19
:1004C0002025640A006D6B5F776865656C5F6D6100
:1004D000785F7370656564203D2025640A006D6B4C
:1004E0005F74696D655F746F5F6D6178203D202575
:1004F000640A006D6B5F6D61785F73706565642081
:100500003D2025640A006D6B5F696E7465727661CB
:100510006C203D2025640A006D6B5F64656C617919
:10052000203D2025640A006D6B5F776865656C5F10
:1005300074696D655F746F5F6D6178203D2025641F
:100540000A006D6B5F776865656C5F6D61785F73DE
:1005500070656564203D2025640A006D6B5F7469D9
:100560006D655F746F5F6D6178203D2025640A00C2
:100570006D6B5F6D61785F7370656564203D2025EC
:10058000640A006D6B5F696E74657276616C203D04
:100590002025640A006D6B5F64656C6179203D20E5
:1005A00025640A000A00257500363A2077686565DB
:1005B0006C5F74696D655F746F5F6D61783A200080
:1005C0000A00257500353A20776865656C5F6D61B6
:1005D000785F73706565643A20000A002575003401
:1005E0003A2074696D655F746F5F6D61783A2000C1
:1005F0000A00257500333A206D61785F7370656578
:10060000643A20000A00257500323A20696E74654C
:100610007276616C286D73293A20000A00257500F6
:10062000313A2064656C6179282A31306D73293A3A
:1006300020000A092D2056616C756573202D0A0073
:100640004D3E004D25643E20003F007365742064DC
:10065000656661756C740A00433E200077686572B8
:10066000652064656C74613A20637572736F723DC6
:1006700025642C20776865656C3D25640A536565A3
:1006800020687474703A2F2F656E2E77696B6970CD
:10069000656469612E6F72672F77696B692F4D6F83
:1006A0007573655F6B6579730A000A092D204D6FBC
:1006B0007573656B6579202D0A4553432F713A098F
:1006C000717569740A313A0964656C6179282A3157
:1006D000306D73290A323A09696E74657276616CFD
:1006E000286D73290A333A096D61785F7370656507
:1006F000640A343A0974696D655F746F5F6D61787F
:100700000A353A09776865656C5F6D61785F73706B
:100710006565640A363A09776865656C5F74696D6A
:10072000655F746F5F6D61780A0A703A097072696B
:100730006E742076616C7565730A643A097365742A
:100740002064656661756C74730A75703A092B31A3
:100750000A646F776E3A092D310A706775703A092D
:100760002B31300A7067646F776E3A092D31300A89
:100770000A7370656564203D2064656C7461202A8D
:10078000206D61785F7370656564202A202872652A
:1007900070656174202F2074696D655F746F5F6D83
:1007A0006178290A003F004D3E2000433E20004C66
:1007B00025640A000A092D20436F6E736F6C652053
:1007C0002D0A4553432F713A09717569740A6D3AC0
:1007D000096D6F7573656B65790A000A092D204DE7
:1007E00061676963202D0A643A0964656275670A66
:1007F000783A096465627567206D61747269780A78
:100800006B3A096465627567206B6579626F617226
:10081000640A6D3A096465627567206D6F7573656A
:100820000A763A0976657273696F6E0A733A0973CC
:1008300074617475730A633A09636F6E736F6C65E4
:10084000206D6F64650A302D343A096C61796572E8
:10085000302D34284631302D4634290A50617573C5
:100860003A09626F6F746C6F616465720A653A0968
:10087000656570726F6D0A000A002575002E6E6B3B
:10088000726F3A20000A002575002E737761705F41
:100890006261636B736C6173685F6261636B7370D9
:1008A0006163653A20000A002575002E7377617038
:1008B0005F67726176655F6573633A20000A0025A1
:1008C00075002E6E6F5F6775693A20000A00257506
:1008D000002E737761705F72616C745F7267756907
:1008E0003A20000A002575002E737761705F6C61F5
:1008F0006C745F6C6775693A20000A002575002EDC
:10090000636170736C6F636B5F746F5F636F6E7442
:10091000726F6C3A20000A002575002E73776170A3
:100920005F636F6E74726F6C5F636170736C6F6323
:100930006B3A20000A0025303258006B65796D61F2
:10094000705F636F6E6669672E7261773A20000A86
:10095000002575002E6D6F7573653A20000A00251D
:1009600075002E6B6579626F6172643A20000A002F
:100970002575002E6D61747269783A20000A002591
:1009800075002E656E61626C653A20000A002530A4
:1009900032580064656275675F636F6E6669672EC3
:1009A0007261773A20000A002575006465666175FA
:1009B0006C745F6C617965723A20003F0074696DF8
:1009C00065725F636F756E743A202530346C580A17
:1009D000006B6579626F6172645F69646C653A206F
:1009E00025580A006B6579626F6172645F70726F7F
:1009F000746F636F6C3A2025580A00686F73745FD8
:100A00006B6579626F6172645F6C65647328293A03
:100A10002025580A000A092D20537461747573202B
:100A20002D0A004743433A20342E382E32204156B7
:100A3000522D4C4942433A20312E382E3020415617
:100A4000525F415243483A20617672350A004F5056
:100A500054494F4E533A204C55464120424F4F5433
:100A60004D41474943204D4F5553454B455920452E
:100A7000585452414B455920434F4E534F4C4520FB
:100A8000434F4D4D414E4420343039360A004255D3
:100A9000494C443A20396432316230362D646972EF
:100AA0007479202832303A31323A3532204E6F761E
:100AB0002020372032303135290A005649443A2067
:100AC00030784645454428436F64654D6F6E6B65CD
:100AD000794B6579626F6172647320286279205462
:100AE0006475622929205049443A203078363036DE
:100AF0003028434D4B20506C616E6B292056455277
:100B00003A203078303030310A00444553433A209F
:100B1000742E6D2E6B2E206B6579626F617264206E
:100B20006669726D7761726520666F7220434D4B06
:100B300020506C616E6B0A000A092D205665727395
:100B4000696F6E202D0A000A6D6F7573653A206F0C
:100B500066660A000A6D6F7573653A206F6E0A004B
:100B60000A6B6579626F6172643A206F66660A008B
:100B70000A6B6579626F6172643A206F6E0A000ACF
:100B80006D61747269783A206F66660A000A6D6159
:100B9000747269783A206F6E0A000A64656275673C
:100BA0003A206F6E0A000A64656275673A206F66C4
:100BB000660A000A0A626F6F746C6F616465722E58
:100BC0002E2E2000433E20006565636F6E666967C8
:100BD0003A0A000011241FBECFEFDAE0DEBFCDBF1E
:100BE00004B603FE24C08091C4019091C501A09178
:100BF000C601B091C7018730904BA740B04BB9F404
:100C00001092C4011092C5011092C6011092C70142
:100C100014BE84B7877F84BF88E10FB6F8948093B1
:100C20006000109260000FBEE0E0F8E3099511E06B
:100C3000A0E0B1E0E2E6F1E502C005900D92A2333A
:100C4000B107D9F711E0A2E3B1E001C01D92A43CC5
:100C5000B107E1F70E94740A0C94AF280C940000CD
:100C6000FF93EF93E0913201F0913301309709F057
:100C70000995EF91FF910895FC018591803011F065
:100C8000EFDFFBCF0895FF27E0E230E247FF0CC023
:100C9000419597FF09C0EDE260957095809590951C
:100CA000611D711D811D911D27FF02C0219530E33B
:100CB00050E2AA27660F771F881F991FAA1FA41743
:100CC00010F0A41B63955A95A9F7AA3008F0A95F04
:100CD000A05DAF93F395611571058105910541F70D
:100CE000ED3211F4EF93F395F21718F43F93F39567
:100CF000FBCF8F91B5DFFA95E1F70895E991F9916E
:100D00008591803021F0853219F0AADFF9CF08955E
:100D100020E0E89455915532C1F3503311F46894B2
:100D200055915A3348F4505390F3220F022E220F5C
:100D3000220F200D250FF4CF0EF421958991999162
:100D4000533619F3533729F1533559F1BC0188272C
:100D50009927E8945C3621F489919991689455918A
:100D6000543639F446EF7EF077FF0DC08FEF9FEFDA
:100D70000AC055374AE039F0583540E121F0523683
:100D800042E009F00895FF93EF937DDFEF91FF912B
:100D9000B7CFFF93EF93FC0181918030B9F360DF0F
:100DA000FBCFFF93EF9368DFF1CFDF93CF93CDB706
:100DB000DEB72596A3DFCF91DF910895E72FF0E00E
:100DC00096E0899FE00DF11D112483E0EE0FFF1FD7
:100DD0008A95E1F7E60FF11DE251FF4F84910895E6
:100DE000E82FF0E0EE0FFF1FE05AF040859194915C
:100DF00008958AB1887F8AB98BB1887F8BB984B115
:100E00008F7984B985B18F7985B987988F9808953E
:100E10000E94F90680B38C7C80BB81B3836381BB65
:100E200084B1807F84B985B18F6085B9EAE3F1E050
:100E3000A4E3B1E011921D9281E0E034F807D1F70C
:100E40000895DF92EF92FF920F931F93CF93DF935A
:100E5000C4E3D1E010E001E085E0D82E97E0E92E70
:100E600092E0F92E133099F028F4113051F012303D
:100E700059F004C0143071F0153079F0509A589838
:100E80000EC0519A59980BC0529A5A9808C0259A88
:100E90002D9805C0269A2E9802C0879A8F9880EACE
:100EA0008A95F1F783B181708027199B02C090E089
:100EB00001C092E0892B1A9B02C090E001C094E02F
:100EC000892B1B9B02C090E001C098E0892B789B86
:100ED00002C030E001C030E1832B799B02C020E0EA
:100EE00001C020E2822B7C9B02C090E001C090E414
:100EF000892B7D9B02C090E001C090E8892B9881EE
:100F0000981739F1888380910001882301F180913D
:100F1000A50180FF04C08CE092E00E943C06809115
:100F2000A50180FF0CC0809100011F928F93FF925A
:100F3000EF920E94D5060F900F900F900F90809126
:100F4000A50180FF04C085E092E00E943C06D0929B
:100F500000010E94F9061F5F2196163009F082CF2A
:100F6000809100018823B1F0815080930001882393
:100F700039F08FE99FE00197F1F700C000000AC047
:100F8000AAE3B1E0E4E3F1E081918D9391E0EA33EB
:100F9000F907D1F781E0DF91CF911F910F91FF9079
:100FA000EF90DF900895E82FF0E0E65CFE4F80813F
:100FB0000895CF92DF92EF92FF920F931F93CF93FA
:100FC000DF938EEE91E00E943C062AE3E22E21E0C0
:100FD000F22EC0E0D0E039EEC32E31E0D32E00EE89
:100FE00011E0DF93CF93DF92CF920E94D50686EE79
:100FF00091E00E943C06F70181917F0190E00E9400
:10100000C51C9F938F931F930F930E94D5068EED5F
:1010100091E00E943C0621968DB79EB708960FB6C8
:10102000F8949EBF0FBE8DBFC630D105D1F6DF91BB
:10103000CF911F910F91FF90EF90DF90CF90089587
:1010400081FF02C0229A01C022982A9808958091B7
:101050004B0108959FB7F894109242019FBF909161
:10106000BB01943009F058C09091E9009F70209125
:10107000EC0020FF02C020E801C020E0292B94E012
:101080009093E9009091EB0090FF43C09091EE00A7
:1010900097FF3FC090914001992321F09091E80083
:1010A00095FF37C01092400196E03091E80035FD81
:1010B00015C03091BB01343061F53091EB0035FD46
:1010C00028C0915021F481E08093400122C0EFE9D3
:1010D000FFE03197F1F700C00000E7CF8093F10007
:1010E0008091E80085FD0AC08091E80080FFFCCF78
:1010F0008091E8008E778093E80006C08FB7F8945F
:1011000091E0909342018FBF2F702093E90080E01F
:1011100008952F702093E9008FEF0895CF93DF9308
:1011200000D01F92CDB7DEB72091BB01243019F556
:1011300023E029839B838A832093E9008FEF90919A
:10114000E800815095FD06C095ED9A95F1F70000F5
:101150008111F5CF8091E80085FF0DC040E050E09F
:1011600063E070E0CE0101960E94310B8091E800AF
:101170008E778093E8000F900F900F90DF91CF91C2
:101180000895CF93DF9300D01F92CDB7DEB72091A3
:10119000BB01243021F522E029839B838A8383E0ED
:1011A0008093E9008FEF9091E800815095FD06C093
:1011B00095ED9A95F1F700008111F5CF8091E80047
:1011C00085FF0DC040E050E063E070E0CE01019685
:1011D0000E94310B8091E8008E778093E8000F9099
:1011E0000F900F90DF91CF9108952091BB01243093
:1011F000F1F422E02093E9002FEF3091E800215034
:1012000035FD06C035ED3A95F1F700002111F5CF17
:101210002091E80025FF0BC040E050E065E070E061
:101220000E94310B8091E8008E778093E80008954A
:10123000CF93DF93EC018091BB01843039F581E0DD
:101240008093E9008FEF9091E800815095FD06C0F2
:1012500095ED9A95F1F700008111F5CF8091E800A6
:1012600085FF14C040E050E068E070E0CE010E94CD
:10127000310B8091E8008E778093E80088E0FE01D2
:10128000A3E4B1E001900D928A95E1F7DF91CF914F
:1012900008958CE492E00E943C068091BA0181118D
:1012A00009C00E94C30C0E94200D8091E20084605E
:1012B0008093E200089588E492E00E943C06109238
:1012C000BA01089584E492E00C943C0680E492E034
:1012D0000C943C068CE392E00E943C060C941C1D8E
:1012E000809141018F5F8093410162E30E94442815
:1012F000911135C01092410180914201882379F10A
:101300008091BB01843049F58091E9008F70909104
:10131000EC0090FF02C090E801C090E0982B84E0C0
:101320008093E9008091EB0080FF14C08091EE0073
:1013300087FF10C08091E80085FF03C01092F10084
:10134000F9CF8091E80080FF05C08091E8008E779A
:101350008093E8009F709093E900109242010895F5
:1013600042E061EC81E00E943D0C42E061EC82E0F1
:101370000E943D0C42E061EC83E00E943D0C42E2A1
:1013800061EC84E00C943D0C8091BD01833009F444
:1013900053C030F4813071F0823009F48CC008956C
:1013A0008A3009F478C08B3009F45EC0893009F0C6
:1013B0009AC020C08091BC01813A09F094C080910C
:1013C000E800877F8093E8008091C0019091C1017F
:1013D000892B21F060E080E090E003C068E083E4C6
:1013E00091E070E00E947A0B8091E8008B77809307
:1013F000E80008958091BC01813209F074C08091A9
:10140000C0019091C101892B09F06DC08091E80065
:10141000877F8093E8008091E80082FD05C080917D
:10142000BB018111F8CF5FC08091F10080934B0127
:101430008091E8008B7753C08091BC01813A09F01C
:1014400052C08091C0019091C101892B09F04BC01D
:101450008091E800877F8093E8008091E80080FF1A
:10146000FCCF80910B0136C08091BC018132D9F54F
:101470008091C0019091C101892BA9F58091E8006C
:10148000877F8093E8000E94720C8091BE01809358
:101490000B010C9466158091BC01813221F580917D
:1014A000E800877F8093E8000E94720C8091BF0162
:1014B00080934C0108958091BC01813AA1F4809100
:1014C000E800877F8093E8008091E80080FFFCCFF0
:1014D00080914C018093F1008091E8008E77809399
:1014E000E8000C94720C089584B7877F84BF88E16C
:1014F0000FB6F89480936000109260000FBE90E0E9
:1015000080E80FB6F89480936100909361000FBE5D
:101510000E9428100E94C30C0E94200D8091E200BE
:1015200084608093E2008AE298E00E94AE1C789486
:101530008091BB018430E1F78BE292E00E943C068F
:101540000E942A1081E091E00E949A0F8AE192E0C5
:101550000E943C068091BB01853089F486E192E0CF
:101560000E943C060E94DF1C8091B901882391F300
:101570000E94071D882371F30E941B0BEBCF0E9472
:101580005810E8CF292F332723303105A9F06CF408
:101590002130310509F442C02230310509F043C041
:1015A00084E790E028EA32E042C021323105C9F0F8
:1015B0002232310519F137C099278130910541F068
:1015C0008230910541F0892B71F5E4EAF2E005C023
:1015D000E6E6F2E002C0E0E5F2E0849190E09F01EF
:1015E00026C0643000F5E62FF0E0EE0FFF1FE05E4E
:1015F000FE4F2081318189E090E019C0643098F479
:10160000E62FF0E0DF01AA0FBB1FA85EBE4F2D91B1
:101610003C91EC5EFE4F808190E009C082E190E059
:101620002CE133E004C080E090E020E030E0FA01FB
:1016300031832083089580E189BD82E189BD09B4A9
:1016400000FEFDCF8091D8008F7D8093D8008091DF
:10165000E00082608093E0008091E00081FDFCCF9B
:101660000895CF92DF92EF92FF920F931F93CF9343
:10167000DF937C018B01EA010E94930C811131C040
:10168000209731F088819981081B190BE80EF91E0B
:10169000C12CD12C0115110519F18091E80085FDAF
:1016A00014C08091E8008E778093E800209741F085
:1016B000888199818C0D9D1D9983888385E011C057
:1016C0000E94930C882331F30CC0F70181917F01B4
:1016D0008093F10001501109FFEFCF1ADF0ADACF32
:1016E00080E0DF91CF911F910F91FF90EF90DF90FD
:1016F000CF9008952091C2013091C301261737077A
:1017000048F06115710539F42091E8002E77209397
:10171000E80001C0B901FC0120E061157105B9F1D3
:101720008091BB01882309F440C0853009F43FC093
:101730008091E80083FD3DC08091E80082FF06C0F3
:101740008091E80082FF26C080E008958091E80043
:1017500080FFE3CF2091F3008091F20090E0922B84
:101760006115710551F08830910538F4219120936D
:10177000F100615071090196F3CF21E0089709F05B
:1017800020E08091E8008E778093E800C6CF211199
:10179000C7CFD6CF8091BB01882339F0853039F08F
:1017A0008091E80083FFCCCF04C082E0089583E0FD
:1017B000089581E008952091C2013091C301261758
:1017C000370748F06115710539F42091E8002E774C
:1017D0002093E80001C0B901FC0120E0611571050A
:1017E000C1F18091BB01882309F441C0853009F41F
:1017F00040C08091E80083FD3EC08091E80082FFF8
:1018000006C08091E80082FF27C080E008958091A3
:10181000E80080FFE3CF2091F3008091F20090E098
:10182000922B6115710559F08830910540F424918F
:101830002093F1003196615071090196F2CF21E0B9
:10184000089709F020E08091E8008E778093E80007
:10185000C5CF2111C6CFD5CF8091BB01882339F0E8
:10186000853039F08091E80083FFCBCF04C082E05F
:10187000089583E0089581E00895982F973058F5F2
:101880009093E900981739F07091EC002091ED00E9
:101890005091F00003C0242F762F50E021FF19C093
:1018A0003091EB003E7F3093EB003091ED003D7FB7
:1018B0003093ED003091EB0031603093EB0070938A
:1018C000EC002093ED005093F0002091EE0027FFF4
:1018D00007C09F5FD3CF8F708093E90081E00895A8
:1018E00080E008958091BC0187FD05C08091E800EB
:1018F00080FF0EC012C08091E80082FD05C080917B
:10190000BB018111F8CF08958091E8008B7708C062
:101910008091BB018111EACF08958091E8008E7714
:101920008093E80008958091E4009091E50045E6F9
:101930002091EC0020FF21C02091E80020FD21C073
:101940002091BB01222389F0253089F02091EB0002
:1019500025FD0FC02091E4003091E50028173907DC
:1019600039F3415041F0C901E3CF82E0089583E0AB
:10197000089581E0089584E008952091E80022FF11
:10198000DFCF80E008950E94310D0E94390DE0EE16
:10199000F0E0808181608083E8EDF0E080818F77E6
:1019A000808319BCA7EDB0E08C918E7F8C938081F1
:1019B0008F7E80831092BA0108950F931F93CF9367
:1019C000DF930E94310D0E94390DC8EDD0E088816F
:1019D0008F77888388818068888388818F7D8883DA
:1019E00019BC1092BB011092B7011092B90110926C
:1019F000B80100EE10E0F80180818B7F8083888140
:101A00008160888342E060E080E00E943D0CE1EE6E
:101A1000F0E080818E7F8083E2EEF0E08081816063
:101A20008083808188608083F80180818E7F8083BD
:101A3000888180618883DF91CF911F910F910895F4
:101A4000E8EDF0E080818F7E8083E7EDF0E080813B
:101A50008160808384E082BF81E08093BA010C942E
:101A6000DD0CE8EDF0E080818E7F80831092E20053
:101A700008951092DA001092E10008951F920F92DB
:101A80000FB60F9211242F933F934F935F936F9351
:101A90007F938F939F93AF93BF93EF93FF93809127
:101AA000E10082FF0BC08091E20082FF07C08091BD
:101AB000E1008B7F8093E1000E9470098091DA0041
:101AC00080FF1FC08091D80080FF1BC08091DA008A
:101AD0008E7F8093DA008091D90080FF0DC080E175
:101AE00089BD82E189BD09B400FEFDCF81E080930C
:101AF000BB010E94490905C019BC1092BB010E949C
:101B00005B098091E10080FF19C08091E20080FFB5
:101B100015C08091E2008E7F8093E2008091E20008
:101B200080618093E2008091D80080628093D80029
:101B300019BC85E08093BB010E9466098091E10099
:101B400084FF30C08091E20084FF2CC080E189BD19
:101B500082E189BD09B400FEFDCF8091D8008F7D60
:101B60008093D8008091E1008F7E8093E100809186
:101B7000E2008F7E8093E2008091E200816080939A
:101B8000E2008091B701882311F084E007C08091C2
:101B9000E30087FF02C083E001C081E08093BB01C6
:101BA0000E946A098091E10083FF29C08091E200D0
:101BB00083FF25C08091E100877F8093E10082E070
:101BC0008093BB011092B7018091E1008E7F8093DA
:101BD000E1008091E2008E7F8093E2008091E2003C
:101BE00080618093E20042E060E080E00E943D0C72
:101BF0008091F00088608093F0000E946209FF915C
:101C0000EF91BF91AF919F918F917F916F915F9174
:101C10004F913F912F910F900FBE0F901F901895ED
:101C20001F920F920FB60F9211242F933F934F9351
:101C30005F936F937F938F939F93AF93BF93CF9354
:101C4000EF93FF93C091E900CF708091EC00109268
:101C5000E9008091F000877F8093F00078940E94E3
:101C60004C0E1092E9008091F00088608093F000A3
:101C7000C093E900FF91EF91CF91BF91AF919F91F8
:101C80008F917F916F915F914F913F912F910F9025
:101C90000FBE0F901F9018951F93CF93DF93CDB772
:101CA000DEB7AA970FB6F894DEBF0FBECDBFECEB40
:101CB000F1E08091F100819321E0E43CF207C9F763
:101CC0000E94C4098091E80083FF1CC12091BC01DF
:101CD0003091BD01832F90E08A30910508F012C148
:101CE000FC01EA5AFF4F0C946428203881F0223816
:101CF00009F008C18091C0018F708093E900809144
:101D0000EB0085FB882780F91092E90006C08091DE
:101D1000B8019091B901911182609091E800977F8C
:101D20009093E8008093F1001092F100C5C0822FDB
:101D30008D7F09F0E7C0222319F0223061F0E2C064
:101D40008091BE01813009F0DDC0333009F080E0C0
:101D50008093B90128C08091BE01811124C02091D7
:101D6000C0012F7009F4CEC02093E9008091EB00F0
:101D700080FF19C08091EB00333011F4806211C0F4
:101D800080618093EB0081E090E0022E01C0880F1B
:101D90000A94EAF78093EA001092EA008091EB003F
:101DA00088608093EB001092E9008091E800877FC3
:101DB00086C02111A7C01091BE011F778091E3005A
:101DC0008078812B8093E3008091E800877F809367
:101DD000E8000E94720C8091E80080FFFCCF8091A7
:101DE000E30080688093E300112311F083E001C0D9
:101DF00082E08093BB0186C02058223008F082C068
:101E00008091BE019091BF018C3D23E0920779F54E
:101E100083E08A838AE289834FB7F894DE011396C0
:101E200020E03EE051E2E32FF0E050935700E491D0
:101E300020FF03C0E295EF703F5FEF708E2F90E0C0
:101E4000EA3010F0C79601C0C0968D939D932F5F26
:101E5000243149F74FBF8091E800877F8093E800E5
:101E60006AE270E0CE0101960E947A0B14C0AE01C6
:101E70004F5F5F4F6091C0010E94C20A009709F452
:101E800041C02091E800277F2093E800BC018981B0
:101E90009A810E94DB0B8091E8008B778093E800A9
:101EA00031C0203879F58091E800877F8093E80081
:101EB0008091B7018093F1008091E8008E77809344
:101EC000E8000E94720C1EC021111CC09091BE013E
:101ED0009230C0F48091E800877F8093E80090936F
:101EE000B7010E94720C8091B701811104C08091EA
:101EF000E30087FF02C084E001C081E08093BB0162
:101F00000E94B0098091E80083FF0AC08091E80038
:101F1000877F8093E8008091EB0080628093EB00E4
:101F2000AA960FB6F894DEBF0FBECDBFDF91CF915A
:101F30001F91089590935201809351010895E0916B
:101F40005101F0915201309721F00190F081E02D84
:101F5000099480E00895FF920F931F93CF93DF932E
:101F60008C01E0915101F0915201309799F102807A
:101F7000F381E02D09958091A50182FF2BC080FFA0
:101F800004C088E194E00E943C06E80188E0F82E55
:101F900002E114E08091A50180FF0BC088811F92AF
:101FA0008F931F930F930E94D5060F900F900F9061
:101FB0000F90FA942196F110EDCF8091A50180FF4A
:101FC00009C080E194E0DF91CF911F910F91FF90C4
:101FD0000C943C06DF91CF911F910F91FF900895D3
:101FE000E0915101F0915201309721F00480F58188
:101FF000E02D0994089520914F01309150018217EE
:10200000930771F09093500180934F01E09151013B
:10201000F0915201309721F00680F781E02D09946C
:10202000089520914D0130914E018217930771F070
:1020300090934E0180934D01E0915101F091520136
:10204000309721F00084F185E02D099408950895DA
:102050000C9427100E94471D0E9408070C940D1E27
:10206000CF93C82F8091A50182FF1EC080FF04C0BE
:1020700081E394E00E943C068091A50180FF0CC0A2
:102080001F92CF932CE234E03F932F930E94D5060A
:102090000F900F900F900F908091A50180FF04C0CA
:1020A0008AE294E00E943C068C2FCF910C94200889
:1020B000CF92DF92EF92FF920F931F93CF93DF9314
:1020C000CDB7DEB72B970FB6F894DEBF0FBECDBFEE
:1020D0000E94210734E5E32E31E0F32E00E010E00A
:1020E000C02E802F0E94D307F701D1907F01D82600
:1020F000B1F40F5F1F4F0630110591F78FEF898301
:102100008A831B820E94501D8160782F9D838C835F
:1021100049815A816B818D810E94FB1041C0909151
:10212000A50191FF04C08B870E94D9078B8520E011
:1021300030E04D2D50E0922FBA01022E02C075956D
:1021400067950A94E2F760FF25C02E83CF82EE24C4
:10215000E394F12C02C0EE0CFF1C9A95E2F790E09C
:102160008E219F2121E0892B09F420E028870E94FD
:10217000501D8160782F9A8789874E815F8168859D
:102180008A850E94FB10F801EC5AFE4F80818E2553
:10219000808306C02F5F3F4F2830310561F6A9CFFD
:1021A0000E947421109153010E949F0F1817A1F0F3
:1021B0000E949F0F809353012B960FB6F894DEBFB9
:1021C0000FBECDBFDF91CF911F910F91FF90EF9088
:1021D000DF90CF900C9430102B960FB6F894DEBFA2
:1021E0000FBECDBFDF91CF911F910F91FF90EF9068
:1021F000DF90CF900895CF93DF93CDB7DEB72B97C5
:102200000FB6F894DEBF0FBECDBF4F8358876987E6
:102210007A878B87DE01119686E0FD0111928A95FF
:10222000E9F785E0FE01379601900D928A95E1F776
:1022300049815A816B817C818D819E810E943218F7
:102240002B960FB6F894DEBF0FBECDBFDF91CF91B6
:102250000895CF93C82F882309F4C1C0823859F458
:102260000E949F0F81FDBBC089E30E94D11A0E948A
:102270004C1B89E30CC0833879F40E949F0F80FDCA
:10228000AEC083E50E94D11A0E944C1B83E50E94D8
:10229000F21ACF910C944C1B843859F40E949F0F72
:1022A00082FD9DC087E40E94D11A0E944C1B87E4E6
:1022B000EECF8CEF8C0F813A48F48C2F0E94D02502
:1022C00081118DC08C2F0E94D11AE3CF80E28C0F38
:1022D000883048F4C77081E001C0880FCA95EAF7DA
:1022E0000E94131BD6CF8BE58C0F833078F4C53A50
:1022F00029F0C63A31F482E890E005C081E890E028
:1023000002C083E890E0CF910C94FB0F88E58C0F1E
:10231000833108F064C0C83A39F1C93A41F1CA3A88
:1023200049F1CB3A51F1CC3A59F1CD3A61F1C03B88
:1023300069F1CE3A71F1CF3A79F1C13B81F1C23BFB
:1023400089F1C33B91F1C43B99F1C53BA1F1C63B77
:10235000A9F1C73BB1F1C83BB9F1C93BC1F1CA3BD7
:10236000C9F58AE292E038C082EE90E035C089EE8D
:1023700090E032C08AEE90E02FC085EB90E02CC058
:1023800086EB90E029C087EB90E026C08CEC90E0D3
:1023900023C08DEC90E020C083E891E01DC08AE866
:1023A00091E01AC082E991E017C084E991E014C07D
:1023B00081E292E011C083E292E00EC084E292E0FA
:1023C0000BC085E292E008C086E292E005C087E299
:1023D00092E002C080E090E0CF910C941110CF9178
:1023E0000895882309F44BC0823859F40E949F0F46
:1023F00081FF45C089E30E94D11A0E944C1B89E3EA
:102400000CC0833871F40E949F0F80FF38C083E5B1
:102410000E94D11A0E944C1B83E50E94F21A0C9470
:102420004C1B843859F40E949F0F82FF28C087E418
:102430000E94D11A0E944C1B87E4EFCF9CEF980FAB
:10244000913A58F390E2980F983050F4877091E0E9
:1024500001C0990F8A95EAF7892F0E94191BDFCFD7
:102460009BE5980F933020F480E090E00C94FB0FF4
:10247000885A833120F480E090E00C941110089584
:10248000882321F00E94131B0C944C1B0895882371
:1024900021F00E94191B0C944C1B0895CF92DF92DF
:1024A000EF92FF920F931F93CF93DF93CDB7DEB7D9
:1024B00028970FB6F894DEBF0FBECDBF8C0185E024
:1024C000F801DE01119601900D928A95E1F7F8016D
:1024D00040813181F280258122952F708381948102
:1024E000892B31F03F3F31F481E04F3F19F403C0B5
:1024F00081E001C080E080FDC8C249833A838981C0
:102500009A812F830E948F1A9E8388870E948E1A39
:102510000E9461194E81E42FE295EF70F0E0E05ADD
:10252000FF4F2F8168850C946428842F807F142F9F
:102530001F70882311F01295107FFF2059F011238E
:1025400009F458C2812F68870E94231B0E944C1BEC
:10255000688550C2862F0E94F111112309F495C29B
:10256000812F0E94291B28960FB6F894DEBF0FBE5C
:10257000CDBFDF91CF911F910F91FF90EF90DF9032
:10258000CF900C944C1B342F307F842F8F703032BF
:1025900011F08295807F662319F0613009F12AC01D
:1025A000FF20A1F0222381F1213071F528960FB68A
:1025B000F894DEBF0FBECDBFDF91CF911F910F9179
:1025C000FF90EF90DF90CF900C94331B222319F0F3
:1025D000213009F45AC28E830E94361B8E818EC12F
:1025E000FF2021F0263008F050C20EC0253008F040
:1025F0004CC284C1FF20C1F0222331F0F801958143
:1026000090FFF8C19F70958328960FB6F894DEBFAF
:102610000FBECDBFDF91CF911F910F91FF90EF9033
:10262000DF90CF900C944012222309F467C1F6C1C9
:10263000242F26952695237030E02115310521F0B1
:1026400021303105C9F021C2FF2021F0862F942FBF
:10265000937002C080E090E028960FB6F894DEBF39
:102660000FBECDBFDF91CF911F910F91FF90EF90E3
:10267000DF90CF900C94FB0FFF2021F0862F942F3A
:10268000937002C080E090E028960FB6F894DEBF09
:102690000FBECDBFDF91CF911F910F91FF90EF90B3
:1026A000DF90CF900C941110862FFF2019F00E941C
:1026B000FA1F02C00E94622028960FB6F894DEBF6F
:1026C0000FBECDBFDF91CF911F910F91FF90EF9083
:1026D000DF90CF900C94E720842F837009F076C0B0
:1026E000F110D3C1262F229526952770220F220F95
:1026F000862F8F70C82ED12CE12CF12C022E04C015
:10270000CC0CDD1CEE1CFF1C0A94D2F764FF10C039
:102710006FE070E080E090E004C0660F771F881FD4
:10272000991F2A95D2F7609570958095909503C072
:1027300060E070E0CB01242F269526952370422F70
:1027400050E042305105D1F04330510559F16C2928
:102750007D298E299F294130510541F128960FB6D8
:10276000F894DEBF0FBECDBFDF91CF911F910F91C7
:10277000FF90EF90DF90CF900C9486196C297D2903
:102780008E299F2928960FB6F894DEBF0FBECDBFC5
:10279000DF91CF911F910F91FF90EF90DF90CF903D
:1027A0000C94A0190E948619C701B60128960FB68D
:1027B000F894DEBF0FBECDBFDF91CF911F910F9177
:1027C000FF90EF90DF90CF900C946C19FF2019F0E0
:1027D000842F817001C08695882309F456C1262F65
:1027E000229526952770220F220F862F8F70C82ED4
:1027F000D12CE12CF12C022E04C0CC0CDD1CEE1CE3
:10280000FF1C0A94D2F764FF10C06FE070E080E014
:1028100090E004C0660F771F881F991F2A95D2F792
:10282000609570958095909503C060E070E0CB0155
:10283000242F269526952370422F50E042305105D3
:10284000D1F04330510559F16C297D298E299F29FA
:102850004130510541F128960FB6F894DEBF0FBE06
:10286000CDBFDF91CF911F910F91FF90EF90DF903F
:10287000CF900C945A1A6C297D298E299F2928966D
:102880000FB6F894DEBF0FBECDBFDF91CF911F9181
:102890000F91FF90EF90DF90CF900C94741A0E94EC
:1028A0005A1AC701B60128960FB6F894DEBF0FBEBC
:1028B000CDBFDF91CF911F910F91FF90EF90DF90EF
:1028C000CF900C94401A603F49F118F4603E48F4F0
:1028D0008CC0623F09F451C0E0F1633F09F461C06C
:1028E00084C0162F1F70842F8F71FF2021F00E944B
:1028F000D919812F89CE0E94FA19812F28960FB6F7
:10290000F894DEBF0FBECDBFDF91CF911F910F9125
:10291000FF90EF90DF90CF900C944712FF20A9F02A
:10292000253008F0B2C0842F8F7128960FB6F89426
:10293000DEBF0FBECDBFDF91CF911F910F91FF90F2
:10294000EF90DF90CF900C941F1A263008F09DC0B6
:10295000EACFFF20A1F0842F8F7128960FB6F8944C
:10296000DEBF0FBECDBFDF91CF911F910F91FF90C2
:10297000EF90DF90CF900C94D919FF2061F3842F52
:102980008F7128960FB6F894DEBF0FBECDBFDF91D2
:10299000CF911F910F91FF90EF90DF90CF900C940B
:1029A000FA19FF2091F0842F8F7128960FB6F894B2
:1029B000DEBF0FBECDBFDF91CF911F910F91FF9072
:1029C000EF90DF90CF900C94C41928960FB6F8942E
:1029D000DEBF0FBECDBFDF91CF911F910F91FF9052
:1029E000EF90DF90CF900C94BA19FF20A1F0222332
:1029F00009F4B1CF862F28960FB6F894DEBF0FBE2C
:102A0000CDBFDF91CF911F910F91FF90EF90DF909D
:102A1000CF900C942911222309F4B1CF862F289648
:102A20000FB6F894DEBF0FBECDBFDF91CF911F91DF
:102A30000F91FF90EF90DF90CF900C94F1114F70B9
:102A4000C8010E94AA1C28960FB6F894DEBF0FBEDC
:102A5000CDBFDF91CF911F910F91FF90EF90DF904D
:102A6000CF900C94DF184F70C80128960FB6F894D9
:102A7000DEBF0FBECDBFDF91CF911F910F91FF90B1
:102A8000EF90DF90CF900C94AD1C28960FB6F89481
:102A9000DEBF0FBECDBFDF91CF911F910F91FF9091
:102AA000EF90DF90CF9008950E94301B0E94051B8D
:102AB0000E944C1B0E9415220E94E72080E090E0BB
:102AC0000E94FB0F80E090E00C9411100E94201BEC
:102AD0000C9454150E948F1A292F22952F7030E0E4
:102AE0002C3031054CF42A3031056CF42250310978
:102AF0002230310590F407C02C30310551F02F30D1
:102B0000310539F00AC0803E10F0803F31F481E099
:102B1000089593FB882780F9089580E00895CF9366
:102B2000DF9300D000D01F92CDB7DEB70F900F908B
:102B30000F900F900F90DF91CF910895CF93DF9377
:102B400000D000D000D0CDB7DEB726960FB6F894EF
:102B5000DEBF0FBECDBFDF91CF9108951F93CF93FE
:102B6000DF93C0915A0116E080915B01C81799F07C
:102B7000D0E01C9FF0011D9FF00D1124E45AFE4F80
:102B80004081518162817381848195810E949E156B
:102B90002196C770E9CFDF91CF911F9108954091A1
:102BA0008C0150918D0160918E0170918F01809107
:102BB0009001909191010C949E15CF938091910179
:102BC00082958F7009F05FC080918E01882309F48F
:102BD0005AC020915A01A0915B0160918C017091C3
:102BE0008D0180918F019091900131E06F3F09F04C
:102BF00030E0B32FC6E02A1709F445C0009721F052
:102C00007F3F21F44B2F03C041E001C040E030E0A2
:102C100040FD35C0C29FF001C39FF00D1124E45A5E
:102C2000FE4F418174132BC04081641328C0428140
:102C3000411125C0438154814817590710F4415070
:102C40005109481B590B483C5105C8F4809191012A
:102C50008F7080618093910186E0829FF001839F55
:102C6000F00D1124EF59FE4F80818F7080618083B9
:102C70008CE891E00E944E12CF910C94AE152F5F1C
:102C80003F4F2770B8CFCF910895CF92DF92EF9248
:102C9000FF920F931F93CF93DF93CDB7DEB7629769
:102CA0000FB6F894DEBF0FBECDBF8C0185E0F801F2
:102CB000DE011D9601900D928A95E1F7D8014C91A5
:102CC00011965C91119712966C9112971396ED9054
:102CD000FC90149770918C01E0918D0120918F01EF
:102CE000309190012115310531F0EF3F31F481E051
:102CF0007F3F19F403C081E001C080E0B82FB170BC
:102D0000CB2E80FD6CC1D0908E01DD2009F4F5C082
:102D1000F0919101E216F30638F0C701821B930B84
:102D2000883C910548F09BC0209530952E0D3F1DA5
:102D3000283C310508F093C08F2F807F09F052C0E6
:102D4000E51314C0741312C0D62E61110FC0FF70AA
:102D5000F061F09391010E94CF158CE891E00E9400
:102D60004E1280919101F80185836CC1EF2831F0FA
:102D70005F3F31F481E04F3F19F403C081E001C0AF
:102D800080E080FD03C081E0862701C080E0F82F4D
:102D9000F170FF2E80FF1CC080915A0120915B01D1
:102DA00036E0821709F428C190E0389FF001399F7E
:102DB000F00D1124E45AFE4F7181571306C0708143
:102DC000471303C07281671303C001968770E9CF70
:102DD000D62E662309F436C18091910181608093DB
:102DE000910153C0E51308C0741306C0611104C0FB
:102DF000D8011596FC93AEC04D875E878D859E8564
:102E00006A8B0E946A156A89882329F1D62E662367
:102E100011F120919101822F82958F7090E002979D
:102E20000CF460C080918C0190918D0198878F8304
:102E30001986FB86EA862C87CE01079651C0E517D6
:102E400031F14D875E878D859E856A8B0E946A155C
:102E50006A8981112EC0C8010E944E12A4C08F2F12
:102E6000807F69F77E2DF98AE88A89890E948F150B
:102E70008CE891E00E944E12ECE8F1E086E0DF0180
:102E80001D928A95E9F70E94CF15D12CDBC07413EF
:102E9000D8CF6111D6CFD8011596FC93C8010E94F6
:102EA0004E12ECE8F1E086E0DF011D928A95E9F729
:102EB000C9C0D62E662379F220919101822F829586
:102EC0008F7090E0029774F080918C0190918D0149
:102ED0009A8389831B82FD82EC822E83CE01019628
:102EE0000E944E1286E0F801ACE8B1E001900D922C
:102EF0008A95E1F70E94DD156FC0E216F30628F00F
:102F0000C701821B930B9C0104C0209530952E0DA8
:102F10003F1D283C310508F052C0D62E662309F427
:102F20009ACFE5132CC074132AC08091910180FDC3
:102F30001DC0982F92959F70C9F0D80115968C935B
:102F400015979F3039F09F5F9295907F8F70892BF6
:102F500015968C93C8010E944E1286E0F801ACE8E9
:102F6000B1E001900D928A95E1F736C086E0F80154
:102F7000ACE8B1E001900D928A95E1F763C04D870E
:102F80005E878D859E850E946A15882379F086E08C
:102F9000F801ACE8B1E001900D928A95E1F70E944A
:102FA000DD150E94CF15DD24D3944CC08091910192
:102FB000816080939101C8010E944E1243C07E2D12
:102FC000F98AE88A89890E948F15ECE8F1E086E0A9
:102FD000DF011D928A95E9F70E94CF1533C0662361
:102FE00009F439CF4D875E878D859E850E946A15CD
:102FF000882309F430CFCBCF4D875E878D859E85A2
:103000000E948F1A292F22952F7030E0223031052F
:103010002CF49F7041F0811106C00CC024303105A2
:103020002CF49F7049F4805E883020F0C8010E9423
:103030004E12CF2CDC2C06C0D80115969C91907FA7
:1030400091F7F8CF8D2D62960FB6F894DEBF0FBEC4
:10305000CDBFDF91CF911F910F91FF90EF90DF9047
:10306000CF9008951F93CF93DF93CDB7DEB72C9702
:103070000FB6F894DEBF0FBECDBF4F835887698768
:103080007A878B879C87CE0107960E9445168823F6
:10309000C1F02F8138858A859B85892B31F03F3F90
:1030A00011F080E003C02F3FE1F781E0811147C0BC
:1030B0004F81588569857A858B859C850E949E15F0
:1030C0003EC086E0FE013796DE01119601900D921A
:1030D0008A95E1F7FF81E8854A855B8541155105B1
:1030E00031F0EF3F31F481E0FF3F19F403C081E09C
:1030F00001C080E080FD23C020915B0130E0C90168
:1031000001968770992760915A0170E0861797079A
:10311000F1F1F983EA835D834C8396E0929FD001BD
:10312000939FB00D1124A45ABE4FFE013196019019
:103130000D929A95E1F780935B010E94AE1516E01F
:1031400080915A0190915B01891779F1189FC00114
:103150001124845A9E4F0E944516882331F1E09134
:103160005A011E9FF0011124E45AFE4F4081518103
:1031700062817381848195810E949E1580915A019C
:1031800090E001968770992780935A01D9CF0E94C9
:10319000661510925B0110925A01ECE8F1E086E0AE
:1031A000DF011D928A95E9F7CACF2C960FB6F894E5
:1031B000DEBF0FBECDBFDF91CF911F910895EF927B
:1031C000FF920F931F93CF93DF939C01009709F415
:1031D00071C0F12CEE24E394E9012196F901849168
:1031E000843740F4843008F056C0813081F082305A
:1031F00021F160C0853709F449C0C0F19CE7980F00
:10320000903708F057C08F770E94F11146C08901AE
:103210000E5F1F4FFE01849190E2980F983050F49A
:103220008770FE2D01C0FF0F8A95EAF78F2F0E944D
:10323000231B15C00E94291114C089010E5F1F4F66
:10324000FE01849190E2980F983068F48770FE2D0B
:1032500001C0FF0F8A95EAF78F2F0E94291B0E9459
:103260004C1BE8011AC00E94F111FBCF2E5F3F4FAB
:10327000FE01C491CC2341F08FE99FE00197F1F763
:1032800000C00000C150F6CFE90107C0FE01F49074
:10329000E901229602C00E9429118F2D882341F056
:1032A000EFE9FFE03197F1F700C000008150F6CF61
:1032B0009E0192CFDF91CF911F910F91FF90EF90E0
:1032C00008950895609396017093970180939801F3
:1032D000909399010C9454150F931F9300919601AC
:1032E000109197012091980130919901062B172B8D
:1032F000282B392B00939601109397012093980166
:10330000309399011F910F910C9454150F931F93B3
:1033100000919601109197012091980130919901A7
:10332000062317232823392300939601109397012E
:1033300020939801309399011F910F910C9454158B
:103340000F931F930091960110919701209198017E
:1033500030919901062717272827392700939601CE
:103360001093970120939801309399011F910F9129
:103370000C945415109292011092930110929401A2
:10338000109295010C94541541E050E060E070E01B
:1033900004C0440F551F661F771F8A95D2F74093CC
:1033A00092015093930160939401709395010C9452
:1033B000541541E050E060E070E004C0440F551F38
:1033C000661F771F8A95D2F78091920190919301A1
:1033D000A0919401B0919501842B952BA62BB72B2E
:1033E0008093920190939301A0939401B0939501DF
:1033F0000C94541541E050E060E070E004C0440FCC
:10340000551F661F771F8A95D2F740955095609596
:1034100070958091920190919301A0919401B09147
:10342000950184239523A623B7238093920190933B
:103430009301A0939401B09395010C94541541E02D
:1034400050E060E070E004C0440F551F661F771F16
:103450008A95D2F78091920190919301A091940165
:10346000B091950184279527A627B72780939201CD
:1034700090939301A0939401B09395010C945415EB
:103480000F931F9300919201109193012091940149
:1034900030919501062B172B282B392B0093920185
:1034A0001093930120939401309395011F910F91F4
:1034B0000C9454150F931F93009192011091930156
:1034C0002091940130919501062317232823392355
:1034D00000939201109393012093940130939501EE
:1034E0001F910F910C9454150F931F93009192010B
:1034F000109193012091940130919501062717278F
:103500002827392700939201109393012093940167
:10351000309395011F910F910C9454150895CF92FB
:10352000DF92EF92FF920F931F93CF93DF93EC0103
:10353000C0909601D0909701E0909801F090990189
:103540008091920190919301A0919401B091950185
:10355000C82AD92AEA2AFB2A0FE110E0B701A601FE
:10356000002E04C076956795579547950A94D2F733
:1035700040FF07C0BE01802F0E94371C813091059B
:1035800039F40150110950F7BE0180E00E94371C48
:10359000DF91CF911F910F91FF90EF90DF90CF902F
:1035A000089540910C0150910D0120E030E09FEF13
:1035B000FA01E20FF31F6281681799F09F3F19F437
:1035C000611101C0922F2F5F3F4F2630310581F7E7
:1035D0009F3F39F0FA01E90FF11D97FDFA958283BB
:1035E0000895089540910C0150910D0120E030E0C4
:1035F000FA01E20FF31F9281981301C012822F5F2C
:103600003F4F26303105A1F7089581E090E0E09129
:103610000C01F0910D01E80FF91F1082019688301E
:103620009105A9F708959091A401982B9093A40176
:10363000089580959091A40198239093A4010895F2
:103640001092A40108959091A301982B9093A30147
:10365000089580959091A30198239093A3010895D4
:103660001092A301089580939A01089510929A01EF
:10367000089540910C0150910D0120E030E080E070
:10368000FA01E20FF31F918191118F5F2F5F3F4F7E
:1036900027303105A9F70895E0910C01F0910D0153
:1036A0008091A4018083E0910C01F0910D01808153
:1036B0009091A301892B808390919A01992361F0C5
:1036C000E0910C01F0910D018081892B80830E9493
:1036D000391B811110929A0180910C0190910D017A
:1036E0000C94AB0FCF93DF938D3B60F4883A90F549
:1036F000853A38F5843010F5813009F06DC0C1E0AD
:10370000D0E0B1C0883E98F4803EC0F48F3B09F011
:1037100063C00E9466152FEF80E792E02150804041
:103720009040E1F700C000000E94AA1D9CC0803FAD
:1037300008F452C0C82FD0E0D06595C0C82FD0E0A3
:1037400092C0853A09F44BC0863A09F04BC0C2E8F2
:10375000D0E489C0883A09F448C0893A09F448C0DD
:103760008A3A09F448C08B3A09F448C08C3A09F403
:1037700048C08B3B09F448C08C3B09F448C08D3AE3
:1037800009F448C0803B09F448C08E3A09F448C0A7
:103790008F3A09F448C0813B09F448C0823B09F4E0
:1037A00048C0833B09F448C0843B09F448C0853BCA
:1037B00009F448C0863B09F448C0873B09F448C077
:1037C000883B09F448C0893B09F448C08A3B09F0AA
:1037D00048C0CAE2D6E447C0C0E0D0E044C0C1E877
:1037E000D0E441C0C3E8D0E43EC0C2EED4E43BC064
:1037F000C9EED4E438C0CAEED4E435C0C5EBD4E495
:1038000032C0C6EBD4E42FC0C3EBD4E42CC0C4EB6D
:10381000D4E429C0C7EBD4E426C0CCECD4E423C064
:10382000CDECD4E420C0C3E8D5E41DC0CAE8D5E49B
:103830001AC0C2E9D5E417C0C4E9D5E414C0C1E296
:10384000D6E411C0C3E2D6E40EC0C4E2D6E40BC095
:10385000C5E2D6E408C0C6E2D6E405C0C7E2D6E4B5
:1038600002C0C0E0D4E4CE01DF91CF9108950E9460
:10387000DE06803EA8F4803C00F5813309F45CC08C
:1038800038F4893209F452C08A3209F45BC05FC04F
:103890008933B1F08238A1F0853309F441C057C0B3
:1038A000833E41F128F4803E99F0823EB9F04FC04A
:1038B000863E31F1873E71F14AC00E94F0060895BC
:1038C0009091B60190FD02C091FF41C080EE3FC0D3
:1038D0008091B60180FFFACF89E339C08091B601AB
:1038E00082FF0CC08091B60184FF02C080E02FC02F
:1038F00083EE2DC08091B60182FFF4CF82EE27C007
:103900008091B60183FF0AC08091B60184FDEECF9D
:1039100087EE1DC08091B60183FFF6CF86EE17C0FB
:103920008091B60185FF06C089E211C08091B60181
:1039300085FFFACF85E30BC08091B60186FF06C0F4
:103940008AE205C08091B60186FFFACF81E30E942A
:10395000721B089580E090E00895089590933301DC
:103960008093320108958295982F9C7C9695969528
:10397000837344E0849F90011124922B892F8A7ACB
:1039800086959575990F892B08951F93CF93DF9393
:103990001F92CDB7DEB799830E94B31C182F99816F
:1039A000892F0E94B31C212F30E0322F2227A9013A
:1039B000482BCA010F90DF91CF911F9108958091FC
:1039C000BB01843009F11092A60120E488E190E067
:1039D0000FB6F894A895809360000FBE2093600006
:1039E00083B7817F846083BF83B7816083BF78940E
:1039F000889583B78E7F83BF88E10FB6F894809354
:103A00006000109260000FBE089508950895CF934E
:103A10000E94051D0E9421070E94061DC0E08C2FF8
:103A20000E94D307811105C0CF5FC630C1F780E087
:103A300001C081E0CF9108950C9466151F920F92FA
:103A40000FB60F9211248F939F93AF93BF938091E2
:103A5000A601811113C08091A7019091A801A091A6
:103A6000A901B091AA014196A11DB11D8093A701A2
:103A70009093A801A093A901B093AA01BF91AF911F
:103A80009F918F910F900FBE0F901F90189582E01D
:103A900084BD93E095BD9AEF97BD80936E00089525
:103AA0002FB7F8948091A7019091A801A091A90146
:103AB000B091AA012FBF0895CF92DF92EF92FF92AB
:103AC0000F931F932FB7F8944091A7015091A8012D
:103AD0006091A9017091AA012FBF6A017B01EE24B8
:103AE000FF248C0120E030E0C016D106E206F30688
:103AF00010F441505109481B590BCA011F910F91F5
:103B0000FF90EF90DF90CF9008951F920F920FB625
:103B10000F9211248F939F93AF93BF938091A7012E
:103B20009091A801A091A901B091AA010196A11DAF
:103B3000B11D8093A7019093A801A093A901B09310
:103B4000AA01BF91AF919F918F910F900FBE0F90DF
:103B50001F9018950E94C30CF8942FEF87EA91E606
:103B6000215080409040E1F700C0000087E090EBDA
:103B7000DC018093C4019093C501A093C601B0936A
:103B8000C7012CE088E190E00FB6F894A8958093E7
:103B900060000FBE20936000FFCFEF92FF920F9363
:103BA0001F93CF93DF93E82EF12C8F2D0E94D30724
:103BB000C0E0D0E0082F10E098010C2E02C035952F
:103BC00027950A94E2F720FD05C02196C830D1055B
:103BD00099F709C06C2F7F2D80E00E94DE06E81265
:103BE000F4CF81E005C0F39486E0F812DECF80E0E8
:103BF000DF91CF911F910F91FF90EF900895CF9398
:103C0000C82F8CE20E94CD1D882321F08C2FCF91EC
:103C10000C94CD1D80E0CF910895CF930E94531F47
:103C2000811102C00E94391F8BE494E00E943C067F
:103C3000C5E6C15049F00E9421078FE39CE9019736
:103C4000F1F700C00000F5CF84E494E00E943C0648
:103C500089E20E94FF1D81110AC18AE20E94FF1DB4
:103C600081110E94391F85E00E94FF1D81110E9471
:103C7000AA1D0E945E1F8093A50187E00E94FF1D80
:103C8000882399F18BE10E94FF1D882351F09091C8
:103C9000A50191FB882780F921E0822780FB91F91B
:103CA00022C08EE00E94FF1D882351F09091A50153
:103CB00092FB882780F921E0822780FB92F913C0CC
:103CC00080E10E94FF1D9091A501882341F093FBA4
:103CD000882780F921E0822780FB93F904C0892F8F
:103CE000809580FB90F99093A5018091A5010E9499
:103CF000621F0E94701F8093B60180EE0E94FF1D1C
:103D0000882341F08091B601982F909590FB80F91F
:103D10008093B60189E30E94FF1D882359F090919A
:103D2000B60191FB882780F921E0822780FB91F979
:103D30009093B60182EE0E94FF1D882359F0909166
:103D4000B60192FB882780F921E0822780FB92F957
:103D50009093B60186EE0E94FF1D882359F0909142
:103D6000B60193FB882780F921E0822780FB93F935
:103D70009093B60183EE0E94FF1D882359F0909125
:103D8000B60194FB882780F921E0822780FB94F913
:103D90009093B60185E30E94FF1D882359F090910E
:103DA000B60195FB882780F921E0822780FB95F9F1
:103DB0009093B60181E30E94FF1D882359F09091F2
:103DC000B60196FB882780F921E0822780FB96F9CF
:103DD0009093B60181E10E94FF1D882359F09091D4
:103DE000B60197FB882780F921E0822780FB97F9AD
:103DF0009093B6018091B6010E94741F87E20E94E1
:103E0000FF1DC82F8EE10E94FF1D8111C2608FE14E
:103E10000E94FF1D8111C46080E20E94FF1D81117C
:103E2000C86081E20E94FF1D8111C06182E20E9490
:103E3000FF1D8111C06283E20E94FF1D8111C064D9
:103E400084E20E94FF1D882311F0C06802C0CC23C9
:103E500029F08C2F0E946B1F6C2F03C00E94671FDC
:103E6000682F70E080E090E0CF910C946219CF91C0
:103E700008956DEE7EEF80E090E00E949A2860E069
:103E800082E090E00E948C2860E083E090E00E9455
:103E90008C2860E084E090E00E948C2860E085E05F
:103EA00090E00C948C2880E090E00E94862821E02D
:103EB0008D3E9E4F09F020E0822F089582E090E031
:103EC0000C947E28682F82E090E00C948C2883E08C
:103ED00090E00C947E28682F83E090E00C948C286E
:103EE00084E090E00C947E28682F84E090E00C94AD
:103EF0008C288091AD0180FF0BC06091110185E09D
:103F0000689FB001112475956795759567952AC0CE
:103F100081FF09C06091110185E0689FB001112403
:103F2000759567951FC082FF07C06091110185E0FC
:103F3000689FB001112416C04091AE014423C9F01E
:103F400060911001461788F72091110185E0289FA4
:103F500090011124429FC001439F900D112470E0F5
:103F60000E9450286038710540F46115710539F0E0
:103F700002C065E070E0862F08958FE7089581E024
:103F800008958091AD0180FF08C060910F0170E03D
:103F9000759567957595679521C081FF06C06091FD
:103FA0000F0170E07595679519C082FF04C060919C
:103FB0000F0170E010C08091AE018823C1F06091C4
:103FC0000E018617A0F790910F01989FC001112450
:103FD00070E00E9450286038710528F46115710561
:103FE00021F0862F08958FE7089581E0089561E01C
:103FF00070E0F4CF803F21F40E94791F819504C0C6
:10400000813F29F40E94791F8093B1010895823F76
:1040100021F40E94791F819504C0833F29F40E94F6
:10402000791F8093B0010895893F19F40E94C11F40
:1040300005C08A3F31F40E94C11F81958093B2016F
:1040400008958B3F21F40E94C11F819504C08C3FCD
:1040500029F40E94C11F8093B3010895843F21F485
:104060008091AF01816017C0853F21F48091AF013D
:10407000826011C0863F21F48091AF0184600BC043
:10408000873F21F48091AF01886005C0883F31F4FB
:104090008091AF0180618093AF0108958D3F21F43D
:1040A0008091AD0181600BC08E3F21F48091AD0104
:1040B000826005C08F3F29F48091AD0184608093B8
:1040C000AD010895803F39F48091B10187FF6CC044
:1040D0001092B10169C0813F29F48091B101181695
:1040E000BCF362C09091B001823F29F497FF5CC09D
:1040F0001092B00159C0833F19F41916CCF354C083
:10410000893F41F48091B20118160CF04DC0109215
:10411000B2014AC08A3F29F48091B20187FF44C0AE
:10412000F6CF8B3F39F48091B30187FF3DC01092E9
:10413000B3013AC08C3F29F48091B3011816BCF347
:1041400033C0843F21F48091AF018E7F17C0853F3B
:1041500021F48091AF018D7F11C0863F21F48091C1
:10416000AF018B7F0BC0873F21F48091AF01877F28
:1041700005C0883F31F48091AF018F7E8093AF01FD
:1041800013C08D3F21F48091AD018E7F0BC08E3F17
:1041900021F48091AD018D7F05C08F3F29F480917E
:1041A000AD018B7F8093AD018091B00181110EC074
:1041B0008091B10181110AC08091B201811106C0C4
:1041C0008091B301811102C01092AE0108958091D7
:1041D000A50183FF7EC087E894E00E943C068091A1
:1041E000AF011F928F9382E894E09F938F930E9478
:1041F000D50680E894E00E943C062091B001822F11
:10420000992787FD90959F932F938DE794E09F9337
:104210008F930E94D5068BE794E00E943C06209184
:10422000B101822F992787FD90959F932F9388E75F
:1042300094E09F938F930E94D50686E794E00E94B6
:104240003C062091B201822F992787FD90959F937C
:104250002F9383E794E09F938F930E94D50681E785
:1042600094E00E943C062091B301822F992787FD9C
:1042700090959F932F938EE694E09F938F930E9447
:10428000D5068BE694E00E943C068091AE011F9219
:104290008F9388E694E09F938F930E94D50686E6DD
:1042A00094E00E943C068091AD011F928F9383E6BB
:1042B00094E09F938F930E94D50680E694E00E943D
:1042C0003C068DB79EB74C960FB6F8949EBF0FBEB6
:1042D0008DBF8FEA91E00E94F00F0E94501D9093D5
:1042E000AC018093AB0108951F93CF93DF9380912E
:1042F000AB019091AC010E945C1D4091AE01442342
:1043000021F02091120130E006C0209113015AE003
:10431000259F900111248217930708F482C0809191
:10432000B0011091B101D091B201C091B3018111DE
:1043300007C0111105C0D11103C0CC2309F471C00D
:104340004F3F19F04F5F4093AE01181624F40E94BE
:10435000791F8093B0018091B00187FF05C00E9452
:10436000791F81958093B001111624F40E94791F62
:104370008093B1018091B10187FF05C00E94791F30
:1043800081958093B1016091B001662339F110915C
:10439000B101112319F1772767FD7095872F972FAA
:1043A0000E94552723E333E343E35FE30E94B927E9
:1043B0000E9422276093B001612F772767FD7095D7
:1043C000872F972F0E94552723E333E343E35FE3CF
:1043D0000E94B9270E9422276093B1011D1624F480
:1043E0000E94C11F8093B2018091B20187FF05C076
:1043F0000E94C11F81958093B2011C1624F40E9473
:10440000C11F8093B3018091B30187FF05C00E9453
:10441000C11F81958093B301DF91CF911F910C94BF
:10442000E720DF91CF911F910895EFEAF1E085E059
:10443000DF011D928A95E9F71092AE011092AD014D
:1044400008958AEA96E00E943C061F9281E08F93CD
:104450001F9285E08F938CE596E09F938F930E9447
:10446000D5060F900F900F900F900F900F9008951A
:104470008330E9F128F4813061F0823009F1089548
:10448000853009F462C008F449C0863009F474C06C
:10449000089520911301862F90E0820F911D8F3F88
:1044A000910520F4620F6093130103C08FEF809396
:1044B0001301809113011F928F9385E995E072C0DB
:1044C00020911201862F90E0820F911D8F3F910560
:1044D00020F4620F6093120103C08FEF80931201EA
:1044E000809112011F928F9383E895E05BC0209129
:1044F0001101862F90E0820F911D8F3F910520F4CE
:10450000620F6093110103C08FEF809311018091BE
:1045100011011F928F9380E795E044C02091100114
:10452000862F90E0820F911D8F3F910520F4620F3E
:104530006093100103C08FEF8093100180911001F0
:104540001F928F938BE595E02DC020910F01862F50
:1045500090E0820F911D8F3F910520F4620F6093D0
:104560000F0103C08FEF80930F0180910F011F9205
:104570008F9382E495E016C020910E01862F90E083
:10458000820F911D8F3F910520F4620F60930E0101
:1045900003C08FEF80930E0180910E011F928F93C5
:1045A00087E295E09F938F930E94D5060F900F901E
:1045B0000F900F900895833081F128F4813059F0E5
:1045C0008230D1F00895853009F449C0B8F18630C1
:1045D00009F456C0089580911301681720F4861BD2
:1045E0008093130102C010921301809113011F9256
:1045F0008F9388E195E054C080911201681720F4F0
:10460000861B8093120102C0109212018091120148
:104610001F928F9386E095E043C080911101681747
:1046200020F4861B8093110102C010921101809129
:1046300011011F928F9383EF94E032C0809110019B
:10464000681720F4861B8093100102C0109210019D
:10465000809110011F928F938EED94E021C0809184
:104660000F01681720F4861B80930F0102C010927F
:104670000F0180910F011F928F9385EC94E010C081
:1046800080910E01681720F4861B80930E0102C0F2
:1046900010920E0180910E011F928F938AEA94E08E
:1046A0009F938F930E94D5060F900F900F900F90BD
:1046B0000895CF93C82F1F928F932FEA37E03F932F
:1046C0002F930E94D50661E070E080E090E004C086
:1046D000660F771F881F991FCA95D2F70E9462192B
:1046E0000F900F900F900F90CF910C946615CF9371
:1046F0008732B0F58E3108F043C28E3009F4BDC167
:1047000000F5873009F48DC1A8F4863009F03CC269
:104710008091A501817F8E7F8093A50184EB97E036
:104720000E943C0684EC9BE00E943C0681E0809362
:10473000B50175C1883009F43FC08B3009F46BC1F5
:1047400023C2863109F4DDC120F4803109F4A8C107
:104750001BC2893109F4BEC18B3109F47BC114C27B
:10476000883309F458C150F4893209F407C28533FB
:1047700009F404C2873209F007C200C2833409F485
:10478000FDC128F48A3308F4FFC18953FAC1883483
:1047900009F0FAC10E94661583EB9BE00E943C067B
:1047A0009FEF23ED80E3915020408040E1F700C06F
:1047B00000000E94AA1D33C188EC9BE00E943C06C9
:1047C0008BEA99E00E943C060E94671F1F928F931C
:1047D00088EA99E09F938F930E94D50686EA99E034
:1047E0000E943C060E945E1FC82F83E999E00E9448
:1047F0003C061F92CF932EE839E03F932F930E94FF
:10480000D5068CE899E00E943C0682E899E00E9477
:104810003C068C2F81701F928F932FE739E03F93D6
:104820002F930E94D5068DE799E00E943C0683E70E
:1048300099E00E943C06C1FB882780F91F928F9364
:1048400020E739E03F932F930E94D5068EE699E04A
:104850000E943C0682E699E00E943C06C2FB882743
:1048600080F91F928F932FE539E03F932F930E9499
:10487000D5068DE599E00E943C0684E599E00E940A
:104880003C06C3FBCC27C0F91F92CF9381E599E08A
:104890009F938F930E94D5068FE499E00E943C0677
:1048A0000E94701FC82F8BE399E00E943C061F9264
:1048B000CF9326E339E03F932F930E94D50684E3FC
:1048C00099E00E943C068BE199E00E943C068C2F07
:1048D00081701F928F9328E139E03F932F930E94BC
:1048E000D5068DB79EB780960FB6F8949EBF0FBEC3
:1048F0008DBF86E199E00E943C068FEF98E00E9410
:104900003C06C1FB882780F91F928F932CEF38E07B
:104910003F932F930E94D5068AEF98E00E943C06B1
:1049200088EE98E00E943C06C2FB882780F91F921F
:104930008F9325EE38E03F932F930E94D50683EEA8
:1049400098E00E943C0681ED98E00E943C06C3FB83
:10495000882780F91F928F932EEC38E03F932F9396
:104960000E94D5068CEC98E00E943C0682EC98E010
:104970000E943C06C4FB882780F91F928F932FEB7F
:1049800038E03F932F930E94D5068DEB98E00E946C
:104990003C068BEA98E00E943C06C5FB882780F91C
:1049A0001F928F9328EA38E03F932F930E94D506F9
:1049B00086EA98E00E943C068AE898E00E943C065D
:1049C000C6FB882780F91F928F9327E838E03F9332
:1049D0002F930E94D50685E898E00E943C068DE75B
:1049E00098E00E943C06C7FBCC27C0F91F92CF93EA
:1049F0008AE798E09F938F930E94D50688E798E016
:104A00000E943C068DB79EB74C960FB6F8949EBF99
:104A10000FBE8DBF04C08BED97E00E943C06C1E045
:104A2000B8C08091A501C82FC17080FF09C086EA77
:104A30009BE00E943C068091A501817F8E7F44C04F
:104A40008AE99BE00E943C068091A50181608093E9
:104A5000A501E5CF8091A50181FBCC27C0F991E0AC
:104A6000C927C0FB81F98093A501CC2319F08DE8FB
:104A70009BE025C08FE79BE0D0CF8091A50182FB12
:104A8000CC27C0F991E0C927C0FB82F98093A5012A
:104A9000CC2319F080E79BE012C080E69BE0BDCFFD
:104AA0008091A50183FBCC27C0F991E0C927C0FB09
:104AB00083F98093A501CC2351F084E59BE00E940B
:104AC0003C068091A50181608093A50162C087E4C6
:104AD0009BE0A3CF88E39BE00E943C068AE09BE03A
:104AE0000E943C068BEB9AE00E943C068EE89AE01E
:104AF0000E943C068EE49AE00E943C0683E29AE023
:104B00008CCF85E19AE00E943C060E949F0F1F9285
:104B10008F938BEF99E09F938F930E94D50680919E
:104B20000B011F928F9384EE99E09F938F930E94C5
:104B3000D50680914C011F928F9381ED99E09F9350
:104B40008F930E94D5068091A7019091A801A09112
:104B5000A901B091AA01BF93AF939F938F938DEB5F
:104B600099E09F938F930E94D5068DB79EB742968A
:104B70000FB6F8949EBF0FBE8DBF51CF80E001C02D
:104B80008D510E9459234BCF8BEB99E00E943C063C
:104B9000C0E08C2FCF91089580E0089580E00895C3
:104BA000CF93C82F8091B501813071F020F0823011
:104BB00009F448C03FC1A0910C01B0910D018C9146
:104BC000823209F039C107C0A0910C01B0910D01EA
:104BD0008C91823249F48C2F0E94CC2581112FC0F8
:104BE0008C2F0E9477232CC08C2F0E94CE25811100
:104BF00026C0C431E1F070F4CB3081F0C031D1F483
:104C00000E94212287EA97E00E943C0682E080937E
:104C1000B50115C0C93259F0C83361F484EB97E08F
:104C20000E943C068BEA97E00E943C0608C0109266
:104C3000B50104C185EA97E00E943C06FFC081E00F
:104C40008170FEC0C43228F5CE3108F0C1C0CB302F
:104C5000A1F1D0F4C73009F0D3C08EE180931301E5
:104C600082E3809312018AE08093110184E18093B2
:104C7000100188E080930F0188E280930E018BE49D
:104C800096E00E943C06BFC0C33149F1C431C1F077
:104C9000B7C0CB3409F4A9C028F4C93289F0C833AD
:104CA00061F0AEC0C13509F49EC0C23509F499C0A7
:104CB000CE3409F0A5C06AE09EC00E942122A3C0A4
:104CC0008091B401882319F01092B4019CC088E54A
:104CD00096E00E943C0681E08093B501B1C082E37A
:104CE00096E00E943C0680E296E00E943C0680919D
:104CF00013011F928F938DE196E09F938F930E94F3
:104D0000D5068BE196E00E943C0689E096E00E9481
:104D10003C06809112011F928F9386E096E09F934C
:104D20008F930E94D50684E096E00E943C0685EFB2
:104D300095E00E943C06809111011F928F9382EFB3
:104D400095E09F938F930E94D50680EF95E00E9497
:104D50003C068FED95E00E943C06809110011F9269
:104D60008F938CED95E09F938F930E94D5068AEDEB
:104D700095E00E943C0685EC95E00E943C068091FF
:104D80000F011F928F9382EC95E09F938F930E9467
:104D9000D50680EC95E00E943C0689EA95E00E94E9
:104DA0003C0680910E011F928F9386EA95E09F93B7
:104DB0008F930E94D50684EA95E00E943C068DB749
:104DC0009EB748960FB6F8949EBF0FBE8DBF1BC00E
:104DD000CE51EC2FF0E0E85DFE4F80818093B4016E
:104DE00012C061E003C061E006C06AE08091B401D6
:104DF0000E94382208C08091B4010E94DB2203C0C7
:104E000089E496E013C08091B401882369F01F9271
:104E10008F9383E496E09F938F930E94D5060F9023
:104E20000F900F900F9004C080E496E00E943C0623
:104E300081E006C01092B50180E002C080E000CFA2
:104E4000CF91089504D06894B1118DC0089570D0A9
:104E500088F09F5790F0B92F9927B751A0F0D1F063
:104E6000660F771F881F991F1AF0BA95C9F712C0ED
:104E7000B13081F077D0B1E0089574C0672F782FFA
:104E80008827B85F39F0B93FCCF386957795679559
:104E9000B395D9F73EF490958095709561957F4FC5
:104EA0008F4F9F4F0895E89409C097FB3EF490956B
:104EB0008095709561957F4F8F4F9F4F9923A9F0F3
:104EC000F92F96E9BB279395F69587957795679582
:104ED000B795F111F8CFFAF4BB0F11F460FF1BC0C6
:104EE0006F5F7F4F8F4F9F4F16C0882311F096E959
:104EF00011C0772321F09EE8872F762F05C0662307
:104F000071F096E8862F70E060E02AF09A95660FBF
:104F1000771F881FDAF7880F9695879597F9089578
:104F200057FD9058440F551F59F05F3F71F047955A
:104F3000880F97FB991F61F09F3F79F0879508953F
:104F4000121613061406551FF2CF4695F1DF08C05E
:104F5000161617061806991FF1CF8695710561057B
:104F600008940895E894BB2766277727CB0197F923
:104F700008950BD078C069D028F06ED018F0952332
:104F800009F05AC05FC01124EECFCADFA0F3959F8D
:104F9000D1F3950F50E0551F629FF001729FBB2720
:104FA000F00DB11D639FAA27F00DB11DAA1F649FCC
:104FB0006627B00DA11D661F829F2227B00DA11D7F
:104FC000621F739FB00DA11D621F839FA00D611D05
:104FD000221F749F3327A00D611D231F849F600D26
:104FE000211D822F762F6A2F11249F5750408AF05F
:104FF000E1F088234AF0EE0FFF1FBB1F661F771FEB
:10500000881F91505040A9F79E3F510570F014C081
:10501000AACF5F3FECF3983EDCF3869577956795D2
:10502000B795F795E7959F5FC1F7FE2B880F911D08
:105030009695879597F9089597F99F6780E870E0AE
:1050400060E008959FEF80EC089500240A941616FE
:10505000170618060906089500240A941216130666
:10506000140605060895092E0394000C11F48823F4
:1050700052F0BB0F40F4BF2B11F460FF04C06F5F10
:105080007F4F8F4F9F4F0895991B79E004C0991F60
:10509000961708F0961B881F7A95C9F78095089592
:1050A00097FB072E16F4009407D077FD09D00E94D5
:1050B0006A2807FC05D03EF4909581959F4F08958E
:1050C000709561957F4F0895EE0FFF1F0590F49145
:1050D000E02D0994AA1BBB1B51E107C0AA1FBB1FEF
:1050E000A617B70710F0A61BB70B881F991F5A9574
:1050F000A9F780959095BC01CD010895F999FECF4F
:1051000092BD81BDF89A992780B50895A8E1B0E0D5
:1051100042E050E00C94A128262FF999FECF1FBA47
:1051200092BD81BD20BD0FB6F894FA9AF99A0FBED0
:10513000019608950E948C28272F0C948D28DC015D
:10514000CB01FC01F999FECF06C0F2BDE1BDF89A92
:10515000319600B40D9241505040B8F70895F8943C
:02516000FFCF7F
:105162000527081809F508C1088E08019B012808BF
:10517200140A321E3F4D3620D10384034E032E0300
:10518200BA02D302EC020503010203040506070872
:02519200090012
:00000001FF
