:100000000C9436060C947A060C947A060C947A06B4
:100010000C947A060C947A060C947A060C947A0660
:100020000C947A060C947A060C94D70D0C94A90EB5
:100030000C94B71D0C947A060C947A060C947A06EC
:100040000C947A060C947A060C947A060C947A0630
:100050000C947A060C941E1E0C947A060C947A0664
:100060000C947A060C947A060C947A060C947A0610
:100070000C947A060C947A060C947A060C947A0600
:100080000C947A060C947A060C947A060C947A06F0
:100090000C947A060C947A060C947A060C947A06E0
:1000A0000C947A060C947A060C947A060E0F300F94
:1000B0001B10300F1B10720F950F1B10EA0FFD0F56
:1000C0002E132E135C135C13B113ED13DE15DE1526
:1000D0000514DE15FC14FC14B815DE15DE15CC1560
:1000E00001E201620262015A025A015D025D015A97
:1000F000025A02E201E201620262015A025A015A04
:10010000025A0162026202E20001E201620262013D
:100110005A025A015C025C015E025E02E201E201E7
:10012000620262015A025A01590259015C025C02E0
:10013000E20001E201620262015A025A015A025AC5
:10014000015B025B02E20001E2016202620159020C
:100150005901610261015E025E02E201E201620296
:1001600062015A025A015A025A0160026002E20018
:10017000F1A1F1A22F02300209020002F1A300C096
:1001800001C002C003C029C0E1E01C0B050014043B
:100190003876180D11281A161DE20C0E10C108072A
:1001A0001BC1120F364C1509062B133337E7170AFC
:1001B000192C2AC0E5E40101E101343823004A503A
:1001C0001E012DC4240152511F012EC525C64D4FBD
:1001D00020012FC226014B4E210130C327013531AA
:1001E00022010101E5010101010101010100ACC78A
:1001F0000101CA0101CBAEC801010101B101ADBCD1
:100200000101C901B201ABBB01010101B301A9A800
:10021000AA0101010101010101013F6B01003A4402
:100220000101406C01013B450101416D01013C6848
:100230000101426E01013D690101436F01013E6A06
:10024000010101010101010101010101010053014D
:100250004901010101010101010101010101010146
:100260000101010101010101010146010101010139
:100270000101010101010A002530313662003A20F6
:100280000025303258000A722F6320303132333467
:1002900035363738394142434445460A000A00257D
:1002A00030325800626F756E6365213A20005B73CF
:1002B0005D004B6579626F61726420737461727462
:1002C0002E0A0055534220636F6E6669677572652A
:1002D000642E0A005B575D005B535D005B525D005E
:1002E0005B445D005B435D00140343004D004B0025
:1002F000200050006C0061006E006B0000003C03A9
:1003000043006F00640065004D006F006E006B00DD
:10031000650079004B006500790062006F006100A4
:100320007200640073002000280062007900200041
:1003300054006400750062002900000004030904F1
:1003400009027400040100A0320904000001030145
:100350000100092111010001223F00070581030866
:10036000000A090401000103010200092111010032
:1003700001224D000705820308000A09040200015A
:100380000300000009211101000122360007058346
:100390000308000A090403000203000000092111F8
:1003A0000100012220000705840320000107050445
:1003B000032000011201100100000008EDFE606042
:1003C0000100010200010631FF0974A10109751540
:1003D0000025FF9520750881020976150025FF95F7
:1003E0002075089102C005010980A101850216014E
:1003F0000026B7001A01002AB70075109501810088
:10040000C0050C0901A1018503160100269C021AF2
:1004100001002A9C02751095018100C005010902A6
:10042000A1010901A10005091901290515002501EE
:10043000950575018102950175038101050109305A
:1004400009311581257F95027508810609381581C6
:10045000257F950175088106050C0A38021581254E
:100460007F950175088106C0C005010906A1010537
:100470000719E029E7150025019508750181029506
:100480000175088101050819012905950575019176
:10049000029501750391010507190029FF15002533
:1004A000FF950675088100C00A00253032582000EB
:1004B0006B6579626F6172645F7265706F72743AB6
:1004C00020000A0025303258006B6579626F617236
:1004D000645F7365745F6C65643A2000646F6E6579
:1004E0002E0A00626F6F676D6167696320736361D5
:1004F0006E3A202E2E2E2000290A002575002F008E
:100500002575005D2800256400200025640020007A
:1005100025640020002564007C0025303258006DE1
:100520006F7573656B6579205B62746E7C7820797A
:10053000207620685D287265702F61636C293A20EF
:100540005B006D6B5F776865656C5F74696D655F97
:10055000746F5F6D6178203D2025640A006D6B5FCC
:10056000776865656C5F6D61785F73706565642041
:100570003D2025640A006D6B5F74696D655F746F63
:100580005F6D6178203D2025640A006D6B5F6D61B1
:10059000785F7370656564203D2025640A006D6B8B
:1005A0005F696E74657276616C203D2025640A0077
:1005B0006D6B5F64656C6179203D2025640A006D78
:1005C0006B5F776865656C5F74696D655F746F5F9D
:1005D0006D6178203D2025640A006D6B5F7768654A
:1005E000656C5F6D61785F7370656564203D202583
:1005F000640A006D6B5F74696D655F746F5F6D6138
:1006000078203D2025640A006D6B5F6D61785F7313
:1006100070656564203D2025640A006D6B5F696E1E
:1006200074657276616C203D2025640A006D6B5FF5
:1006300064656C6179203D2025640A000A002575F7
:1006400000363A20776865656C5F74696D655F7424
:100650006F5F6D61783A20000A00257500353A20F9
:10066000776865656C5F6D61785F73706565643A26
:1006700020000A00257500343A2074696D655F74A6
:100680006F5F6D61783A20000A00257500333A20CB
:100690006D61785F73706565643A20000A002575A6
:1006A00000323A20696E74657276616C286D732928
:1006B0003A20000A00257500313A2064656C6179A2
:1006C000282A31306D73293A20000A092D205661FD
:1006D0006C756573202D0A004D3E004D25643E204B
:1006E000003F007365742064656661756C740A0070
:1006F000433E200077686572652064656C74613ADA
:1007000020637572736F723D25642C207768656570
:100710006C3D25640A53656520687474703A2F2F08
:10072000656E2E77696B6970656469612E6F72679B
:100730002F77696B692F4D6F7573655F6B65797383
:100740000A000A092D204D6F7573656B6579202DA0
:100750000A4553432F713A09717569740A313A0990
:1007600064656C6179282A31306D73290A323A093F
:10077000696E74657276616C286D73290A333A0963
:100780006D61785F73706565640A343A0974696DE8
:10079000655F746F5F6D61780A353A0977686565E2
:1007A0006C5F6D61785F73706565640A363A0977CE
:1007B0006865656C5F74696D655F746F5F6D6178A6
:1007C0000A0A703A097072696E742076616C7565F8
:1007D000730A643A097365742064656661756C74A4
:1007E000730A75703A092B310A646F776E3A092DD6
:1007F000310A706775703A092B31300A7067646F7F
:10080000776E3A092D31300A0A7370656564203DB0
:100810002064656C7461202A206D61785F73706557
:100820006564202A2028726570656174202F207409
:10083000696D655F746F5F6D6178290A003F004DD7
:100840003E2000433E20004C25640A000A092D206A
:10085000436F6E736F6C65202D0A4553432F713AB9
:1008600009717569740A6D3A096D6F7573656B6509
:10087000790A000A092D204D61676963202D0A64F9
:100880003A0964656275670A783A09646562756752
:10089000206D61747269780A6B3A096465627567E4
:1008A000206B6579626F6172640A6D3A09646562F2
:1008B0007567206D6F7573650A763A097665727390
:1008C000696F6E0A733A097374617475730A633AD7
:1008D00009636F6E736F6C65206D6F64650A302DF0
:1008E000343A096C61796572302D34284631302DE7
:1008F0004634290A506175733A09626F6F746C6FE0
:10090000616465720A653A09656570726F6D0A0007
:100910000A002575002E6E6B726F3A20000A0025C2
:1009200075002E737761705F6261636B736C6173C6
:10093000685F6261636B73706163653A20000A00EF
:100940002575002E737761705F67726176655F65EC
:1009500073633A20000A002575002E6E6F5F67757D
:10096000693A20000A002575002E737761705F7266
:10097000616C745F726775693A20000A0025750022
:100980002E737761705F6C616C745F6C6775693A28
:1009900020000A002575002E636170736C6F636B15
:1009A0005F746F5F636F6E74726F6C3A20000A0041
:1009B0002575002E737761705F636F6E74726F6C54
:1009C0005F636170736C6F636B3A20000A002530BF
:1009D0003258006B65796D61705F636F6E66696731
:1009E0002E7261773A20000A002575002E6D6F7512
:1009F00073653A20000A002575002E6B6579626FD9
:100A00006172643A20000A002575002E6D617472CF
:100A100069783A20000A002575002E656E61626CC7
:100A2000653A20000A002530325800646562756717
:100A30005F636F6E6669672E7261773A20000A0005
:100A400025750064656661756C745F6C61796572AB
:100A50003A20003F0074696D65725F636F756E7454
:100A60003A202530346C580A006B6579626F6172E8
:100A7000645F69646C653A2025580A006B65796289
:100A80006F6172645F70726F746F636F6C3A202570
:100A9000580A00686F73745F6B6579626F61726486
:100AA0005F6C65647328293A2025580A000A092DCD
:100AB00020537461747573202D0A004743433A2014
:100AC000342E382E32204156522D4C4942433A2082
:100AD000312E382E30204156525F415243483A2041
:100AE000617672350A004F5054494F4E533A204CAC
:100AF00055464120424F4F544D41474943204D4FA9
:100B00005553454B45592045585452414B45592062
:100B1000434F4E534F4C4520434F4D4D414E442083
:100B2000343039360A004255494C443A2063366421
:100B3000643433372D6469727479202832313A3342
:100B4000373A3130204E6F76202037203230313521
:100B5000290A005649443A203078464545442843FE
:100B60006F64654D6F6E6B65794B6579626F61720D
:100B700064732028627920546475622929205049C1
:100B8000443A2030783630363028434D4B20506C74
:100B9000616E6B29205645523A2030783030303122
:100BA0000A00444553433A20742E6D2E6B2E206B61
:100BB0006579626F617264206669726D77617265D2
:100BC00020666F7220434D4B20506C616E6B0A00A3
:100BD0000A092D2056657273696F6E202D0A000A6E
:100BE0006D6F7573653A206F66660A000A6D6F75E2
:100BF00073653A206F6E0A000A6B6579626F6172E5
:100C0000643A206F66660A000A6B6579626F6172EA
:100C1000643A206F6E0A000A6D61747269783A2036
:100C20006F66660A000A6D61747269783A206F6EA9
:100C30000A000A64656275673A206F6E0A000A64EA
:100C4000656275673A206F66660A000A0A626F6F0E
:100C5000746C6F616465722E2E2E2000433E20005E
:100C60006565636F6E6669673A0A000011241FBEEE
:100C7000CFEFDAE0DEBFCDBF04B603FE24C0809123
:100C8000C5019091C601A091C701B091C8018730FC
:100C9000904BA740B04BB9F41092C5011092C60119
:100CA0001092C7011092C80114BE84B7877F84BF19
:100CB00088E10FB6F89480936000109260000FBE38
:100CC000E0E0F8E3099511E0A0E0B1E0E4E9F2E545
:100CD00002C005900D92A233B107D9F711E0A2E34B
:100CE000B1E001C01D92A53CB107E1F70E940D0BD8
:100CF0000C9448290C940000FF93EF93E09132018B
:100D0000F0913301309709F00995EF91FF91089523
:100D1000FC018591803011F0EFDFFBCF0895FF27B4
:100D2000E0E230E247FF0CC0419597FF09C0EDE2D9
:100D30006095709580959095611D711D811D911D27
:100D400027FF02C0219530E350E2AA27660F771FE4
:100D5000881F991FAA1FA41710F0A41B63955A950A
:100D6000A9F7AA3008F0A95FA05DAF93F3956115CC
:100D700071058105910541F7ED3211F4EF93F3957B
:100D8000F21718F43F93F395FBCF8F91B5DFFA95E7
:100D9000E1F70895E991F9918591803021F085324C
:100DA00019F0AADFF9CF089520E0E8945591553263
:100DB000C1F3503311F4689455915A3348F45053A9
:100DC00090F3220F022E220F220F200D250FF4CFB9
:100DD0000EF4219589919991533619F3533729F1DE
:100DE000533559F1BC0188279927E8945C3621F4E2
:100DF0008991999168945591543639F446EF7EF073
:100E000077FF0DC08FEF9FEF0AC055374AE039F0EA
:100E1000583540E121F0523642E009F00895FF9341
:100E2000EF937DDFEF91FF91B7CFFF93EF93FC013D
:100E300081918030B9F360DFFBCFFF93EF9368DFE0
:100E4000F1CFDF93CF93CDB7DEB72596A3DFCF9158
:100E5000DF9108951F93CF93DF931F92CDB7DEB735
:100E6000FC01128169830E94AC1B82728093340161
:100E70006981613069F028F0623079F06330A1F067
:100E80001AC01123D9F08823E1F08BE591E02AC044
:100E900011111AC086E491E025C01123C1F0882306
:100EA000C9F08DE191E01EC01123B9F08823C1F093
:100EB00084EF90E017C080E090E014C08FE691E0EE
:100EC00011C087E491E00EC082E391E00BC081E3A2
:100ED00091E008C089E091E005C088E091E002C09F
:100EE00080EE90E00F90DF91CF911F910895E72F52
:100EF000F0E096E0899FE00DF11D112483E0EE0FF4
:100F0000FF1F8A95E1F7E60FF11DEA57FE4F849126
:100F10000895E82FF0E0EE0FFF1FE051F0408591BB
:100F2000949108958AB1887F8AB98BB1887F8BB9F3
:100F300084B18F7984B985B18F7985B987988F9875
:100F400008950E94920780B38C7C80BB81B3836339
:100F500081BB84B1807F84B985B18F6085B9EBE3B3
:100F6000F1E0A5E3B1E011921D9281E0E134F807D0
:100F7000D1F70895DF92EF92FF920F931F93CF93D3
:100F8000DF93C5E3D1E010E001E085E0D82E9FE9D2
:100F9000E92E92E0F92E133099F028F4113051F037
:100FA000123059F004C0143071F0153079F0509AB5
:100FB00058980EC0519A59980BC0529A5A9808C026
:100FC000259A2D9805C0269A2E9802C0879A8F9848
:100FD00080EA8A95F1F783B181708027199B02C05E
:100FE00090E001C092E0892B1A9B02C090E001C002
:100FF00094E0892B1B9B02C090E001C098E0892BF4
:10100000789B02C030E001C030E1832B799B02C0A5
:1010100020E001C020E2822B7C9B02C090E001C056
:1010200090E4892B7D9B02C090E001C090E8892B61
:101030009881981739F1888380910001882301F104
:101040008091A60180FF04C084EA92E00E94880695
:101050008091A60180FF0CC0809100011F928F93A8
:10106000FF92EF920E9421070F900F900F900F9028
:101070008091A60180FF04C08DE992E00E9488065D
:10108000D09200010E9492071F5F2196163009F04E
:1010900082CF809100018823B1F0815080930001BC
:1010A000882339F08FE99FE00197F1F700C0000035
:1010B0000AC0ABE3B1E0E5E3F1E081918D9391E00B
:1010C000EB33F907D1F781E0DF91CF911F910F91B9
:1010D000FF90EF90DF900895E82FF0E0E55CFE4F81
:1010E00080810895CF92DF92EF92FF920F931F932A
:1010F000CF93DF9386E892E00E9488062BE3E22EEE
:1011000021E0F22EC0E0D0E031E8C32E32E0D32E51
:1011100008E712E0DF93CF93DF92CF920E9421077E
:101120008EE792E00E948806F70181917F0190E0AE
:101130000E945E1D9F938F931F930F930E94210720
:1011400086E792E00E94880621968DB79EB70896A2
:101150000FB6F8949EBF0FBE8DBFC630D105D1F635
:10116000DF91CF911F910F91FF90EF90DF90CF9083
:10117000089581FF02C0229A01C022982A980895FA
:1011800080914C0108959FB7F894109243019FBF3E
:101190009091BC01943009F058C09091E9009F7083
:1011A0002091EC0020FF02C020E801C020E0292BA4
:1011B00094E09093E9009091EB0090FF43C09091F0
:1011C000EE0097FF3FC090914101992321F090914B
:1011D000E80095FF37C01092410196E03091E80099
:1011E00035FD15C03091BC01343061F53091EB0014
:1011F00035FD28C0915021F481E08093410122C047
:10120000EFE9FFE03197F1F700C00000E7CF8093EE
:10121000F1008091E80085FD0AC08091E80080FF20
:10122000FCCF8091E8008E778093E80006C08FB7EE
:10123000F89491E0909343018FBF2F702093E900C1
:1012400080E008952F702093E9008FEF0895CF93E9
:10125000DF9300D01F92CDB7DEB72091BC012430C0
:1012600019F523E029839B838A832093E9008FEF7C
:101270009091E800815095FD06C095ED9A95F1F7A3
:1012800000008111F5CF8091E80085FF0DC040E09E
:1012900050E063E070E0CE0101960E94CA0B80919D
:1012A000E8008E778093E8000F900F900F90DF9109
:1012B000CF910895CF93DF9300D01F92CDB7DEB7C3
:1012C0002091BC01243021F522E029839B838A836D
:1012D00083E08093E9008FEF9091E800815095FDC5
:1012E00006C095ED9A95F1F700008111F5CF809138
:1012F000E80085FF0DC040E050E063E070E0CE0103
:1013000001960E94CA0B8091E8008E778093E800D6
:101310000F900F900F90DF91CF9108952091BC0115
:101320002430F1F422E02093E9002FEF3091E8001F
:10133000215035FD06C035ED3A95F1F70000211139
:10134000F5CF2091E80025FF0BC040E050E065E0BC
:1013500070E00E94CA0B8091E8008E778093E800CD
:101360000895CF93DF93EC018091BC01843039F56F
:1013700081E08093E9008FEF9091E800815095FD26
:1013800006C095ED9A95F1F700008111F5CF809197
:10139000E80085FF14C040E050E068E070E0CE0156
:1013A0000E94CA0B8091E8008E778093E80088E065
:1013B000FE01A4E4B1E001900D928A95E1F7DF917E
:1013C000CF91089584EE92E00E9488068091BB013F
:1013D000811109C00E945C0D0E94B90D8091E2004C
:1013E00084608093E200089580EE92E00E94880677
:1013F0001092BB0108958CED92E00C94880688ED64
:1014000092E00C94880684ED92E00E9488060C9489
:10141000B51D809142018F5F8093420162E30E947B
:10142000DD28911135C0109242018091430188233B
:1014300079F18091BC01843049F58091E9008F7089
:101440009091EC0090FF02C090E801C090E0982BD2
:1014500084E08093E9008091EB0080FF14C08091CC
:10146000EE0087FF10C08091E80085FF03C0109256
:10147000F100F9CF8091E80080FF05C08091E8007D
:101480008E778093E8009F709093E900109243015B
:10149000089542E061EC81E00E94D60C42E061ECEC
:1014A00082E00E94D60C42E061EC83E00E94D60C00
:1014B00042E261EC84E00C94D60C8091BE01833052
:1014C00009F453C030F4813071F0823009F48CC0DB
:1014D00008958A3009F478C08B3009F45EC08930F1
:1014E00009F09AC020C08091BD01813A09F094C0F2
:1014F0008091E800877F8093E8008091C1019091FE
:10150000C201892B21F060E080E090E003C068E038
:1015100084E491E070E00E94130C8091E8008B77E6
:101520008093E80008958091BD01813209F074C074
:101530008091C1019091C201892B09F06DC0809109
:10154000E800877F8093E8008091E80082FD05C075
:101550008091BC018111F8CF5FC08091F100809330
:101560004C018091E8008B7753C08091BD01813A96
:1015700009F052C08091C1019091C201892B09F0FC
:101580004BC08091E800877F8093E8008091E8005D
:1015900080FFFCCF80910B0136C08091BD0181326C
:1015A000D9F58091C1019091C201892BA9F5809153
:1015B000E800877F8093E8000E940B0D8091BF01B7
:1015C00080930B010C94FF158091BD01813221F5B0
:1015D0008091E800877F8093E8000E940B0D809146
:1015E000C00180934D0108958091BD01813AA1F41D
:1015F0008091E800877F8093E8008091E80080FF79
:10160000FCCF80914D018093F1008091E8008E77AE
:101610008093E8000C940B0D089584B7877F84BFF6
:1016200088E10FB6F89480936000109260000FBEBE
:1016300090E080E80FB6F894809361009093610089
:101640000FBE0E94C1100E945C0D0E94B90D8091D6
:10165000E20084608093E20083EC98E00E94471DE2
:1016600078948091BC018430E1F783EC92E00E9491
:1016700088060E94C31081E091E00E94331082EB43
:1016800092E00E9488068091BC01853089F48EEA40
:1016900092E00E9488060E94781D8091BA018823FA
:1016A00091F30E94A01D882371F30E94B40BEBCF2D
:1016B0000E94F110E8CF292F332723303105A9F0FC
:1016C0006CF42130310509F442C02230310509F0B3
:1016D00043C084E790E020E433E042C0213231058A
:1016E000C9F02232310519F137C0992781309105AF
:1016F00041F08230910541F0892B71F5ECE3F3E084
:1017000005C0EEEFF2E002C0E8EEF2E0849190E076
:101710009F0126C0643000F5E62FF0E0EE0FFF1FBA
:10172000E05EFE4F2081318189E090E019C0643095
:1017300098F4E62FF0E0DF01AA0FBB1FA85EBE4FB2
:101740002D913C91EC5EFE4F808190E009C082E1DA
:1017500090E024EB33E004C080E090E020E030E053
:10176000FA0131832083089580E189BD82E189BD3A
:1017700009B400FEFDCF8091D8008F7D8093D80002
:101780008091E00082608093E0008091E00081FD24
:10179000FCCF0895CF92DF92EF92FF920F931F93A9
:1017A000CF93DF937C018B01EA010E942C0D811104
:1017B00031C0209731F088819981081B190BE80E00
:1017C000F91EC12CD12C0115110519F18091E800E9
:1017D00085FD14C08091E8008E778093E800209703
:1017E00041F0888199818C0D9D1D9983888385E0C6
:1017F00011C00E942C0D882331F30CC0F701819198
:101800007F018093F10001501109FFEFCF1ADF0A29
:10181000DACF80E0DF91CF911F910F91FF90EF9091
:10182000DF90CF9008952091C3013091C401261715
:10183000370748F06115710539F42091E8002E77DB
:101840002093E80001C0B901FC0120E06115710599
:10185000B9F18091BC01882309F440C0853009F4B6
:101860003FC08091E80083FD3DC08091E80082FF89
:1018700006C08091E80082FF26C080E00895809134
:10188000E80080FFE3CF2091F3008091F20090E028
:10189000922B6115710551F08830910538F4219132
:1018A0002093F100615071090196F3CF21E0089770
:1018B00009F020E08091E8008E778093E800C6CFA1
:1018C0002111C7CFD6CF8091BC01882339F0853054
:1018D00039F08091E80083FFCCCF04C082E0089506
:1018E00083E0089581E008952091C3013091C401FF
:1018F0002617370748F06115710539F42091E80083
:101900002E772093E80001C0B901FC0120E06115A9
:101910007105C1F18091BC01882309F441C0853073
:1019200009F440C08091E80083FD3EC08091E8004A
:1019300082FF06C08091E80082FF27C080E0089502
:101940008091E80080FFE3CF2091F3008091F200C6
:1019500090E0922B6115710559F08830910540F4A3
:1019600024912093F1003196615071090196F2CFD4
:1019700021E0089709F020E08091E8008E778093BD
:10198000E800C5CF2111C6CFD5CF8091BC018823F7
:1019900039F0853039F08091E80083FFCBCF04C067
:1019A00082E0089583E0089581E00895982F9730AC
:1019B00058F59093E900981739F07091EC00209158
:1019C000ED005091F00003C0242F762F50E021FF4E
:1019D00019C03091EB003E7F3093EB003091ED0069
:1019E0003D7F3093ED003091EB0031603093EB00A0
:1019F0007093EC002093ED005093F0002091EE00E6
:101A000027FF07C09F5FD3CF8F708093E90081E0ED
:101A1000089580E008958091BD0187FD05C0809103
:101A2000E80080FF0EC012C08091E80082FD05C072
:101A30008091BC018111F8CF08958091E8008B77E7
:101A400008C08091BC018111EACF08958091E8001F
:101A50008E778093E80008958091E4009091E500EE
:101A600045E62091EC0020FF21C02091E80020FDF8
:101A700021C02091BC01222389F0253089F02091DA
:101A8000EB0025FD0FC02091E4003091E500281700
:101A9000390739F3415041F0C901E3CF82E008959D
:101AA00083E0089581E0089584E008952091E8009E
:101AB00022FFDFCF80E008950E94CA0D0E94D20D60
:101AC000E0EEF0E0808181608083E8EDF0E08081ED
:101AD0008F77808319BCA7EDB0E08C918E7F8C93BB
:101AE00080818F7E80831092BB0108950F931F9396
:101AF000CF93DF930E94CA0D0E94D20DC8EDD0E0B3
:101B000088818F77888388818068888388818F7DAA
:101B1000888319BC1092BC011092B8011092BA01CE
:101B20001092B90100EE10E0F80180818B7F808374
:101B300088818160888342E060E080E00E94D60C6A
:101B4000E1EEF0E080818E7F8083E2EEF0E0808144
:101B500081608083808188608083F80180818E7FAE
:101B60008083888180618883DF91CF911F910F915D
:101B70000895E8EDF0E080818F7E8083E7EDF0E06E
:101B800080818160808384E082BF81E08093BB019B
:101B90000C94760DE8EDF0E080818E7F80831092CA
:101BA000E20008951092DA001092E10008951F9269
:101BB0000F920FB60F9211242F933F934F935F9381
:101BC0006F937F938F939F93AF93BF93EF93FF9305
:101BD0008091E10082FF0BC08091E20082FF07C08C
:101BE0008091E1008B7F8093E1000E94090A80913F
:101BF000DA0080FF1FC08091D80080FF1BC0809159
:101C0000DA008E7F8093DA008091D90080FF0DC0CA
:101C100080E189BD82E189BD09B400FEFDCF81E08C
:101C20008093BC010E94E20905C019BC1092BC015E
:101C30000E94F4098091E10080FF19C08091E200C8
:101C400080FF15C08091E2008E7F8093E20080913A
:101C5000E20080618093E2008091D80080628093EE
:101C6000D80019BC85E08093BC010E94FF098091D7
:101C7000E10084FF30C08091E20084FF2CC080E14D
:101C800089BD82E189BD09B400FEFDCF8091D800F5
:101C90008F7D8093D8008091E1008F7E8093E1005A
:101CA0008091E2008F7E8093E2008091E20081606B
:101CB0008093E2008091B801882311F084E007C08E
:101CC0008091E30087FF02C083E001C081E0809340
:101CD000BC010E94030A8091E10083FF29C080912A
:101CE000E20083FF25C08091E100877F8093E100BF
:101CF00082E08093BC011092B8018091E1008E7F58
:101D00008093E1008091E2008E7F8093E2008091D9
:101D1000E20080618093E20042E060E080E00E94A7
:101D2000D60C8091F00088608093F0000E94FB093F
:101D3000FF91EF91BF91AF919F918F917F916F91A3
:101D40005F914F913F912F910F900FBE0F901F9079
:101D500018951F920F920FB60F9211242F933F9355
:101D60004F935F936F937F938F939F93AF93BF93A3
:101D7000CF93EF93FF93C091E900CF708091EC0077
:101D80001092E9008091F000877F8093F0007894B2
:101D90000E94E50E1092E9008091F0008860809327
:101DA000F000C093E900FF91EF91CF91BF91AF9107
:101DB0009F918F917F916F915F914F913F912F9163
:101DC0000F900FBE0F901F9018951F93CF93DF9326
:101DD000CDB7DEB7AA970FB6F894DEBF0FBECDBF62
:101DE000EDEBF1E08091F100819321E0E53CF20719
:101DF000C9F70E945D0A8091E80083FF1CC1209111
:101E0000BD013091BE01832F90E08A30910508F02A
:101E100012C1FC01EA5AFF4F0C94FD28203881F0D2
:101E2000223809F008C18091C1018F708093E900C8
:101E30008091EB0085FB882780F91092E90006C0AD
:101E40008091B9019091BA01911182609091E8005E
:101E5000977F9093E8008093F1001092F100C5C045
:101E6000822F8D7F09F0E7C0222319F0223061F024
:101E7000E2C08091BF01813009F0DDC0333009F04C
:101E800080E08093BA0128C08091BF01811124C0F5
:101E90002091C1012F7009F4CEC02093E9008091F8
:101EA000EB0080FF19C08091EB00333011F48062A9
:101EB00011C080618093EB0081E090E0022E01C0B0
:101EC000880F0A94EAF78093EA001092EA00809162
:101ED000EB0088608093EB001092E9008091E800AD
:101EE000877F86C02111A7C01091BF011F77809105
:101EF000E3008078812B8093E3008091E800877F66
:101F00008093E8000E940B0D8091E80080FFFCCFD9
:101F10008091E30080688093E300112311F083E057
:101F200001C082E08093BC0186C02058223008F0B6
:101F300082C08091BF019091C0018C3D23E0920747
:101F400079F583E08A838AE289834FB7F894DE01CA
:101F5000139620E03EE051E2E32FF0E0509357006B
:101F6000E49120FF03C0E295EF703F5FEF708E2F8A
:101F700090E0EA3010F0C79601C0C0968D939D9313
:101F80002F5F243149F74FBF8091E800877F80930E
:101F9000E8006AE270E0CE0101960E94130C14C0C2
:101FA000AE014F5F5F4F6091C1010E945B0B0097D4
:101FB00009F441C02091E800277F2093E800BC018C
:101FC00089819A810E94740C8091E8008B778093BC
:101FD000E80031C0203879F58091E800877F809350
:101FE000E8008091B8018093F1008091E8008E773D
:101FF0008093E8000E940B0D1EC021111CC090911F
:10200000BF019230C0F48091E800877F8093E800A0
:102010009093B8010E940B0D8091B801811104C00A
:102020008091E30087FF02C084E001C081E08093DB
:10203000BC010E94490A8091E80083FF0AC0809198
:10204000E800877F8093E8008091EB0080628093B6
:10205000EB00AA960FB6F894DEBF0FBECDBFDF919E
:10206000CF911F9108959093530180935201089549
:10207000E0915201F0915301309721F00190F081ED
:10208000E02D099480E00895FF920F931F93CF9362
:10209000DF938C01E0915201F0915301309799F157
:1020A0000280F381E02D09958091A60182FF2BC06B
:1020B00080FF04C080EB94E00E948806E80188E07D
:1020C000F82E0AEA14E08091A60180FF0BC08881F7
:1020D0001F928F931F930F930E9421070F900F90D1
:1020E0000F900F90FA942196F110EDCF8091A601F8
:1020F00080FF09C088EA94E0DF91CF911F910F9192
:10210000FF900C948806DF91CF911F910F91FF9063
:102110000895E0915201F0915301309721F004802D
:10212000F581E02D099408952091500130915101DD
:102130008217930771F09093510180935001E091C1
:102140005201F0915301309721F00680F781E02D84
:102150000994089520914E0130914F018217930701
:1021600071F090934F0180934E01E0915201F091F4
:102170005301309721F00084F185E02D09940895F2
:1021800008950C94C0100E94E01D0E94A1070C94B9
:10219000A61ECF93C82F8091A60182FF1EC080FF8C
:1021A00004C089EC94E00E9488068091A60180FF1B
:1021B0000CC01F92CF9324EC34E03F932F930E94E6
:1021C00021070F900F900F900F908091A60180FF34
:1021D00004C082EC94E00E9488068C2FCF910C946E
:1021E000B908CF92DF92EF92FF920F931F93CF9394
:1021F000DF93CDB7DEB72B970FB6F894DEBF0FBED7
:10220000CDBF0E94BA0735E5E32E31E0F32E00E0A2
:1022100010E0C02E802F0E946C08F701D1907F0142
:10222000D826B1F40F5F1F4F0630110591F78FEFDD
:1022300089838A831B820E94E91D8160782F9D8398
:102240008C8349815A816B818D810E94941141C098
:102250009091A60191FF04C08B870E9472088B8524
:1022600020E030E04D2D50E0922FBA01022E02C046
:10227000759567950A94E2F760FF25C02E83CF829B
:10228000EE24E394F12C02C0EE0CFF1C9A95E2F7C9
:1022900090E08E219F2121E0892B09F420E02887FE
:1022A0000E94E91D8160782F9A8789874E815F811E
:1022B00068858A850E949411F801EB5AFE4F80814F
:1022C0008E25808306C02F5F3F4F2830310561F691
:1022D000A9CF0E940D22109154010E9438101817A6
:1022E000A1F00E943810809354012B960FB6F894F9
:1022F000DEBF0FBECDBFDF91CF911F910F91FF9039
:10230000EF90DF90CF900C94C9102B960FB6F894F5
:10231000DEBF0FBECDBFDF91CF911F910F91FF9018
:10232000EF90DF90CF900895CF93DF93CDB7DEB7D6
:102330002B970FB6F894DEBF0FBECDBF4F835887E3
:1023400069877A878B87DE01119686E0FD011192FD
:102350008A95E9F785E0FE01379601900D928A95FE
:10236000E1F749815A816B817C818D819E810E9438
:10237000CB182B960FB6F894DEBF0FBECDBFDF9102
:10238000CF910895CF93C82F882309F4C1C0823814
:1023900059F40E94381081FDBBC089E30E946A1B7A
:1023A0000E94E81B89E30CC0833879F40E9438103E
:1023B00080FDAEC083E50E946A1B0E94E81B83E596
:1023C0000E948B1BCF910C94E81B843859F40E9417
:1023D000381082FD9DC087E40E946A1B0E94E81BA2
:1023E00087E4EECF8CEF8C0F813A48F48C2F0E945B
:1023F000692681118DC08C2F0E946A1BE3CF80E279
:102400008C0F883048F4C77081E001C0880FCA95EE
:10241000EAF70E94AF1BD6CF8BE58C0F833078F4A0
:10242000C53A29F0C63A31F482E890E005C081E867
:1024300090E002C083E890E0CF910C94941088E57E
:102440008C0F833108F064C0C83A39F1C93A41F1C0
:10245000CA3A49F1CB3A51F1CC3A59F1CD3A61F14E
:10246000C03B69F1CE3A71F1CF3A79F1C13B81F1CC
:10247000C23B89F1C33B91F1C43B99F1C53BA1F14A
:10248000C63BA9F1C73BB1F1C83BB9F1C93BC1F1AA
:10249000CA3BC9F58AE292E038C082EE90E035C0CE
:1024A00089EE90E032C08AEE90E02FC085EB90E09C
:1024B0002CC086EB90E029C087EB90E026C08CEC26
:1024C00090E023C08DEC90E020C083E891E01DC037
:1024D0008AE891E01AC082E991E017C084E991E0AE
:1024E00014C081E292E011C083E292E00EC084E267
:1024F00092E00BC085E292E008C086E292E005C05F
:1025000087E292E002C080E090E0CF910C94AA10A4
:10251000CF910895882309F44BC0823859F40E9462
:10252000381081FF45C089E30E946A1B0E94E81BA6
:1025300089E30CC0833871F40E94381080FF38C0E2
:1025400083E50E946A1B0E94E81B83E50E948B1BA7
:102550000C94E81B843859F40E94381082FF28C07C
:1025600087E40E946A1B0E94E81B87E4EFCF9CEF80
:10257000980F913A58F390E2980F983050F4877082
:1025800091E001C0990F8A95EAF7892F0E94B51B47
:10259000DFCF9BE5980F933020F480E090E00C941F
:1025A0009410885A833120F480E090E00C94AA10B3
:1025B0000895882321F00E94AF1B0C94E81B089516
:1025C000882321F00E94B51B0C94E81B0895CF923C
:1025D000DF92EF92FF920F931F93CF93DF93CDB7CC
:1025E000DEB728970FB6F894DEBF0FBECDBF8C01C3
:1025F00085E0F801DE01119601900D928A95E1F7D0
:10260000F80140813181F280258122952F708381EC
:102610009481892B31F03F3F31F481E04F3F19F431
:1026200003C081E001C080E080FDC8C249833A83D5
:1026300089819A812F830E94281B9E8388870E940C
:10264000271B0E94FA194E81E42FE295EF70F0E00B
:10265000E05AFF4F2F8168850C94FD28842F807FDE
:10266000142F1F70882311F01295107FFF2059F04E
:10267000112309F458C2812F68870E94BF1B0E9452
:10268000E81B688550C2862F0E948A12112309F424
:1026900095C2812F0E94C51B28960FB6F894DEBF05
:1026A0000FBECDBFDF91CF911F910F91FF90EF90A3
:1026B000DF90CF900C94E81B342F307F842F8F70E5
:1026C000303211F08295807F662319F0613009F174
:1026D0002AC0FF20A1F0222381F1213071F5289634
:1026E0000FB6F894DEBF0FBECDBFDF91CF911F9123
:1026F0000F91FF90EF90DF90CF900C94CF1B22238F
:1027000019F0213009F45AC28E830E94D21B8E81A7
:102710008EC1FF2021F0263008F050C20EC02530B7
:1027200008F04CC284C1FF20C1F0222331F0F8012F
:10273000958190FFF8C19F70958328960FB6F89405
:10274000DEBF0FBECDBFDF91CF911F910F91FF90E4
:10275000EF90DF90CF900C94D912222309F467C137
:10276000F6C1242F26952695237030E021153105DA
:1027700021F021303105C9F021C2FF2021F0862F40
:10278000942F937002C080E090E028960FB6F894E2
:10279000DEBF0FBECDBFDF91CF911F910F91FF9094
:1027A000EF90DF90CF900C949410FF2021F0862FB3
:1027B000942F937002C080E090E028960FB6F894B2
:1027C000DEBF0FBECDBFDF91CF911F910F91FF9064
:1027D000EF90DF90CF900C94AA10862FFF2019F075
:1027E0000E94932002C00E94FB2028960FB6F89406
:1027F000DEBF0FBECDBFDF91CF911F910F91FF9034
:10280000EF90DF90CF900C948021842F837009F09B
:1028100076C0F110D3C1262F229526952770220F5E
:10282000220F862F8F70C82ED12CE12CF12C022E76
:1028300004C0CC0CDD1CEE1CFF1C0A94D2F764FF14
:1028400010C06FE070E080E090E004C0660F771F7A
:10285000881F991F2A95D2F760957095809590955D
:1028600003C060E070E0CB01242F269526952370ED
:10287000422F50E042305105D1F04330510559F11B
:102880006C297D298E299F294130510541F12896D7
:102890000FB6F894DEBF0FBECDBFDF91CF911F9171
:1028A0000F91FF90EF90DF90CF900C941F1A6C293E
:1028B0007D298E299F2928960FB6F894DEBF0FBE7A
:1028C000CDBFDF91CF911F910F91FF90EF90DF90DF
:1028D000CF900C94391A0E941F1AC701B60128968E
:1028E0000FB6F894DEBF0FBECDBFDF91CF911F9121
:1028F0000F91FF90EF90DF90CF900C94051AFF207E
:1029000019F0842F817001C08695882309F456C17F
:10291000262F229526952770220F220F862F8F7043
:10292000C82ED12CE12CF12C022E04C0CC0CDD1CC5
:10293000EE1CFF1C0A94D2F764FF10C06FE070E039
:1029400080E090E004C0660F771F881F991F2A95CA
:10295000D2F7609570958095909503C060E070E027
:10296000CB01242F269526952370422F50E042302C
:102970005105D1F04330510559F16C297D298E293B
:102980009F294130510541F128960FB6F894DEBFDA
:102990000FBECDBFDF91CF911F910F91FF90EF90B0
:1029A000DF90CF900C94F31A6C297D298E299F29F2
:1029B00028960FB6F894DEBF0FBECDBFDF91CF9142
:1029C0001F910F91FF90EF90DF90CF900C940D1B13
:1029D0000E94F31AC701B60128960FB6F894DEBF1D
:1029E0000FBECDBFDF91CF911F910F91FF90EF9060
:1029F000DF90CF900C94D91A603F49F118F4603EF3
:102A000048F48CC0623F09F451C0E0F1633F09F41F
:102A100061C084C0162F1F70842F8F71FF2021F09A
:102A20000E94721A812F89CE0E94931A812F2896B4
:102A30000FB6F894DEBF0FBECDBFDF91CF911F91CF
:102A40000F91FF90EF90DF90CF900C94E012FF2059
:102A5000A9F0253008F0B2C0842F8F7128960FB6E8
:102A6000F894DEBF0FBECDBFDF91CF911F910F91C4
:102A7000FF90EF90DF90CF900C94B81A263008F0BA
:102A80009DC0EACFFF20A1F0842F8F7128960FB64A
:102A9000F894DEBF0FBECDBFDF91CF911F910F9194
:102AA000FF90EF90DF90CF900C94721AFF2061F3AB
:102AB000842F8F7128960FB6F894DEBF0FBECDBF5E
:102AC000DF91CF911F910F91FF90EF90DF90CF900A
:102AD0000C94931AFF2091F0842F8F7128960FB6D3
:102AE000F894DEBF0FBECDBFDF91CF911F910F9144
:102AF000FF90EF90DF90CF900C945D1A28960FB660
:102B0000F894DEBF0FBECDBFDF91CF911F910F9123
:102B1000FF90EF90DF90CF900C94531AFF20A1F01C
:102B2000222309F4B1CF862F28960FB6F894DEBF82
:102B30000FBECDBFDF91CF911F910F91FF90EF900E
:102B4000DF90CF900C94C211222309F4B1CF862FCD
:102B500028960FB6F894DEBF0FBECDBFDF91CF91A0
:102B60001F910F91FF90EF90DF90CF900C948A12FD
:102B70004F70C8010E942A0728960FB6F894DEBF4E
:102B80000FBECDBFDF91CF911F910F91FF90EF90BE
:102B9000DF90CF900C9478194F70C80128960FB62B
:102BA000F894DEBF0FBECDBFDF91CF911F910F9183
:102BB000FF90EF90DF90CF900C94461D28960FB6B3
:102BC000F894DEBF0FBECDBFDF91CF911F910F9163
:102BD000FF90EF90DF90CF9008950E94CC1B0E9451
:102BE0009E1B0E94E81B0E94AE220E94802180E072
:102BF00090E00E94941080E090E00C94AA100E9453
:102C0000BC1B0C94ED150E94281B292F22952F70B8
:102C100030E02C3031054CF42A3031056CF4225070
:102C200031092230310590F407C02C30310551F0C4
:102C30002F30310539F00AC0803E10F0803F31F46A
:102C400081E0089593FB882780F9089580E0089536
:102C5000CF93DF9300D000D01F92CDB7DEB70F9097
:102C60000F900F900F900F90DF91CF910895CF9319
:102C7000DF9300D000D000D0CDB7DEB726960FB6D8
:102C8000F894DEBF0FBECDBFDF91CF9108951F93A3
:102C9000CF93DF93C0915B0116E080915C01C81770
:102CA00099F0D0E01C9FF0011D9FF00D1124E35A14
:102CB000FE4F4081518162817381848195810E94A0
:102CC00037162196C770E9CFDF91CF911F910895F4
:102CD00040918D0150918E0160918F017091900112
:102CE00080919101909192010C943716CF9380912D
:102CF000920182958F7009F05FC080918F018823C7
:102D000009F45AC020915B01A0915C0160918D0192
:102D100070918E01809190019091910131E06F3F0F
:102D200009F030E0B32FC6E02A1709F445C0009738
:102D300021F07F3F21F44B2F03C041E001C040E070
:102D400030E040FD35C0C29FF001C39FF00D11245B
:102D5000E35AFE4F418174132BC04081641328C095
:102D60004281411125C0438154814817590710F40D
:102D700041505109481B590B483C5105C8F48091FA
:102D800092018F7080618093920186E0829FF001B2
:102D9000839FF00D1124EE59FE4F80818F7080616A
:102DA00080838DE891E00E94E712CF910C94471642
:102DB0002F5F3F4F2770B8CFCF910895CF92DF920A
:102DC000EF92FF920F931F93CF93DF93CDB7DEB7B0
:102DD00062970FB6F894DEBF0FBECDBF8C0185E0C1
:102DE000F801DE011D9601900D928A95E1F7D80158
:102DF0004C9111965C91119712966C9112971396C3
:102E0000ED90FC90149770918D01E0918E012091CE
:102E10009001309191012115310531F0EF3F31F4EE
:102E200081E07F3F19F403C081E001C080E0B82F4A
:102E3000B170CB2E80FD6CC1D0908F01DD2009F4E4
:102E4000F5C0F0919201E216F30638F0C701821B3B
:102E5000930B883C910548F09BC0209530952E0D32
:102E60003F1D283C310508F093C08F2F807F09F06B
:102E700052C0E51314C0741312C0D62E61110FC0D6
:102E8000FF70F061F09392010E9468168DE891E066
:102E90000E94E71280919201F80185836CC1EF28AE
:102EA00031F05F3F31F481E04F3F19F403C081E01E
:102EB00001C080E080FD03C081E0862701C080E082
:102EC000F82FF170FF2E80FF1CC080915B012091D4
:102ED0005C0136E0821709F428C190E0389FF001C8
:102EE000399FF00D1124E35AFE4F7181571306C02C
:102EF0007081471303C07281671303C00196877006
:102F0000E9CFD62E662309F436C180919201816003
:102F10008093920153C0E51308C0741306C0611179
:102F200004C0D8011596FC93AEC04D875E878D8591
:102F30009E856A8B0E9403166A89882329F1D62E02
:102F4000662311F120919201822F82958F7090E07B
:102F500002970CF460C080918D0190918E0198874A
:102F60008F831986FB86EA862C87CE01079651C08F
:102F7000E51731F14D875E878D859E856A8B0E94AE
:102F800003166A8981112EC0C8010E94E712A4C0ED
:102F90008F2F807F69F77E2DF98AE88A89890E94C0
:102FA00028168DE891E00E94E712EDE8F1E086E056
:102FB000DF011D928A95E9F70E946816D12CDBC0CB
:102FC0007413D8CF6111D6CFD8011596FC93C801E0
:102FD0000E94E712EDE8F1E086E0DF011D928A959C
:102FE000E9F7C9C0D62E662379F220919201822F8B
:102FF00082958F7090E0029774F080918D0190918E
:103000008E019A8389831B82FD82EC822E83CE01FE
:1030100001960E94E71286E0F801ADE8B1E0019068
:103020000D928A95E1F70E9476166FC0E216F306BC
:1030300028F0C701821B930B9C0104C0209530959A
:103040002E0D3F1D283C310508F052C0D62E6623B8
:1030500009F49ACFE5132CC074132AC08091920111
:1030600080FD1DC0982F92959F70C9F0D8011596CC
:103070008C9315979F3039F09F5F9295907F8F705A
:10308000892B15968C93C8010E94E71286E0F801FF
:10309000ADE8B1E001900D928A95E1F736C086E087
:1030A000F801ADE8B1E001900D928A95E1F763C0B7
:1030B0004D875E878D859E850E940316882379F053
:1030C00086E0F801ADE8B1E001900D928A95E1F754
:1030D0000E9476160E946816DD24D3944CC080911D
:1030E0009201816080939201C8010E94E71243C05F
:1030F0007E2DF98AE88A89890E942816EDE8F1E098
:1031000086E0DF011D928A95E9F70E94681633C0B8
:10311000662309F439CF4D875E878D859E850E9491
:103120000316882309F430CFCBCF4D875E878D857A
:103130009E850E94281B292F22952F7030E0223077
:1031400031052CF49F7041F0811106C00CC0243071
:1031500031052CF49F7049F4805E883020F0C8015E
:103160000E94E712CF2CDC2C06C0D80115969C914A
:10317000907F91F7F8CF8D2D62960FB6F894DEBF51
:103180000FBECDBFDF91CF911F910F91FF90EF90B8
:10319000DF90CF9008951F93CF93DF93CDB7DEB725
:1031A0002C970FB6F894DEBF0FBECDBF4F83588764
:1031B00069877A878B879C87CE0107960E94DE16E7
:1031C0008823C1F02F8138858A859B85892B31F032
:1031D0003F3F11F080E003C02F3FE1F781E0811114
:1031E00047C04F81588569857A858B859C850E946B
:1031F00037163EC086E0FE013796DE01119601903B
:103200000D928A95E1F7FF81E8854A855B85411536
:10321000510531F0EF3F31F481E0FF3F19F403C075
:1032200081E001C080E080FD23C020915C0130E09E
:10323000C90101968770992760915B0170E086173C
:103240009707F1F1F983EA835D834C8396E0929FBF
:10325000D001939FB00D1124A35ABE4FFE013196A9
:1032600001900D929A95E1F780935C010E944716B8
:1032700016E080915B0190915C01891779F1189FAC
:10328000C0011124835A9E4F0E94DE16882331F11B
:10329000E0915B011E9FF0011124E35AFE4F408133
:1032A000518162817381848195810E94371680915A
:1032B0005B0190E001968770992780935B01D9CFDD
:1032C0000E94FF1510925C0110925B01EDE8F1E0A5
:1032D00086E0DF011D928A95E9F7CACF2C960FB6DA
:1032E000F894DEBF0FBECDBFDF91CF911F9108953F
:1032F000EF92FF920F931F93CF93DF939C01009760
:1033000009F471C0F12CEE24E394E9012196F9014E
:103310008491843740F4843008F056C0813081F0C5
:10332000823021F160C0853709F449C0C0F19CE7C3
:10333000980F903708F057C08F770E948A1246C0C6
:1033400089010E5F1F4FFE01849190E2980F983023
:1033500050F48770FE2D01C0FF0F8A95EAF78F2F7A
:103360000E94BF1B15C00E94C21114C089010E5FCC
:103370001F4FFE01849190E2980F983068F4877097
:10338000FE2D01C0FF0F8A95EAF78F2F0E94C51B03
:103390000E94E81BE8011AC00E948A12FBCF2E5F30
:1033A0003F4FFE01C491CC2341F08FE99FE001978C
:1033B000F1F700C00000C150F6CFE90107C0FE01DF
:1033C000F490E901229602C00E94C2118F2D882339
:1033D00041F0EFE9FFE03197F1F700C000008150C4
:1033E000F6CF9E0192CFDF91CF911F910F91FF9069
:1033F000EF900895089560939701709398018093DA
:10340000990190939A010C94ED150F931F930091DD
:103410009701109198012091990130919A01062B02
:10342000172B282B392B0093970110939801209389
:10343000990130939A011F910F910C94ED150F9300
:103440001F9300919701109198012091990130915B
:103450009A010623172328233923009397011093F9
:1034600098012093990130939A011F910F910C9428
:10347000ED150F931F9300919701109198012091E2
:10348000990130919A010627172728273927009399
:103490009701109398012093990130939A011F91FD
:1034A0000F910C94ED1510929301109294011092CB
:1034B0009501109296010C94ED1541E050E060E00A
:1034C00070E004C0440F551F661F771F8A95D2F71E
:1034D00040939301509394016093950170939601EA
:1034E0000C94ED1541E050E060E070E004C0440F42
:1034F000551F661F771F8A95D2F78091930190918F
:103500009401A0919501B0919601842B952BA62B47
:10351000B72B8093930190939401A0939501B0935E
:1035200096010C94ED1541E050E060E070E004C0BD
:10353000440F551F661F771F8A95D2F74095509507
:10354000609570958091930190919401A09195015F
:10355000B091960184239523A623B72380939301EA
:1035600090939401A0939501B09396010C94ED155E
:1035700041E050E060E070E004C0440F551F661F5A
:10358000771F8A95D2F78091930190919401A09131
:103590009501B091960184279527A627B727809398
:1035A000930190939401A0939501B09396010C948C
:1035B000ED150F931F9300919301109194012091A9
:1035C000950130919601062B172B282B392B009350
:1035D00093011093940120939501309396011F91CC
:1035E0000F910C94ED150F931F930091930110917F
:1035F00094012091950130919601062317232823E9
:1036000039230093930110939401209395013093F3
:1036100096011F910F910C94ED150F931F9300913C
:103620009301109194012091950130919601062704
:10363000172728273927009393011093940120938B
:103640009501309396011F910F910C94ED150895FB
:10365000CF92DF92EF92FF920F931F93CF93DF935E
:10366000EC01C0909701D0909801E0909901F09002
:103670009A018091930190919401A0919501B0914C
:103680009601C82AD92AEA2AFB2A0FE110E0B701DD
:10369000A601002E04C076956795579547950A9424
:1036A000D2F740FF07C0BE01802F0E94D31C81309B
:1036B000910539F40150110950F7BE0180E00E94D4
:1036C000D31CDF91CF911F910F91FF90EF90DF906E
:1036D000CF90089540910C0150910D0120E030E011
:1036E0009FEFFA01E20FF31F6281681799F09F3F85
:1036F00019F4611101C0922F2F5F3F4F2630310521
:1037000081F79F3F39F0FA01E90FF11D97FDFA9516
:1037100082830895089540910C0150910D0120E09D
:1037200030E0FA01E20FF31F9281981301C0128278
:103730002F5F3F4F26303105A1F7089581E090E0DB
:10374000E0910C01F0910D01E80FF91F1082019634
:1037500088309105A9F708958091A5010895909169
:10376000A501982B9093A501089580959091A501AE
:1037700098239093A50108951092A5010895909122
:10378000A401982B9093A401089580959091A40191
:1037900098239093A40108951092A4010895809312
:1037A0009B01089510929B01089540910C01509146
:1037B0000D0120E030E080E0FA01E20FF31F91817B
:1037C00091118F5F2F5F3F4F27303105A9F7089583
:1037D000E0910C01F0910D018091A5018083E091B1
:1037E0000C01F0910D0180819091A401892B8083BF
:1037F00090919B01992361F0E0910C01F0910D01F2
:103800008081892B80830E94D51B811110929B019E
:1038100080910C0190910D010C944410CF93DF9393
:103820008D3B60F4883A90F5853A38F5843010F590
:10383000813009F06DC0C1E0D0E0B1C0883E98F49D
:10384000803EC0F48F3B09F063C00E94FF152FEF4C
:1038500080E792E0215080409040E1F700C00000F6
:103860000E94431E9CC0803F08F452C0C82FD0E085
:10387000D06595C0C82FD0E092C0853A09F44BC0FE
:10388000863A09F04BC0C2E8D0E489C0883A09F40E
:1038900048C0893A09F448C08A3A09F448C08B3ACA
:1038A00009F448C08C3A09F448C08B3B09F448C07D
:1038B0008C3B09F448C08D3A09F448C0803B09F4B8
:1038C00048C08E3A09F448C08F3A09F448C0813B99
:1038D00009F448C0823B09F448C0833B09F448C05E
:1038E000843B09F448C0853B09F448C0863B09F491
:1038F00048C0873B09F448C0883B09F448C0893B6D
:1039000009F448C08A3B09F048C0CAE2D6E447C07F
:10391000C0E0D0E044C0C1E8D0E441C0C3E8D0E496
:103920003EC0C2EED4E43BC0C9EED4E438C0CAEE17
:10393000D4E435C0C5EBD4E432C0C6EBD4E42FC028
:10394000C3EBD4E42CC0C4EBD4E429C0C7EBD4E46B
:1039500026C0CCECD4E423C0CDECD4E420C0C3E832
:10396000D5E41DC0CAE8D5E41AC0C2E9D5E417C041
:10397000C4E9D5E414C0C1E2D6E411C0C3E2D6E480
:103980000EC0C4E2D6E40BC0C5E2D6E408C0C6E26D
:10399000D6E405C0C7E2D6E402C0C0E0D4E4CE015C
:1039A000DF91CF9108950E947707803EA8F4803C74
:1039B00000F5813309F45CC038F4893209F452C04F
:1039C0008A3209F45BC05FC08933B1F08238A1F05C
:1039D000853309F441C057C0833E41F128F4803E4D
:1039E00099F0823EB9F04FC0863E31F1873E71F1C9
:1039F0004AC00E94890708959091B70190FD02C0C6
:103A000091FF41C080EE3FC08091B70180FFFACFA7
:103A100089E339C08091B70182FF0CC08091B70162
:103A200084FF02C080E02FC083EE2DC08091B701DB
:103A300082FFF4CF82EE27C08091B70183FF0AC0D6
:103A40008091B70184FDEECF87EE1DC08091B70154
:103A500083FFF6CF86EE17C08091B70185FF06C0C1
:103A600089E211C08091B70185FFFACF85E30BC0D1
:103A70008091B70186FF06C08AE205C08091B70138
:103A800086FFFACF81E30E940E1C0895089590935B
:103A900033018093320108958295982F9C7C9695EE
:103AA0009695837344E0849F90011124922B892F73
:103AB0008A7A86959575990F892B08951F93CF93D0
:103AC000DF931F92CDB7DEB799830E944C1D182F4C
:103AD0009981892F0E944C1D212F30E0322F2227FF
:103AE000A901482BCA010F90DF91CF911F91089532
:103AF0008091BC01843009F11092A70120E488E193
:103B000090E00FB6F894A895809360000FBE2093C4
:103B1000600083B7817F846083BF83B7816083BF88
:103B20007894889583B78E7F83BF88E10FB6F89429
:103B300080936000109260000FBE0895089508956C
:103B4000CF930E949E1D0E94BA070E949F1DC0E055
:103B50008C2F0E946C08811105C0CF5FC630C1F761
:103B600080E001C081E0CF9108950C94FF151F9271
:103B70000F920FB60F9211248F939F93AF93BF9321
:103B80008091A701811113C08091A8019091A90192
:103B9000A091AA01B091AB014196A11DB11D8093E6
:103BA000A8019093A901A093AA01B093AB01BF9182
:103BB000AF919F918F910F900FBE0F901F9018950E
:103BC00082E084BD93E095BD9AEF97BD80936E002F
:103BD00008952FB7F8948091A8019091A901A09120
:103BE000AA01B091AB012FBF0895CF92DF92EF925F
:103BF000FF920F931F932FB7F8944091A801509113
:103C0000A9016091AA017091AB012FBF6A017B01EC
:103C1000EE24FF248C0120E030E0C016D106E2063D
:103C2000F30610F441505109481B590BCA011F916A
:103C30000F91FF90EF90DF90CF9008951F920F9219
:103C40000FB60F9211248F939F93AF93BF938091E0
:103C5000A8019091A901A091AA01B091AB01019690
:103C6000A11DB11D8093A8019093A901A093AA0161
:103C7000B093AB01BF91AF919F918F910F900FBE09
:103C80000F901F9018950E945C0DF8942FEF87EA13
:103C900091E6215080409040E1F700C0000087E0AD
:103CA00090EBDC018093C5019093C601A093C701FE
:103CB000B093C8012CE088E190E00FB6F894A89585
:103CC000809360000FBE20936000FFCFEF92FF92C1
:103CD0000F931F93CF93DF93E82EF12C8F2D0E942B
:103CE0006C08C0E0D0E0082F10E098010C2E02C054
:103CF000359527950A94E2F720FD05C02196C83036
:103D0000D10599F709C06C2F7F2D80E00E947707BD
:103D1000E812F4CF81E005C0F39486E0F812DECF1C
:103D200080E0DF91CF911F910F91FF90EF90089568
:103D3000CF93C82F8CE20E94661E882321F08C2F1F
:103D4000CF910C94661E80E0CF910895CF930E948E
:103D5000EC1F811102C00E94D21F83EE94E00E94EA
:103D60008806C5E6C15049F00E94BA078FE39CE976
:103D70000197F1F700C00000F5CF8CED94E00E94B0
:103D8000880689E20E94981E81110AC18AE20E9477
:103D9000981E81110E94D21F85E00E94981E8111F9
:103DA0000E94431E0E94F71F8093A60187E00E9495
:103DB000981E882399F18BE10E94981E882351F068
:103DC0009091A60191FB882780F921E0822780FB52
:103DD00091F922C08EE00E94981E882351F09091A4
:103DE000A60192FB882780F921E0822780FB92F9C7
:103DF00013C080E10E94981E9091A601882341F093
:103E000093FB882780F921E0822780FB93F904C087
:103E1000892F809580FB90F99093A6018091A6014F
:103E20000E94FB1F0E9409208093B70180EE0E9430
:103E3000981E882341F08091B701982F909590FBB0
:103E400080F98093B70189E30E94981E882359F076
:103E50009091B70191FB882780F921E0822780FBB0
:103E600091F99093B70182EE0E94981E882359F031
:103E70009091B70192FB882780F921E0822780FB8F
:103E800092F99093B70186EE0E94981E882359F00C
:103E90009091B70193FB882780F921E0822780FB6E
:103EA00093F99093B70183EE0E94981E882359F0EE
:103EB0009091B70194FB882780F921E0822780FB4D
:103EC00094F99093B70185E30E94981E882359F0D6
:103ED0009091B70195FB882780F921E0822780FB2C
:103EE00095F99093B70181E30E94981E882359F0B9
:103EF0009091B70196FB882780F921E0822780FB0B
:103F000096F99093B70181E10E94981E882359F099
:103F10009091B70197FB882780F921E0822780FBE9
:103F200097F99093B7018091B7010E940D2087E225
:103F30000E94981EC82F8EE10E94981E8111C260B7
:103F40008FE10E94981E8111C46080E20E94981E39
:103F50008111C86081E20E94981E8111C06182E2D5
:103F60000E94981E8111C06283E20E94981E8111F6
:103F7000C06484E20E94981E882311F0C06802C0C9
:103F8000CC2329F08C2F0E9404206C2F03C00E94A8
:103F90000020682F70E080E090E0CF910C94FB1936
:103FA000CF9108956DEE7EEF80E090E00E9433297E
:103FB00060E082E090E00E94252960E083E090E0EC
:103FC0000E94252960E084E090E00E94252960E0BD
:103FD00085E090E00C94252980E090E00E941F2964
:103FE00021E08D3E9E4F09F020E0822F089582E06F
:103FF00090E00C941729682F82E090E00C9425291A
:1040000083E090E00C941729682F83E090E00C94F3
:10401000252984E090E00C941729682F84E090E033
:104020000C9425298091AE0180FF0BC06091110195
:1040300085E0689FB0011124759567957595679522
:104040002AC081FF09C06091110185E0689FB0011D
:104050001124759567951FC082FF07C060911101FB
:1040600085E0689FB001112416C04091AF01442340
:10407000C9F060911001461788F72091110185E081
:10408000289F90011124429FC001439F900D11244D
:1040900070E00E94E9286038710540F461157105EF
:1040A00039F002C065E070E0862F08958FE708952B
:1040B00081E008958091AE0180FF08C060910F01FA
:1040C00070E0759567957595679521C081FF06C06D
:1040D00060910F0170E07595679519C082FF04C06B
:1040E00060910F0170E010C08091AF018823C1F092
:1040F00060910E018617A0F790910F01989FC00163
:10410000112470E00E94E9286038710528F46115D7
:10411000710521F0862F08958FE7089581E00895B5
:1041200061E070E0F4CF803F21F40E94122081957D
:1041300004C0813F29F40E9412208093B2010895A7
:10414000823F21F40E941220819504C0833F29F40C
:104150000E9412208093B1010895893F19F40E94B2
:104160005A2005C08A3F31F40E945A2081958093DD
:10417000B30108958B3F21F40E945A20819504C019
:104180008C3F29F40E945A208093B4010895843F03
:1041900021F48091B001816017C0853F21F48091A6
:1041A000B001826011C0863F21F48091B00184602B
:1041B0000BC0873F21F48091B001886005C0883F23
:1041C00031F48091B00180618093B00108958D3FFA
:1041D00021F48091AE0181600BC08E3F21F480916B
:1041E000AE01826005C08F3F29F48091AE018460EA
:1041F0008093AE010895803F39F48091B20187FF2A
:104200006CC01092B20169C0813F29F48091B20163
:104210001816BCF362C09091B101823F29F497FF58
:104220005CC01092B10159C0833F19F41916CCF348
:1042300054C0893F41F48091B30118160CF04DC071
:104240001092B3014AC08A3F29F48091B30187FFDD
:1042500044C0F6CF8B3F39F48091B40187FF3DC055
:104260001092B4013AC08C3F29F48091B401181621
:10427000BCF333C0843F21F48091B0018E7F17C01E
:10428000853F21F48091B0018D7F11C0863F21F4DC
:104290008091B0018B7F0BC0873F21F48091B001EA
:1042A000877F05C0883F31F48091B0018F7E809375
:1042B000B00113C08D3F21F48091AE018E7F0BC001
:1042C0008E3F21F48091AE018D7F05C08F3F29F490
:1042D0008091AE018B7F8093AE018091B1018111FD
:1042E0000EC08091B20181110AC08091B301811189
:1042F00006C08091B401811102C01092AF010895EF
:104300008091A60183FF7EC08FE195E00E94880620
:104310008091B0011F928F938AE195E09F938F93D4
:104320000E94210788E195E00E9488062091B10152
:10433000822F992787FD90959F932F9385E195E094
:104340009F938F930E94210783E195E00E94880646
:104350002091B201822F992787FD90959F932F93EB
:1043600080E195E09F938F930E9421078EE095E076
:104370000E9488062091B301822F992787FD90958E
:104380009F932F938BE095E09F938F930E9421073B
:1043900089E095E00E9488062091B401822F992738
:1043A00087FD90959F932F9386E095E09F938F9341
:1043B0000E94210783E095E00E9488068091AF016A
:1043C0001F928F9380E095E09F938F930E94210727
:1043D0008EEF94E00E9488068091AE011F928F9329
:1043E0008BEF94E09F938F930E94210788EF94E0D6
:1043F0000E9488068DB79EB74C960FB6F8949EBF64
:104400000FBE8DBF80EB91E00E9489100E94E91DD4
:104410009093AD018093AC0108951F93CF93DF93E8
:104420008091AC019091AD010E94F51D4091AF01CA
:10443000442321F02091120130E006C020911301A5
:104440005AE0259F900111248217930708F482C037
:104450008091B1011091B201D091B301C091B4012A
:10446000811107C0111105C0D11103C0CC2309F47B
:1044700071C04F3F19F04F5F4093AF01181624F4FD
:104480000E9412208093B1018091B10187FF05C085
:104490000E94122081958093B101111624F40E948C
:1044A00012208093B2018091B20187FF05C00E9463
:1044B000122081958093B2016091B101662339F198
:1044C0001091B201112319F1772767FD7095872F9D
:1044D000972F0E94EE2723E333E343E35FE30E9439
:1044E00052280E94BB276093B101612F772767FD97
:1044F0007095872F972F0E94EE2723E333E343E342
:104500005FE30E9452280E94BB276093B2011D16F0
:1045100024F40E945A208093B3018091B30187FF55
:1045200005C00E945A2081958093B3011C1624F483
:104530000E945A208093B4018091B40187FF05C086
:104540000E945A2081958093B401DF91CF911F91F1
:104550000C948021DF91CF911F910895E0EBF1E061
:1045600085E0DF011D928A95E9F71092AF01109264
:10457000AE01089582E497E00E9488061F9281E0D0
:104580008F931F9285E08F9384EF96E09F938F9394
:104590000E9421070F900F900F900F900F900F9097
:1045A00008958330E9F128F4813061F0823009F117
:1045B0000895853009F462C008F449C0863009F4D2
:1045C00074C0089520911301862F90E0820F911DF1
:1045D0008F3F910520F4620F6093130103C08FEFAA
:1045E00080931301809113011F928F938DE296E0C7
:1045F00072C020911201862F90E0820F911D8F3F93
:10460000910520F4620F6093120103C08FEF809335
:104610001201809112011F928F938BE196E05BC093
:1046200020911101862F90E0820F911D8F3F9105FF
:1046300020F4620F6093110103C08FEF809311018A
:10464000809111011F928F9388E096E044C02091E1
:104650001001862F90E0820F911D8F3F910520F46D
:10466000620F6093100103C08FEF8093100180915F
:1046700010011F928F9383EF95E02DC020910F01C1
:10468000862F90E0820F911D8F3F910520F4620FDD
:1046900060930F0103C08FEF80930F0180910F0192
:1046A0001F928F938AED95E016C020910E01862F00
:1046B00090E0820F911D8F3F910520F4620F60936F
:1046C0000E0103C08FEF80930E0180910E011F92A7
:1046D0008F938FEB95E09F938F930E9421070F900C
:1046E0000F900F900F900895833081F128F481305E
:1046F00059F08230D1F00895853009F449C0B8F1FD
:10470000863009F456C0089580911301681720F48B
:10471000861B8093130102C0109213018091130134
:104720001F928F9380EB95E054C08091120168171F
:1047300020F4861B8093120102C010921201809116
:1047400012011F928F938EE995E043C08091110171
:10475000681720F4861B8093110102C0109211018A
:10476000809111011F928F938BE895E032C0809168
:104770001001681720F4861B8093100102C010926C
:104780001001809110011F928F9386E795E021C060
:1047900080910F01681720F4861B80930F0102C0DF
:1047A00010920F0180910F011F928F938DE595E07C
:1047B00010C080910E01681720F4861B80930E01B3
:1047C00002C010920E0180910E011F928F9382E41D
:1047D00095E09F938F930E9421070F900F900F9069
:1047E0000F900895CF93C82F1F928F9327E438E03E
:1047F0003F932F930E94210761E070E080E090E0FA
:1048000004C0660F771F881F991FCA95D2F70E94B0
:10481000FB190F900F900F900F90CF910C94FF15F4
:10482000CF938732B0F58E3108F043C28E3009F451
:10483000BDC100F5873009F48DC1A8F4863009F0B8
:104840003CC28091A601817F8E7F8093A6018CE47B
:1048500098E00E9488068CE59CE00E94880681E032
:104860008093B60175C1883009F43FC08B3009F4DC
:104870006BC123C2863109F4DDC120F4803109F413
:10488000A8C11BC2893109F4BEC18B3109F47BC1B7
:1048900014C2883309F458C150F4893209F407C2AC
:1048A000853309F404C2873209F007C200C2833499
:1048B00009F4FDC128F48A3308F4FFC18953FAC111
:1048C000883409F0FAC10E94FF158BE49CE00E9435
:1048D00088069FEF23ED80E3915020408040E1F770
:1048E00000C000000E94431E33C180E69CE00E948D
:1048F000880683E49AE00E9488060E9400201F92A6
:104900008F9380E49AE09F938F930E9421078EE318
:104910009AE00E9488060E94F71FC82F8BE29AE057
:104920000E9488061F92CF9326E23AE03F932F938E
:104930000E94210784E29AE00E9488068AE19AE0B8
:104940000E9488068C2F81701F928F9327E13AE096
:104950003F932F930E94210785E19AE00E948806E9
:104960008BE09AE00E948806C1FB882780F91F929D
:104970008F9328E03AE03F932F930E94210786E02F
:104980009AE00E9488068AEF99E00E948806C2FB9E
:10499000882780F91F928F9327EF39E03F932F9359
:1049A0000E94210785EF99E00E9488068CEE99E02D
:1049B0000E948806C3FBCC27C0F91F92CF9389EED3
:1049C00099E09F938F930E94210787EE99E00E94C0
:1049D00088060E940920C82F83ED99E00E9488066E
:1049E0001F92CF932EEC39E03F932F930E94210723
:1049F0008CEC99E00E94880683EB99E00E9488067F
:104A00008C2F81701F928F9320EB39E03F932F936F
:104A10000E9421078DB79EB780960FB6F8949EBF6F
:104A20000FBE8DBF8EEA99E00E94880687E999E063
:104A30000E948806C1FB882780F91F928F9324E982
:104A400039E03F932F930E94210782E999E00E9469
:104A5000880680E899E00E948806C2FB882780F9D2
:104A60001F928F932DE739E03F932F930E942107E8
:104A70008BE799E00E94880689E699E00E94880603
:104A8000C3FB882780F91F928F9326E639E03F9376
:104A90002F930E94210784E699E00E9488068AE508
:104AA00099E00E948806C4FB882780F91F928F93A3
:104AB00027E539E03F932F930E94210785E599E090
:104AC0000E94880683E499E00E948806C5FB882737
:104AD00080F91F928F9320E439E03F932F930E9437
:104AE00021078EE399E00E94880682E299E00E9405
:104AF0008806C6FB882780F91F928F932FE139E043
:104B00003F932F930E9421078DE199E00E94880630
:104B100085E199E00E948806C7FBCC27C0F91F9267
:104B2000CF9382E199E09F938F930E94210780E1C8
:104B300099E00E9488068DB79EB74C960FB6F89400
:104B40009EBF0FBE8DBF04C083E798E00E94880619
:104B5000C1E0B8C08091A601C82FC17080FF09C014
:104B60008EE39CE00E9488068091A601817F8E7F63
:104B700044C082E39CE00E9488068091A601816087
:104B80008093A601E5CF8091A60181FBCC27C0F9D7
:104B900091E0C927C0FB81F98093A601CC2319F0CD
:104BA00085E29CE025C087E19CE0D0CF8091A60102
:104BB00082FBCC27C0F991E0C927C0FB82F9809322
:104BC000A601CC2319F088E09CE012C088EF9BE09E
:104BD000BDCF8091A60183FBCC27C0F991E0C92706
:104BE000C0FB83F98093A601CC2351F08CEE9BE0AF
:104BF0000E9488068091A60181608093A60162C010
:104C00008FED9BE0A3CF80ED9BE00E94880682EAB7
:104C10009BE00E94880683E59BE00E94880686E26E
:104C20009BE00E94880686EE9AE00E9488068BEB45
:104C30009AE08CCF8DEA9AE00E9488060E94381094
:104C40001F928F9383E99AE09F938F930E9421078D
:104C500080910B011F928F938CE79AE09F938F9323
:104C60000E94210780914D011F928F9389E69AE05F
:104C70009F938F930E9421078091A8019091A90191
:104C8000A091AA01B091AB01BF93AF939F938F9373
:104C900085E59AE09F938F930E9421078DB79EB779
:104CA00042960FB6F8949EBF0FBE8DBF51CF80E0E5
:104CB00001C08D510E94F2234BCF83E59AE00E9400
:104CC0008806C0E08C2FCF91089580E0089580E0A1
:104CD0000895CF93C82F8091B601813071F020F0F4
:104CE000823009F448C03FC1A0910C01B0910D0180
:104CF0008C91823209F039C107C0A0910C01B091AA
:104D00000D018C91823249F48C2F0E94652681110D
:104D10002FC08C2F0E9410242CC08C2F0E9467263D
:104D2000811126C0C431E1F070F4CB3081F0C03184
:104D3000D1F40E94BA228FE398E00E94880682E0B4
:104D40008093B60115C0C93259F0C83361F48CE4C0
:104D500098E00E94880683E498E00E94880608C0D4
:104D60001092B60104C18DE398E00E948806FFC04E
:104D700081E08170FEC0C43228F5CE3108F0C1C098
:104D8000CB30A1F1D0F4C73009F0D3C08EE18093CD
:104D9000130182E3809312018AE08093110184E180
:104DA0008093100188E080930F0188E280930E01C8
:104DB00083EE96E00E948806BFC0C33149F1C4313A
:104DC000C1F0B7C0CB3409F4A9C028F4C93289F0C6
:104DD000C83361F0AEC0C13509F49EC0C23509F4D4
:104DE00099C0CE3409F0A5C06AE09EC00E94BA22E4
:104DF000A3C08091B501882319F01092B5019CC021
:104E000080EF96E00E94880681E08093B601B1C0F1
:104E10008AEC96E00E94880688EB96E00E9488065D
:104E2000809113011F928F9385EB96E09F938F9350
:104E30000E94210783EB96E00E94880681EA96E0B3
:104E40000E948806809112011F928F938EE996E04E
:104E50009F938F930E9421078CE996E00E94880619
:104E60008DE896E00E948806809111011F928F9331
:104E70008AE896E09F938F930E94210788E896E046
:104E80000E94880687E796E00E94880680911001BC
:104E90001F928F9384E796E09F938F930E94210740
:104EA00082E796E00E9488068DE596E00E948806DB
:104EB00080910F011F928F938AE596E09F938F93C5
:104EC0000E94210788E596E00E94880681E496E02A
:104ED0000E94880680910E011F928F938EE396E0C8
:104EE0009F938F930E9421078CE396E00E9488068F
:104EF0008DB79EB748960FB6F8949EBF0FBE8DBF74
:104F00001BC0CE51EC2FF0E0E85DFE4F8081809316
:104F1000B50112C061E003C061E006C06AE08091A3
:104F2000B5010E94D12208C08091B5010E9474236E
:104F300003C081EE96E013C08091B501882369F02B
:104F40001F928F938BED96E09F938F930E94210782
:104F50000F900F900F900F9004C088ED96E00E9484
:104F6000880681E006C01092B60180E002C080E0B1
:104F700000CFCF91089504D06894B1118DC00895E9
:104F800070D088F09F5790F0B92F9927B751A0F0B3
:104F9000D1F0660F771F881F991F1AF0BA95C9F7CD
:104FA00012C0B13081F077D0B1E0089574C0672F9E
:104FB000782F8827B85F39F0B93FCCF3869577957D
:104FC0006795B395D9F73EF4909580957095619566
:104FD0007F4F8F4F9F4F0895E89409C097FB3EF491
:104FE00090958095709561957F4F8F4F9F4F992336
:104FF000A9F0F92F96E9BB279395F69587957795B4
:105000006795B795F111F8CFFAF4BB0F11F460FF73
:105010001BC06F5F7F4F8F4F9F4F16C0882311F0CB
:1050200096E911C0772321F09EE8872F762F05C0DF
:10503000662371F096E8862F70E060E02AF09A957A
:10504000660F771F881FDAF7880F9695879597F96F
:10505000089557FD9058440F551F59F05F3F71F068
:105060004795880F97FB991F61F09F3F79F08795CF
:105070000895121613061406551FF2CF4695F1DF58
:1050800008C0161617061806991FF1CF86957105E8
:10509000610508940895E894BB2766277727CB011C
:1050A00097F908950BD078C069D028F06ED018F029
:1050B000952309F05AC05FC01124EECFCADFA0F3D8
:1050C000959FD1F3950F50E0551F629FF001729F9D
:1050D000BB27F00DB11D639FAA27F00DB11DAA1FBC
:1050E000649F6627B00DA11D661F829F2227B00D09
:1050F000A11D621F739FB00DA11D621F839FA00D94
:10510000611D221F749F3327A00D611D231F849FE3
:10511000600D211D822F762F6A2F11249F5750403A
:105120008AF0E1F088234AF0EE0FFF1FBB1F661FD5
:10513000771F881F91505040A9F79E3F510570F08E
:1051400014C0AACF5F3FECF3983EDCF386957795C9
:105150006795B795F795E7959F5FC1F7FE2B880F89
:10516000911D9695879597F9089597F99F6780E81F
:1051700070E060E008959FEF80EC089500240A94A9
:105180001616170618060906089500240A94121622
:105190001306140605060895092E0394000C11F455
:1051A000882352F0BB0F40F4BF2B11F460FF04C002
:1051B0006F5F7F4F8F4F9F4F0895991B79E004C019
:1051C000991F961708F0961B881F7A95C9F7809546
:1051D000089597FB072E16F4009407D077FD09D0A9
:1051E0000E94032907FC05D03EF4909581959F4FBE
:1051F0000895709561957F4F0895EE0FFF1F0590FC
:10520000F491E02D0994AA1BBB1B51E107C0AA1F12
:10521000BB1FA617B70710F0A61BB70B881F991F57
:105220005A95A9F780959095BC01CD010895F999FB
:10523000FECF92BD81BDF89A992780B50895A8E167
:10524000B0E042E050E00C943A29262FF999FECFC5
:105250001FBA92BD81BD20BD0FB6F894FA9AF99A93
:105260000FBE019608950E942529272F0C94262908
:10527000DC01CB01FC01F999FECF06C0F2BDE1BD16
:10528000F89A319600B40D9241505040B8F7089505
:04529000F894FFCFC0
:1052940005C008B1098E095A092709019C0128088B
:1052A400140A321E3F4D362069041C04E603C6036B
:1052B40052036B0384039D030102030405060708DC
:0252C4000900DF
:00000001FF
