:100000000C9469070C94AD070C94AD070C94AD07E4
:100010000C94AD070C94AD070C94AD070C94AD0790
:100020000C94AD070C94AD070C94F50D0C94C50E13
:100030000C94161F0C94AD070C94AD070C94AD07EF
:100040000C94AD070C94AD070C94AD070C94AD0760
:100050000C94AD070C947D1F0C94AD070C94AD0768
:100060000C94AD070C94AD070C94AD070C94AD0740
:100070000C94AD070C94AD070C94AD070C94AD0730
:100080000C94AD070C94AD070C94AD070C94AD0720
:100090000C94AD070C94AD070C94AD070C94AD0710
:1000A0000C94AD070C94AD070C94AD072D104F10B8
:1000B0003B114F103B119110B5103B110A111D114E
:1000C0006714671495149514EA1426151717171753
:1000D0003E15171735163516F1161717171705178A
:1000E000F1A1F1A2291E1F20212223242526272D3C
:1000F0002E2A002B141A0815171C180C12132F3057
:100100003165C0041607090A0B0D0E0F33340028A1
:10011000E7E11D1B061905111036373800E552C1FD
:10012000E0E2C1000000002C0000C0E450514F4C40
:100130003A3B3C3D3E3F4041424344450100394A41
:10014000524D4B01010101AFAEA8A9AAB201505115
:100150004F4E01010101ACADAB00014601010101AF
:100160000101010101010100010101010101000082
:100170000000010000010101010101010101010173
:100180000101010101010101000101010101010160
:10019000010101010101010101010101010101014F
:1001A0000101010100010101010101010101010140
:1001B0000101000101010101010000000001000036
:1001C00001010101010A002530313662003A2000A8
:1001D00025303258000A722F6320303132333435E3
:1001E000363738394142434445460A000A00253033
:1001F000325800626F756E6365213A20005B735D53
:10020000004B6579626F6172642073746172742E41
:100210000A0055534220636F6E66696775726564A4
:100220002E0A005B575D005B535D005B525D005B17
:10023000445D005B435D000E0343004D004B002016
:10024000003600300000000A0354004400750062CC
:100250000000000403090409027400040100A03234
:10026000090400000103010100092111010001221C
:100270003F000705810308000A090401000103018A
:100280000200092111010001224D00070582030827
:10029000000A090402000103000000092111010005
:1002A000012236000705830308000A09040300023F
:1002B000030000000921110100012220000705842C
:1002C00003200001070504032000011201100100B2
:1002D000000008EDFE60600100010200010631FF30
:1002E0000974A1010975150025FF95207508810283
:1002F0000976150025FF952075089102C0050109B2
:1003000080A101850216010026B7001A01002AB754
:1003100000751095018100C0050C0901A10185033C
:10032000160100269C021A01002A9C0275109501F4
:100330008100C005010902A1010901A100050919F7
:1003400001290515002501950575018102950175A5
:100350000381010501093009311581257F95027559
:1003600008810609381581257F95017508810605E4
:100370000C0A38021581257F950175088106C0C0D9
:1003800005010906A101050719E029E71500250166
:10039000950875018102950175088101050819010B
:1003A00029059505750191029501750391010507D0
:1003B000190029FF150025FF950675088100C00A60
:1003C000002530325820006B6579626F6172645F7E
:1003D0007265706F72743A20000A0025303258003E
:1003E0006B6579626F6172645F7365745F6C65647D
:1003F0003A2000646F6E652E0A00626F6F676D6150
:10040000676963207363616E3A202E2E2E200029C7
:100410000A002575002F002575005D280025640061
:100420002000256400200025640020002564007C55
:100430000025303258006D6F7573656B6579205BF0
:1004400062746E7C782079207620685D28726570F1
:100450002F61636C293A205B000A002575006D6BE3
:100460005F776865656C5F74696D655F746F5F6DFC
:100470006178203D20000A002575006D6B5F77686C
:1004800065656C5F6D61785F7370656564203D20A4
:10049000000A002575006D6B5F74696D655F746F90
:1004A0005F6D6178203D20000A002575006D6B5F4F
:1004B0006D61785F7370656564203D20000A0025DA
:1004C00075006D6B5F696E74657276616C203D209E
:1004D000000A002575006D6B5F64656C6179203DD5
:1004E00020000A002575006D6B5F776865656C5F9D
:1004F00074696D655F746F5F6D6178203D20000ADF
:10050000002575006D6B5F776865656C5F6D617860
:100510005F7370656564203D20000A002575006DDD
:100520006B5F74696D655F746F5F6D6178203D20EE
:10053000000A002575006D6B5F6D61785F737065F3
:100540006564203D20000A002575006D6B5F696EB3
:1005500074657276616C203D20000A002575006D7F
:100560006B5F64656C6179203D20000A0025750091
:10057000363A206D6B5F776865656C5F74696D6591
:100580005F746F5F6D61783A20000A002575003551
:100590003A206D6B5F776865656C5F6D61785F733E
:1005A000706565643A20000A00257500343A206DB4
:1005B0006B5F74696D655F746F5F6D61783A200081
:1005C0000A00257500333A206D6B5F6D61785F73AB
:1005D000706565643A20000A00257500323A206D86
:1005E0006B5F696E74657276616C286D73293A2051
:1005F000000A00257500313A206D6B5F64656C61FF
:1006000079282A31306D73293A20000A0A2D2D2DC0
:100610002D2D204D6F7573656B657920506172616A
:100620006D6574657273202D2D2D2D2D0A003E20D1
:10063000002575004D003F00736574206465666198
:10064000756C742076616C7565732E0A000A00253E
:10065000750073656C656374656420706172616DAB
:10066000657465723A2000433E20000A5175697432
:10067000204D6F7573656B657920436F6E736F6C7A
:10068000650A0053656520687474703A2F2F656E93
:100690002E77696B6970656469612E6F72672F7759
:1006A000696B692F4D6F7573655F6B6579730A00B0
:1006B0000A002575002C20776865656C3D0025755E
:1006C0000077686572652064656C74613A206375B3
:1006D00072736F723D000A7370656564203D20641B
:1006E000656C7461202A206D61785F737065656444
:1006F000202A2028726570656174202F2074696D2E
:10070000655F746F5F6D6178290A007067646F7749
:100710006E3A096465637265617365207061726128
:100720006D6574657273282D3130290A0070677504
:10073000703A09696E6372656173652070617261F8
:100740006D6574657273282B3130290A00646F77E8
:100750006E3A0964656372656173652070617261E8
:100760006D6574657273282D31290A0075703A0918
:10077000696E63726561736520706172616D657425
:10078000657273282B31290A00643A097365742055
:1007900064656661756C742076616C7565730A00BA
:1007A000703A097072696E7420706172616D65745F
:1007B0006572730A00363A0973656C656374206D5F
:1007C0006B5F776865656C5F74696D655F746F5F9B
:1007D0006D61780A00353A0973656C656374206D44
:1007E0006B5F776865656C5F6D61785F7370656579
:1007F000640A00343A0973656C656374206D6B5F3D
:1008000074696D655F746F5F6D61780A00333A09D2
:1008100073656C656374206D6B5F6D61785F737079
:100820006565640A00323A0973656C656374206D0E
:100830006B5F696E74657276616C286D73290A004E
:10084000313A0973656C656374206D6B5F64656C28
:100850006179282A31306D73290A004553432F717D
:100860003A09717569740A000A0A2D2D2D2D2D2063
:100870004D6F7573656B657920506172616D65743C
:100880006572732048656C70202D2D2D2D2D0A006A
:100890003F004D303E000A456E746572204D6F7505
:1008A00073656B657920436F6E736F6C650A000A20
:1008B0005175697420436F6E736F6C65204D6F6462
:1008C000650A00433E20000A0025750020746F2051
:1008D000002575007377697463685F646566617588
:1008E0006C745F6C617965723A20006D3A096D6FC6
:1008F0007573656B65790A004553432F713A097129
:100900007569740A000A0A2D2D2D2D2D20436F6E56
:10091000736F6C652048656C70202D2D2D2D2D0A70
:1009200000506175733A096A756D7020746F2062AA
:100930006F6F746C6F616465720A00436170733A23
:10094000094C6F636B204B6579626F617264284359
:1009500068696C642050726F6F66290A0050536397
:10096000723A09706F77657220646F776E2F7265C7
:100970006D6F74652077616B652D75700A00342F7B
:1009800046343A0973776974636820746F204C6148
:1009900079657234200A00332F46333A0973776938
:1009A00074636820746F204C6179657233200A008B
:1009B000322F46323A0973776974636820746F2066
:1009C0004C6179657232200A00312F46313A097341
:1009D000776974636820746F204C61796572312087
:1009E0000A00302F4631303A097377697463682002
:1009F000746F204C6179657230200A00653A097085
:100A000072696E7420656570726F6D20636F6E66BB
:100A100069670A00733A097072696E7420737461B1
:100A20007475730A00743A097072696E742074697F
:100A30006D657220636F756E740A00763A09707284
:100A4000696E742064657669636520766572736982
:100A50006F6E202620696E666F0A006D3A09746F0A
:100A600067676C65206D6F75736520646562756777
:100A70000A006B3A09746F67676C65206B65796271
:100A80006F6172642064656275670A00783A097460
:100A90006F67676C65206D61747269782064656248
:100AA00075670A00643A09746F67676C652064654E
:100AB00062756720656E61626C650A00633A09655C
:100AC0006E74657220636F6E736F6C65206D6F64FA
:100AD000650A000A0A2D2D2D2D2D20436F6D6D61A5
:100AE0006E642048656C70202D2D2D2D2D0A000A76
:100AF000002575002E6E6B726F3A20000A00257576
:100B0000002E737761705F6261636B736C617368F1
:100B10005F6261636B73706163653A20000A002550
:100B200075002E737761705F67726176655F6573BC
:100B3000633A20000A002575002E6E6F5F677569A5
:100B40003A20000A002575002E737761705F72618C
:100B50006C745F726775693A20000A002575002E73
:100B6000737761705F6C616C745F6C6775693A2054
:100B7000000A002575002E636170736C6F636B5FF4
:100B8000746F5F636F6E74726F6C3A20000A002599
:100B900075002E737761705F636F6E74726F6C5F38
:100BA000636170736C6F636B3A20000A002530320A
:100BB00058006B65796D61705F636F6E6669672E53
:100BC0007261773A20000A002575002E6D6F7573EB
:100BD000653A20000A002575002E6B6579626F6109
:100BE00072643A20000A002575002E6D61747269E6
:100BF000783A20000A002575002E656E61626C65EA
:100C00003A20000A00253032580064656275675F3B
:100C1000636F6E6669672E7261773A20000A00255D
:100C2000750064656661756C745F6C617965723AB4
:100C300020003F006B6579626F6172645F69646C6C
:100C4000653A2025580A006B6579626F6172645FAE
:100C500070726F746F636F6C3A2025580A00686F6A
:100C600073745F6B6579626F6172645F6C656473E6
:100C700028293A2025580A000A0A2D2D2D2D2D202D
:100C8000537461747573202D2D2D2D2D0A007469F8
:100C90006D65725F636F756E743A202530346C58E1
:100CA0000A004743433A20342E382E312041565211
:100CB0002D4C4942433A20312E382E3073766E2027
:100CC0004156525F415243483A20617672350A00DC
:100CD0004F5054494F4E533A204C55464120424FB5
:100CE0004F544D41474943204D4F5553454B45596E
:100CF0002045585452414B455920434F4E534F4C79
:100D00004520434F4D4D414E4420343039360A0082
:100D10004255494C443A20636630646232622D6425
:100D200069727479202830313A35363A3330204DA3
:100D300061722033312032303135290A005649445E
:100D40003A2030784645454428544475622920505D
:100D500049443A2030783630363028434D4B2036DF
:100D60003029205645523A203078303030310A0050
:100D7000444553433A20742E6D2E6B2E206B6579BB
:100D8000626F617264206669726D77617265206658
:100D90006F7220434D4B36300A000A0A2D2D2D2D3F
:100DA0002D2056657273696F6E202D2D2D2D2D0A05
:100DB000000A44454255473A206D6F7573652064BB
:100DC000697361626C65642E0A000A4445425547A6
:100DD0003A206D6F75736520656E61626C65642E77
:100DE0000A000A44454255473A206B6579626F61B3
:100DF00072642064697361626C65642E0A000A443F
:100E0000454255473A206B6579626F61726420658F
:100E10006E61626C65642E0A000A44454255473A89
:100E2000206D61747269782064697361626C6564B5
:100E30002E0A000A44454255473A206D6174726992
:100E40007820656E61626C65642E0A000A44454232
:100E500055473A20656E61626C65642E0A000A444B
:100E6000454255473A2064697361626C65642E0A95
:100E7000006E6F7420737570706F727465642E0AE3
:100E8000000A0A4A756D7020746F20626F6F746C6F
:100E90006F616465722E2E2E2000433E20000A45AD
:100EA0006E74657220436F6E736F6C65204D6F6456
:100EB000650A00556E6C6F636B65642E0A004C6F9B
:100EC000636B65642E0A006565636F6E6669673AD9
:100ED0000A0011241FBECFEFDAE0DEBFCDBF04B69B
:100EE00003FE24C08091D0019091D101A091D20144
:100EF000B091D3018730904BA740B04BB9F410921A
:100F0000D0011092D1011092D2011092D30114BEDF
:100F100084B7877F84BF88E10FB6F8948093600020
:100F2000109260000FBEE0E0F8E3099511E0A0E048
:100F3000B1E0E0EDF8E502C005900D92A233B107F3
:100F4000D9F721E0A2E3B1E001C01D92A03DB207B4
:100F5000E1F70E943E0C0C94662C0C940000FF9369
:100F6000EF93E091AF01F091B001309709F009954E
:100F7000EF91FF910895FC018591803011F0EFDF32
:100F8000FBCF0895FF27E0E230E247FF0CC0419518
:100F900097FF09C0EDE26095709580959095611D71
:100FA000711D811D911D27FF02C0219530E350E284
:100FB000AA27660F771F881F991FAA1FA41710F072
:100FC000A41B63955A95A9F7AA3008F0A95FA05D04
:100FD000AF93F395611571058105910541F7ED32E8
:100FE00011F4EF93F395F21718F43F93F395FBCFB9
:100FF0008F91B5DFFA95E1F70895E991F99185911F
:10100000803021F0853219F0AADFF9CF089520E071
:10101000E89455915532C1F3503311F468945591C9
:101020005A3348F4505390F3220F022E220F220F0E
:10103000200D250FF4CF0EF4219589919991533607
:1010400019F3533729F1533559F1BC0188279927F2
:10105000E8945C3621F489919991689455915436BD
:1010600039F446EF7EF077FF0DC08FEF9FEF0AC097
:1010700055374AE039F0583540E121F0523642E028
:1010800009F00895FF93EF937DDFEF91FF91B7CFC4
:10109000FF93EF93FC0181918030B9F360DFFBCFC8
:1010A000FF93EF9368DFF1CFDF93CF93CDB7DEB738
:1010B0002596A3DFCF91DF910895089508959FE0CD
:1010C000799FF00111249BE4899FE00DF11D11240B
:1010D000E60FF11DEC51FF4F84910895E82FF0E0E9
:1010E000EE0FFF1FE05AF04085919491089580B370
:1010F0008C7880BB81B38C7881BB08950E9477087F
:101100003E98469A8AB180778AB98BB18F688BB93D
:1011100087988F9A84B114B885B18FEF85B9ECE3C5
:10112000F1E0A2E3B1E0119211921D921D9281E0D3
:10113000E634F807C1F70895EF92FF920F931F93DB
:10114000CF93DF93C2E3D1E010E005E0EEEEEE2EA8
:10115000E1E0FE2E123071F018F4113041F004C0BD
:10116000133059F0143061F0809A88980BC0819A3E
:10117000899808C0849A8C9805C0859A8D9802C079
:10118000869A8E9880EA8A95F1F729B1332727FD50
:10119000309520953095832F881F8827881F90E0F1
:1011A0001C9B03C020E030E002C022E030E0282B8E
:1011B000392B1D9B03C040E050E002C044E050E0EA
:1011C000242B352B1E9B03C040E050E002C048E0BA
:1011D00050E0242B352B8FB1992787FD9095809572
:1011E00090958827990F881F992774E0880F991F79
:1011F0007A95E1F7282B392B369B03C060E070E02D
:1012000002C060E270E0262B372B4B9B03C060E0EE
:1012100070E002C060E470E0262B372B4A9B03C0CD
:1012200040E050E002C040E850E0242B352B499BC1
:1012300003C080E090E002C080E091E0282B392BD1
:10124000489B03C080E090E002C080E092E0282B41
:10125000392B83B1992787FD9095809590958827A4
:10126000990F881F9927982F8827990F990F282B56
:10127000392B1B9B03C040E050E002C040E058E027
:10128000242B352B1A9B03C040E050E002C040E005
:1012900050E1242B352B199B03C080E090E002C065
:1012A00080E090E2282B392B189B03C080E090E06F
:1012B00002C080E090E4282B392B88819981821725
:1012C000930741F13983288380910001882301F13C
:1012D0008091AD0180FF04C083EF91E00E94BB07C5
:1012E0008091AD0180FF0CC0809100011F928F930F
:1012F000FF92EF920E9454080F900F900F900F9062
:101300008091AD0180FF04C08CEE91E00E94BB078C
:10131000009300010E9477081F5F2296153009F0A4
:1013200019CF809100018823C1F081508093000182
:10133000882339F08FE99FE00197F1F700C00000A2
:101340000CC0ACE3B1E0E2E3F1E0819191918D93C7
:101350009D9391E0EC33F907C1F781E0DF91CF91E4
:101360001F910F91FF90EF900895E82FF0E0EE0F9E
:10137000FF1FE45CFE4F808191810895CF92DF9240
:10138000EF92FF920F931F93CF93DF9385ED91E040
:101390000E94BB07CCE3EC2EC1E0FC2EC0E0D0E005
:1013A00010EDC12E11E0D12E07EC11E0DF93CF93A9
:1013B000DF92CF920E9454088DEC91E00E94BB070F
:1013C000F701819191917F010E94BF1E9F938F939E
:1013D0001F930F930E94540885EC91E00E94BB0775
:1013E00021968DB79EB708960FB6F8949EBF0FBE94
:1013F0008DBFC530D105D1F6DF91CF911F910F91EF
:10140000FF90EF90DF90CF90089581FF02C0229A65
:1014100001C022982A9808958091500108959091D2
:10142000C701943009F04DC09091E9009F70209160
:10143000EC0020FF02C020E801C020E0292B94E04E
:101440009093E9009091EB0090FF38C09091EE00EE
:1014500097FF34C090914701992321F09091E800C3
:1014600095FF2CC01092470196E03091E80035FDC1
:1014700015C03091C701343009F53091EB0035FDCE
:101480001DC0915021F481E08093470117C0EFE91E
:10149000FFE03197F1F700C00000E7CF8093F10043
:1014A0008091E80085FD05C08091E8008E778093EB
:1014B000E8002F702093E90080E008952F702093BA
:1014C000E9008FEF0895CF93DF9300D01F92CDB73F
:1014D000DEB72091C701243019F523E029839B83CF
:1014E0008A832093E9008FEF9091E800815095FD69
:1014F00006C095ED9A95F1F700008111F5CF809126
:10150000E80085FF0DC040E050E063E070E0CE01F0
:1015100001960E94010F8091E8008E778093E80089
:101520000F900F900F90DF91CF910895CF93DF939D
:1015300000D01F92CDB7DEB72091C701243021F52E
:1015400022E029839B838A8383E08093E9008FEFE5
:101550009091E800815095FD06C095ED9A95F1F7C0
:1015600000008111F5CF8091E80085FF0DC040E0BB
:1015700050E063E070E0CE0101960E94010F80917F
:10158000E8008E778093E8000F900F900F90DF9126
:10159000CF9108952091C7012430F1F422E02093E7
:1015A000E9002FEF3091E800215035FD06C035ED00
:1015B0003A95F1F700002111F5CF2091E80025FFC1
:1015C0000BC040E050E065E070E00E94010F8091A8
:1015D000E8008E778093E8000895CF93DF93EC01C5
:1015E0008091C701843039F581E08093E9008FEF65
:1015F0009091E800815095FD06C095ED9A95F1F720
:1016000000008111F5CF8091E80085FF14C040E013
:1016100050E068E070E0CE010E94010F8091E80088
:101620008E778093E80088E0FE01A8E4B1E00190A5
:101630000D928A95E1F7DF91CF91089583E392E0CF
:101640000E94BB078091C601811109C00E947F0DD5
:101650000E94DC0D8091E20084608093E200089596
:101660008FE292E00E94BB071092C60108958BE2C0
:1016700092E00C94BB0787E292E00E94BB070C94B7
:101680005E0883E292E00E94BB070C94141F8091D5
:10169000C701843049F58091E9008F709091EC008A
:1016A00090FF02C090E801C090E0982B84E0809306
:1016B000E9008091EB0080FF14C08091EE0087FF6D
:1016C00010C08091E80085FF03C01092F100F9CFAF
:1016D0008091E80080FF05C08091E8008E778093BC
:1016E000E8009F709093E900089542E061EC81E08A
:1016F0000E94F90C42E061EC82E00E94F90C42E0A9
:1017000061EC83E00E94F90C46E261EC84E00C9409
:10171000F90C8091C901833009F453C030F4813051
:1017200071F0823009F491C008958A3009F47DC0C7
:101730008B3009F45EC0893009F09FC020C08091D1
:10174000C801813A09F099C08091E800877F8093B1
:10175000E8008091CC019091CD01892B21F060E0CF
:1017600080E090E003C068E088E491E070E00E94CF
:101770004A0F8091E8008B778093E800089580916C
:10178000C801813209F079C08091CC019091CD01DE
:10179000892B09F072C08091E800877F8093E80070
:1017A0008091E80082FD05C08091C7018111F8CFCA
:1017B00064C08091F100809350018091E8008B77A4
:1017C00058C08091C801813A09F057C08091CC017E
:1017D0009091CD01892B09F050C08091E800877F5E
:1017E0008093E8008091E80080FFFCCF80910B019E
:1017F0003BC08091C801813209F03FC08091CC018B
:101800009091CD01892BC9F58091E800877F809365
:10181000E8000E942E0D9091CA0181E0911101C053
:1018200080E080930B010C9438178091C8018132BD
:1018300021F58091E800877F8093E8000E942E0DBB
:101840008091CB018093460108958091C801813A2F
:10185000A1F48091E800877F8093E8008091E80000
:1018600080FFFCCF809146018093F1008091E800D9
:101870008E778093E8000C942E0D089584B7877FAF
:1018800084BF88E10FB6F8948093600010926000E6
:101890000FBE90E080E80FB6F894809361009093BB
:1018A00061000FBE0E947F0D0E94DC0D8091E2005E
:1018B00084608093E2008FE09AE00E94551E789445
:1018C0008091C7018430E1F782E192E00E94BB077A
:1018D0000E94E61181E091E00E94541181E092E0C3
:1018E0000E94BB078091C701853089F48DEF91E09C
:1018F0000E94BB070E94D91E8091C501882391F3E5
:101900000E94FF1E882371F30E94E30CEBCF0E941C
:101910001412E8CF292F332723303105A9F06CF4B6
:101920002130310509F442C02230310509F043C0AD
:1019300084E790E027E532E042C021323105C9F06A
:101940002232310519F137C099278130910541F0D4
:101950008230910541F0892B71F5E3E5F2E005C095
:10196000E7E4F2E002C0E7E3F2E0849190E09F0157
:1019700026C0643000F5E62FF0E0EE0FFF1FE05EBA
:10198000FE4F2081318189E090E019C0643098F4E5
:10199000E62FF0E0DF01AA0FBB1FA85EBE4F2D911E
:1019A0003C91EC5EFE4F808190E009C082E190E0C6
:1019B0002BEC32E004C080E090E020E030E0FA015F
:1019C00031832083089580E189BD82E189BD09B416
:1019D00000FEFDCF8091D8008F7D8093D80080914C
:1019E000E00082608093E0008091E00081FDFCCF08
:1019F0000895982F973058F59093E900981739F08B
:101A00007091EC002091ED005091F00003C0242F64
:101A1000762F50E021FF19C03091EB003E7F3093CC
:101A2000EB003091ED003D7F3093ED003091EB0005
:101A300031603093EB007093EC002093ED005093F5
:101A4000F0002091EE0027FF07C09F5FD3CF8F707B
:101A50008093E90081E0089580E008958091C801B5
:101A600087FD05C08091E80080FF0EC012C0809104
:101A7000E80082FD05C08091C7018111F8CF08956B
:101A80008091E8008B7708C08091C7018111EACF6F
:101A900008958091E8008E778093E8000895809102
:101AA000E4009091E50045E62091EC0020FF21C084
:101AB0002091E80020FD21C02091C701222389F058
:101AC000253089F02091EB0025FD0FC02091E40026
:101AD0003091E5002817390739F3415041F0C90129
:101AE000E3CF82E0089583E0089581E0089584E0E3
:101AF00008952091E80022FFDFCF80E008950E9442
:101B0000E80D0E94F00DE0EEF0E0808181608083BE
:101B1000E8EDF0E080818F77808319BCA7EDB0E01D
:101B20008C918E7F8C9380818F7E80831092C601F2
:101B300008950F931F93CF93DF930E94E80D0E94A7
:101B4000F00DC8EDD0E088818F7788838881806828
:101B5000888388818F7D888319BC1092C701109279
:101B6000C3011092C5011092C40100EE10E0F8010B
:101B700080818B7F808388818160888342E060E000
:101B800080E00E94F90CE1EEF0E080818E7F80839E
:101B9000E2EEF0E0808181608083808188608083D4
:101BA000F80180818E7F8083888180618883DF91C6
:101BB000CF911F910F910895E7EDF0E08081816052
:101BC000808384E082BF81E08093C6010C94990DEC
:101BD000E8EDF0E080818E7F80831092E20008952E
:101BE0001092DA001092E10008951F920F920FB642
:101BF0000F9211242F933F934F935F936F937F9393
:101C00008F939F93AF93BF93EF93FF938091E100E6
:101C100082FF0BC08091E20082FF07C08091E1004B
:101C20008B7F8093E1000E94470B8091DA0080FF58
:101C30001FC08091D80080FF1BC08091DA008E7F8A
:101C40008093DA008091D90080FF0DC080E189BDCA
:101C500082E189BD09B400FEFDCF81E08093C70118
:101C60000E941E0B05C019BC1092C7010E94300BC8
:101C70008091E10080FF19C08091E20080FF15C0D3
:101C80008091E2008E7F8093E2008091E20080618B
:101C90008093E2008091D80080628093D80019BCC4
:101CA00085E08093C7010E943B0B8091E10084FF97
:101CB0002EC08091E20084FF2AC080E189BD82E1CC
:101CC00089BD09B400FEFDCF8091D8008F7D80933F
:101CD000D8008091E1008F7E8093E1008091E20046
:101CE0008F7E8093E2008091E20081608093E20029
:101CF0008091C301811104C08091E30087FF02C07D
:101D000084E001C081E08093C7010E94410B809173
:101D1000E10083FF29C08091E20083FF25C080910C
:101D2000E100877F8093E10082E08093C7011092F9
:101D3000C3018091E1008E7F8093E1008091E200F9
:101D40008E7F8093E2008091E20080618093E200C8
:101D500042E060E080E00E94F90C8091F000886031
:101D60008093F0000E94370BFF91EF91BF91AF91EC
:101D70009F918F917F916F915F914F913F912F91A3
:101D80000F900FBE0F901F9018951F920F920FB6D5
:101D90000F9211242F933F934F935F936F937F93F1
:101DA0008F939F93AF93BF93CF93EF93FF93C09184
:101DB000E900CF708091EC001092E9008091F00072
:101DC000877F8093F00078940E9403101092E900BE
:101DD0008091F00088608093F000C093E900FF914B
:101DE000EF91CF91BF91AF919F918F917F916F9123
:101DF0005F914F913F912F910F900FBE0F901F90C9
:101E00001895CF92DF92EF92FF920F931F93CF938B
:101E1000DF937C018B01EA010E944F0D811131C0DB
:101E2000209731F088819981081B190BE80EF91E63
:101E3000C12CD12C0115110519F18091E80085FD07
:101E400014C08091E8008E778093E800209741F0DD
:101E5000888199818C0D9D1D9983888385E011C0AF
:101E60000E944F0D882331F30CC0F70181917F014F
:101E70008093F10001501109FFEFCF1ADF0ADACF8A
:101E800080E0DF91CF911F910F91FF90EF90DF9055
:101E9000CF9008952091CE013091CF0126173707BA
:101EA00048F06115710539F42091E8002E772093F0
:101EB000E80001C0B901FC0120E061157105A9F13C
:101EC0008091C7018823E9F18530E9F18091E8002C
:101ED00083FD35C08091E80082FF06C08091E80054
:101EE00082FF26C080E008958091E80080FFE5CF62
:101EF0002091F3008091F20090E0922B6115710522
:101F000051F08830910538F421912093F10061500F
:101F100071090196F3CF21E0089709F020E0809144
:101F2000E8008E778093E800C8CF2111C9CFD6CFC3
:101F30008091C701882329F0853081F604C081E0B3
:101F4000089582E0089583E008952091CE013091B4
:101F5000CF012617370748F06115710539F4209134
:101F6000E8002E772093E80001C0B901FC0120E0D1
:101F700061157105C1F18091C701882309F43FC043
:101F8000853009F43EC08091E80083FD36C0809121
:101F9000E80082FF06C08091E80082FF27C080E051
:101FA00008958091E80080FFE3CF2091F3008091B5
:101FB000F20090E0922B6115710559F0883091057F
:101FC00040F424912093F1003196615071090196FB
:101FD000F2CF21E0089709F020E08091E8008E77A9
:101FE0008093E800C5CF2111C6CFD5CF8091C7011E
:101FF000882329F0853079F604C081E0089582E0D5
:10200000089583E008950F931F93CF93DF93CDB787
:10201000DEB7AA970FB6F894DEBF0FBECDBFE8ECCF
:10202000F1E08091F100819321E0E03DF207C9F7F2
:102030000E94890B8091E80083FF1DC12091C80197
:102040003091C901832F90E08A30910508F013C1C7
:10205000FC01EA5AFF4F0C941B2C203881F02238E7
:1020600009F009C18091CC018F708093E9008091C3
:10207000EB0085FB882780F91092E90006C080916B
:10208000C4019091C501911182609091E800977F01
:102090009093E8008093F1001092F100C6C0822F67
:1020A0008D7F09F0E8C0222319F0223061F0E3C0EF
:1020B0008091CA01813009F0DEC0333009F080E040
:1020C0008093C50128C08091CA01811124C020914C
:1020D000CC012F7009F4CFC02093E9008091EB0070
:1020E00080FF19C08091EB00333011F4806211C081
:1020F00080618093EB0081E090E0022E01C0880FA8
:102100000A94EAF78093EA001092EA008091EB00CB
:1021100088608093EB001092E9008091E800877F4F
:1021200087C02111A8C01091CA011F770FB7F8947A
:102130008091E800877F8093E8000E942E0D8091B7
:10214000E80080FFFCCF8091E3008078812B8093B2
:10215000E30080688093E300112311F083E001C065
:1021600082E08093C7010FBF86C02058223008F05C
:1021700082C08091CA019091CB018C3D23E09207EF
:1021800079F583E08A838AE289834FB7F894DE0188
:10219000139620E03EE051E2E32FF0E05093570029
:1021A000E49120FF03C0E295EF703F5FEF708E2F48
:1021B00090E0EA3010F0C79601C0C0968D939D93D1
:1021C0002F5F243149F74FBF8091E800877F8093CC
:1021D000E8006AE270E0CE0101960E944A0F14C046
:1021E000AE014F5F5F4F6091CC010E948A0C009757
:1021F00009F441C02091E800277F2093E800BC014A
:1022000089819A810E94A50F8091E8008B77809345
:10221000E80031C0203879F58091E800877F80930D
:10222000E8008091C3018093F1008091E8008E77EF
:102230008093E8000E942E0D1EC021111CC09091B9
:10224000CA019230C0F48091E800877F8093E80053
:102250009093C3010E942E0D8091C301811104C08F
:102260008091E30087FF02C084E001C081E0809399
:10227000C7010E94750B8091E80083FF0AC080911E
:10228000EB0080628093EB008091E800877F809371
:10229000E800AA960FB6F894DEBF0FBECDBFDF915F
:1022A000CF911F910F9108959093560180935501FE
:1022B000089580915501909156010895E09155013E
:1022C000F0915601309721F00190F081E02D0994B2
:1022D00080E00895FF920F931F93CF93DF938C01BB
:1022E000E0915501F0915601309799F10280F38108
:1022F000E02D09958091AD0182FF2BC080FF04C0C5
:1023000087EC93E00E94BB07E80188E0F82E01EC1F
:1023100013E08091AD0180FF0BC088811F928F93E5
:102320001F930F930E9454080F900F900F900F90DF
:10233000FA942196F110EDCF8091AD0180FF09C094
:102340008FEB93E0DF91CF911F910F91FF900C9451
:10235000BB07DF91CF911F910F91FF900895E091FE
:102360005501F0915601309721F00480F581E02D60
:1023700009940895209153013091540182179307D5
:1023800071F09093540180935301E0915501F091C5
:102390005601309721F00680F781E02D09940895C9
:1023A00020915101309152018217930771F090935F
:1023B000520180935101E0915501F09156013097FF
:1023C00021F00084F185E02D099408950E943F1FBB
:1023D0000E947E080C940C20CF93C82F8091AD01F1
:1023E00082FF1EC080FF04C080EE93E00E94BB0706
:1023F0008091AD0180FF0CC01F92CF932BED33E095
:102400003F932F930E9454080F900F900F900F90BE
:102410008091AD0180FF04C089ED93E00E94BB076D
:102420008C2FCF910C94050A5F926F927F928F92BE
:102430009F92AF92BF92CF92DF92EF92FF920F9353
:102440001F93CF93DF93CDB7DEB72A970FB6F894DB
:10245000DEBF0FBECDBF0E949C0898E5C92E91E05B
:10246000D92E00E010E0AA24A394B12C502E802F86
:102470000E94B5093C01F601E190F1906F01E82658
:10248000F926E114F104B1F40F5F1F4F0530110577
:1024900069F78FEF89838A831B820E94481F8160BE
:1024A000782F9D838C8349815A816B818D810E9415
:1024B000CD123AC08091AD0181FD0E94BE0920E09D
:1024C00030E04501022E02C0880C991C0A94E2F704
:1024D000C4018E219F21892B09F12E835F82682000
:1024E000792081E0672809F480E088870E94481FEE
:1024F0008160782F9A8789874E815F8168858A8578
:102500000E94CD12F801EE0FFF1FE85AFE4F8081A6
:102510009181882599259183808306C02F5F3F4F45
:102520002F30310571F6B0CF0E94732310915701FF
:102530000E945E111817D9F00E945E118093570116
:102540002A960FB6F894DEBF0FBECDBFDF91CF91B4
:102550001F910F91FF90EF90DF90CF90BF90AF90C1
:102560009F908F907F906F905F900C94EC112A96C3
:102570000FB6F894DEBF0FBECDBFDF91CF911F9194
:102580000F91FF90EF90DF90CF90BF90AF909F9012
:102590008F907F906F905F900895CF93DF93CDB72A
:1025A000DEB72B970FB6F894DEBF0FBECDBF4F83BB
:1025B000588769877A878B87DE01119686E0FD014F
:1025C00011928A95E9F785E0FE01379601900D9208
:1025D0008A95E1F749815A816B817C818D819E8149
:1025E0000E94001A2B960FB6F894DEBF0FBECDBF27
:1025F000DF91CF910895CF93C82F882309F4C1C0EC
:10260000823859F40E945E1181FDBBC089E30E94AB
:102610009B1C0E94161D89E30CC0833879F40E942C
:102620005E1180FDAEC083E50E949B1C0E94161DBA
:1026300083E50E94BC1CCF910C94161D843859F47C
:102640000E945E1182FD9DC087E40E949B1C0E9437
:10265000161D87E4EECF8CEF8C0F813A48F48C2F57
:102660000E94752981118DC08C2F0E949B1CE3CF85
:1026700080E28C0F883048F4C77081E001C0880F79
:10268000CA95EAF70E94DD1CD6CF8BE58C0F83300C
:1026900078F4C53A29F0C63A31F482E890E005C0F2
:1026A00081E890E002C083E890E0CF910C94BA11E9
:1026B00088E58C0F833108F064C0C83A39F1C93A13
:1026C00041F1CA3A49F1CB3A51F1CC3A59F1CD3AFC
:1026D00061F1C03B69F1CE3A71F1CF3A79F1C13B7A
:1026E00081F1C23B89F1C33B91F1C43B99F1C53BF8
:1026F000A1F1C63BA9F1C73BB1F1C83BB9F1C93B58
:10270000C1F1CA3BC9F58AE292E038C082EE90E09E
:1027100035C089EE90E032C08AEE90E02FC085EBA4
:1027200090E02CC086EB90E029C087EB90E026C0BB
:102730008CEC90E023C08DEC90E020C083E891E029
:102740001DC08AE891E01AC082E991E017C084E9CF
:1027500091E014C081E292E011C083E292E00EC0E9
:1027600084E292E00BC085E292E008C086E292E04B
:1027700005C087E292E002C080E090E0CF910C9427
:10278000D011CF910895882309F44BC0823859F4B1
:102790000E945E1181FF45C089E30E949B1C0E943C
:1027A000161D89E30CC0833871F40E945E1180FF0E
:1027B00038C083E50E949B1C0E94161D83E50E9481
:1027C000BC1C0C94161D843859F40E945E1182FFC3
:1027D00028C087E40E949B1C0E94161D87E4EFCF4F
:1027E0009CEF980F913A58F390E2980F983050F47C
:1027F000877091E001C0990F8A95EAF7892F0E94AE
:10280000E31CDFCF9BE5980F933020F480E090E04D
:102810000C94BA11885A833120F480E090E00C9433
:10282000D0110895882321F00E94DD1C0C94161D00
:102830000895882321F00E94E31C0C94161D08952E
:10284000CF92DF92EF92FF920F931F93CF93DF937C
:10285000CDB7DEB728970FB6F894DEBF0FBECDBF59
:102860008C0185E0F801DE01119601900D928A95A8
:10287000E1F7F80140813181F280258122952F70A6
:1028800083819481892B31F03F3F31F481E04F3FC8
:1028900019F403C081E001C080E080FDC8C2498313
:1028A0003A8389819A812F830E94591C9E8388874D
:1028B0000E94581C0E942B1B4E81E42FE295EF7062
:1028C000F0E0E05AFF4F2F8168850C941B2C842F79
:1028D000807F142F1F70882311F01295107FFF2026
:1028E00059F0112309F458C2812F68870E94ED1C0A
:1028F0000E94161D688550C2862F0E94C3131123A3
:1029000009F495C2812F0E94F31C28960FB6F89403
:10291000DEBF0FBECDBFDF91CF911F910F91FF9012
:10292000EF90DF90CF900C94161D342F307F842FC2
:102930008F70303211F08295807F662319F06130FC
:1029400009F12AC0FF20A1F0222381F1213071F585
:1029500028960FB6F894DEBF0FBECDBFDF91CF91A2
:102960001F910F91FF90EF90DF90CF900C94FD1C82
:10297000222319F0213009F45AC28E830E94001DCF
:102980008E818EC1FF2021F0263008F050C20EC08B
:10299000253008F04CC284C1FF20C1F0222331F061
:1029A000F801958190FFF8C19F70958328960FB626
:1029B000F894DEBF0FBECDBFDF91CF911F910F9175
:1029C000FF90EF90DF90CF900C941214222309F423
:1029D00067C1F6C1242F26952695237030E0211576
:1029E000310521F021303105C9F021C2FF2021F04D
:1029F000862F942F937002C080E090E028960FB647
:102A0000F894DEBF0FBECDBFDF91CF911F910F9124
:102A1000FF90EF90DF90CF900C94BA11FF2021F03F
:102A2000862F942F937002C080E090E028960FB616
:102A3000F894DEBF0FBECDBFDF91CF911F910F91F4
:102A4000FF90EF90DF90CF900C94D011862FFF2055
:102A500019F00E94F92102C00E94612228960FB647
:102A6000F894DEBF0FBECDBFDF91CF911F910F91C4
:102A7000FF90EF90DF90CF900C94E622842F83702C
:102A800009F076C0F110D3C1262F22952695277024
:102A9000220F220F862F8F70C82ED12CE12CF12C03
:102AA000022E04C0CC0CDD1CEE1CFF1C0A94D2F7D5
:102AB00064FF10C06FE070E080E090E004C0660F3B
:102AC000771F881F991F2A95D2F76095709580957A
:102AD000909503C060E070E0CB01242F26952695E9
:102AE0002370422F50E042305105D1F04330510560
:102AF00059F16C297D298E299F294130510541F1D9
:102B000028960FB6F894DEBF0FBECDBFDF91CF91F0
:102B10001F910F91FF90EF90DF90CF900C94501B7E
:102B20006C297D298E299F2928960FB6F894DEBF3F
:102B30000FBECDBFDF91CF911F910F91FF90EF900E
:102B4000DF90CF900C946A1B0E94501BC701B60106
:102B500028960FB6F894DEBF0FBECDBFDF91CF91A0
:102B60001F910F91FF90EF90DF90CF900C94361B48
:102B7000FF2019F0842F817001C08695882309F405
:102B800056C1262F229526952770220F220F862FB9
:102B90008F70C82ED12CE12CF12C022E04C0CC0C4D
:102BA000DD1CEE1CFF1C0A94D2F764FF10C06FE01E
:102BB00070E080E090E004C0660F771F881F991FC7
:102BC0002A95D2F7609570958095909503C060E046
:102BD00070E0CB01242F269526952370422F50E0DC
:102BE00042305105D1F04330510559F16C297D290E
:102BF0008E299F294130510541F128960FB6F8944E
:102C0000DEBF0FBECDBFDF91CF911F910F91FF901F
:102C1000EF90DF90CF900C94241C6C297D298E2995
:102C20009F2928960FB6F894DEBF0FBECDBFDF9167
:102C3000CF911F910F91FF90EF90DF90CF900C9468
:102C40003E1C0E94241CC701B60128960FB6F894BA
:102C5000DEBF0FBECDBFDF91CF911F910F91FF90CF
:102C6000EF90DF90CF900C940A1C603F49F118F46C
:102C7000603E48F48CC0623F09F451C0E0F1633F0C
:102C800009F461C084C0162F1F70842F8F71FF203C
:102C900021F00E94A31B812F89CE0E94C41B812F8B
:102CA00028960FB6F894DEBF0FBECDBFDF91CF914F
:102CB0001F910F91FF90EF90DF90CF900C9419141B
:102CC000FF20A9F0253008F0B2C0842F8F7128961C
:102CD0000FB6F894DEBF0FBECDBFDF91CF911F912D
:102CE0000F91FF90EF90DF90CF900C94E91B26306E
:102CF00008F09DC0EACFFF20A1F0842F8F712896A5
:102D00000FB6F894DEBF0FBECDBFDF91CF911F91FC
:102D10000F91FF90EF90DF90CF900C94A31BFF20BA
:102D200061F3842F8F7128960FB6F894DEBF0FBE23
:102D3000CDBFDF91CF911F910F91FF90EF90DF906A
:102D4000CF900C94C41BFF2091F0842F8F71289694
:102D50000FB6F894DEBF0FBECDBFDF91CF911F91AC
:102D60000F91FF90EF90DF90CF900C948E1B2896E0
:102D70000FB6F894DEBF0FBECDBFDF91CF911F918C
:102D80000F91FF90EF90DF90CF900C94841BFF2069
:102D9000A1F0222309F4B1CF862F28960FB6F8941C
:102DA000DEBF0FBECDBFDF91CF911F910F91FF907E
:102DB000EF90DF90CF900C94FB12222309F4B1CF57
:102DC000862F28960FB6F894DEBF0FBECDBFDF91D9
:102DD000CF911F910F91FF90EF90DF90CF900C94C7
:102DE000C3134F70C8010E94511E28960FB6F89465
:102DF000DEBF0FBECDBFDF91CF911F910F91FF902E
:102E0000EF90DF90CF900C94AD1A4F70C8012896C8
:102E10000FB6F894DEBF0FBECDBFDF91CF911F91EB
:102E20000F91FF90EF90DF90CF900C94541E289656
:102E30000FB6F894DEBF0FBECDBFDF91CF911F91CB
:102E40000F91FF90EF90DF90CF9008950E94FA1CB1
:102E50000E94CF1C0E94161D0E9414240E94E6228C
:102E600080E090E00E94BA1180E090E00C94D011D4
:102E70000E94EA1C0C9426170E94591C292F2295A7
:102E80002F7030E02C3031054CF42A3031056CF4D1
:102E9000225031092230310570F407C02C30310541
:102EA00031F02F30310519F006C081E0089593FB11
:102EB000882780F9089580E00895CF93DF9300D0AC
:102EC00000D01F92CDB7DEB70F900F900F900F90EC
:102ED0000F90DF91CF910895CF93DF9300D000D072
:102EE00000D0CDB7DEB726960FB6F894DEBF0FBE82
:102EF000CDBFDF91CF9108951F93CF93DF93C09102
:102F0000620116E080916301C81799F0D0E01C9F20
:102F1000F0011D9FF00D1124EC59FE4F40815181AD
:102F200062817381848195810E946C172196C7709C
:102F3000E9CFDF91CF911F91089540919401509175
:102F400095016091960170919701809198019091FF
:102F500099010C946C17CF938091990182958F7091
:102F600009F05FC080919601882309F45AC020912E
:102F70006201A0916301609194017091950180912B
:102F800097019091980131E06F3F09F030E0B32F45
:102F9000C6E02A1709F445C0009721F07F3F21F4CD
:102FA0004B2F03C041E001C040E030E040FD35C0A0
:102FB000C29FF001C39FF00D1124EC59FE4F4181D7
:102FC00074132BC04081641328C04281411125C075
:102FD000438154814817590710F441505109481B47
:102FE000590B483C5105C8F4809199018F7080615C
:102FF0008093990186E0829FF001839FF00D112458
:10300000E759FE4F80818F708061808384E991E071
:103010000E942014CF910C947C172F5F3F4F277094
:10302000B8CFCF910895CF92DF92EF92FF920F9396
:103030001F93CF93DF93CDB7DEB762970FB6F894A7
:10304000DEBF0FBECDBF8C0185E0F801DE011D960D
:1030500001900D928A95E1F7D8014C9111965C91FF
:10306000119712966C9112971396ED90FC9014970D
:1030700070919401E0919501209197013091980110
:103080002115310531F0EF3F31F481E07F3F19F434
:1030900003C081E001C080E0B82FB170CB2E80FD6D
:1030A0006CC1D0909601DD2009F4F5C0F091990132
:1030B000E216F30638F0C701821B930B883C91059A
:1030C00048F09BC0209530952E0D3F1D283C3105C2
:1030D00008F093C08F2F807F09F052C0E51314C011
:1030E000741312C0D62E61110FC0FF70F061F093FF
:1030F00099010E949D1784E991E00E94201480911B
:103100009901F80185836CC1EF2831F05F3F31F4FC
:1031100081E04F3F19F403C081E001C080E080FDF1
:1031200003C081E0862701C080E0F82FF170FF2EF8
:1031300080FF1CC0809162012091630136E08217FC
:1031400009F428C190E0389FF001399FF00D112457
:10315000EC59FE4F7181571306C07081471303C0AD
:103160007281671303C001968770E9CFD62E66235C
:1031700009F436C18091990181608093990153C00F
:10318000E51308C0741306C0611104C0D801159678
:10319000FC93AEC04D875E878D859E856A8B0E94AD
:1031A0003C176A89882329F1D62E662311F12091D4
:1031B0009901822F82958F7090E002970CF460C085
:1031C000809194019091950198878F831986FB8651
:1031D000EA862C87CE01079651C0E51731F14D875D
:1031E0005E878D859E856A8B0E943C176A89811156
:1031F0002EC0C8010E942014A4C08F2F807F69F7C1
:103200007E2DF98AE88A89890E945D1784E991E018
:103210000E942014E4E9F1E086E0DF011D928A9526
:10322000E9F70E949D17D12CDBC07413D8CF611130
:10323000D6CFD8011596FC93C8010E942014E4E96A
:10324000F1E086E0DF011D928A95E9F7C9C0D62E2C
:10325000662379F220919901822F82958F7090E0F8
:10326000029774F080919401909195019A838983DB
:103270001B82FD82EC822E83CE0101960E942014D7
:1032800086E0F801A4E9B1E001900D928A95E1F79A
:103290000E94AB176FC0E216F30628F0C701821B2D
:1032A000930B9C0104C0209530952E0D3F1D283CAA
:1032B000310508F052C0D62E662309F49ACFE513E3
:1032C0002CC074132AC08091990180FD1DC0982FD5
:1032D00092959F70C9F0D80115968C9315979F30E1
:1032E00039F09F5F9295907F8F70892B15968C9304
:1032F000C8010E94201486E0F801A4E9B1E0019021
:103300000D928A95E1F736C086E0F801A4E9B1E0B4
:1033100001900D928A95E1F763C04D875E878D8598
:103320009E850E943C17882379F086E0F801A4E985
:10333000B1E001900D928A95E1F70E94AB170E94CF
:103340009D17DD24D3944CC08091990181608093B6
:103350009901C8010E94201443C07E2DF98AE88A91
:1033600089890E945D17E4E9F1E086E0DF011D92A2
:103370008A95E9F70E949D1733C0662309F439CF77
:103380004D875E878D859E850E943C17882309F4B2
:1033900030CFCBCF4D875E878D859E850E94591C8F
:1033A000292F22952F7030E0223031052CF49F70A8
:1033B00041F0811106C00CC0243031052CF49F70FF
:1033C00049F4805E883020F0C8010E942014CF2C80
:1033D000DC2C06C0D80115969C91907F91F7F8CF10
:1033E0008D2D62960FB6F894DEBF0FBECDBFDF9174
:1033F000CF911F910F91FF90EF90DF90CF900895A4
:103400001F93CF93DF93CDB7DEB72C970FB6F89409
:10341000DEBF0FBECDBF4F83588769877A878B8702
:103420009C87CE0107960E9413188823C1F02F8134
:1034300038858A859B85892B31F03F3F11F080E0EC
:1034400003C02F3FE1F781E0811147C04F815885CC
:1034500069857A858B859C850E946C173EC086E0C5
:10346000FE013796DE01119601900D928A95E1F7E3
:10347000FF81E8854A855B854115510531F0EF3FB5
:1034800031F481E0FF3F19F403C081E001C080E026
:1034900080FD23C02091630130E0C901019687704F
:1034A00099276091620170E086179707F1F1F9831F
:1034B000EA835D834C8396E0929FD001939FB00D89
:1034C0001124AC59BE4FFE01319601900D929A9590
:1034D000E1F7809363010E947C1716E080916201FE
:1034E00090916301891779F1189FC00111248C59BB
:1034F0009E4F0E941318882331F1E09162011E9FB4
:10350000F0011124EC59FE4F408151816281738199
:10351000848195810E946C178091620190E00196F0
:103520008770992780936201D9CF0E943817109233
:10353000630110926201E4E9F1E086E0DF011D928F
:103540008A95E9F7CACF2C960FB6F894DEBF0FBE66
:10355000CDBFDF91CF911F910895EF92FF920F930E
:103560001F93CF93DF93FC01009709F46DC0F12CFA
:10357000EE24E394EF0121968491843740F4843063
:1035800008F053C0813081F0823021F15DC0853771
:1035900009F445C0B0F19CE7980F903708F054C08B
:1035A0008F770E94C31343C08F010E5F1F4FFE0130
:1035B000849190E2980F983050F48770FE2D01C0EE
:1035C000FF0F8A95EAF78F2F0E94ED1C15C00E940D
:1035D000FB1212C08F010E5F1F4FFE01849190E21B
:1035E000980F983058F48770FE2D01C0FF0F8A9510
:1035F000EAF78F2F0E94F31CE80119C00E94C31341
:10360000FBCFCF010296FE01C491CC2361F0EFE91C
:10361000FFE03197F1F700C00000C150F6CFCF01B5
:103620000296FE01F490EC0102C00E94FB128F2D65
:10363000882341F0EFE9FFE03197F1F700C0000087
:103640008150F6CFFE0196CFDF91CF911F910F9160
:10365000FF90EF900895089560939E0170939F01ED
:103660008093A0019093A1010C9426170F931F93B0
:1036700000919E0110919F012091A0013091A10124
:10368000062B172B282B392B00939E0110939F019B
:103690002093A0013093A1011F910F910C94261744
:1036A0000F931F9300919E0110919F012091A00103
:1036B0003091A101062317232823392300939E016B
:1036C00010939F012093A0013093A1011F910F91AE
:1036D0000C9426170F931F9300919E0110919F0148
:1036E0002091A0013091A10106271727282739270B
:1036F00000939E0110939F012093A0013093A1019C
:103700001F910F910C94261710929A0110929B0111
:1037100010929C0110929D010C94261741E050E0FC
:1037200060E070E004C0440F551F661F771F8A9544
:10373000D2F740939A0150939B0160939C01709340
:103740009D010C94261741E050E060E070E004C059
:10375000440F551F661F771F8A95D2F780919A01F3
:1037600090919B01A0919C01B0919D01842B952B80
:10377000A62BB72B80939A0190939B01A0939C0159
:10378000B0939D010C94261741E050E060E070E09A
:1037900004C0440F551F661F771F8A95D2F74095C6
:1037A00050956095709580919A0190919B01A091A0
:1037B0009C01B0919D0184239523A623B723809378
:1037C0009A0190939B01A0939C01B0939D010C944E
:1037D000261741E050E060E070E004C0440F551F40
:1037E000661F771F8A95D2F780919A0190919B016D
:1037F000A0919C01B0919D0184279527A627B7270A
:1038000080939A0190939B01A0939C01B0939D019A
:103810000C9426170F931F9300919A0110919B010E
:1038200020919C0130919D01062B172B282B392BC1
:1038300000939A0110939B0120939C0130939D016A
:103840001F910F910C9426170F931F9300919A01CB
:1038500010919B0120919C0130919D01062317231B
:103860002823392300939A0110939B0120939C01F4
:1038700030939D011F910F910C9426170F931F9366
:1038800000919A0110919B0120919C0130919D0122
:10389000062717272827392700939A0110939B01A1
:1038A00020939C0130939D011F910F910C9426173A
:1038B0000895CF92DF92EF92FF920F931F93CF93D1
:1038C000DF93EC01C0909E01D0909F01E090A00199
:1038D000F090A10180919A0190919B01A0919C018F
:1038E000B0919D01C82AD92AEA2AFB2A0FE110E0EB
:1038F000B701A601002E04C07695679557954795A8
:103900000A94D2F740FF07C0BE01802F0E94DE1D3F
:103910008130910539F40150110950F7BE0180E062
:103920000E94DE1DDF91CF911F910F91FF90EF90CC
:10393000DF90CF90089540910C0150910D0120E04F
:1039400030E09FEFFA01E20FF31F6281681799F0F0
:103950009F3F19F4611101C0922F2F5F3F4F263016
:10396000310581F79F3F39F0FA01E90FF11D97FD0D
:10397000FA9582830895089540910C0150910D01AC
:1039800020E030E0FA01E20FF31F9281981301C0AA
:1039900012822F5F3F4F26303105A1F7089581E055
:1039A00090E0E0910C01F0910D01E80FF91F1082F9
:1039B000019688309105A9F708959091AC01982B54
:1039C0009093AC01089580959091AC0198239093C9
:1039D000AC0108951092AC0108959091AB01982B21
:1039E0009093AB01089580959091AB0198239093AB
:1039F000AB0108951092AB0108958093A201089540
:103A00001092A201089540910C0150910D0120E007
:103A100030E080E0FA01E20FF31F918191118F5F96
:103A20002F5F3F4F27303105A9F70895E0910C0132
:103A3000F0910D018091AC018083E0910C01F09137
:103A40000D0180819091AB01892B80839091A2011F
:103A5000992361F0E0910C01F0910D018081892B97
:103A600080830E94031D81111092A20180910C019C
:103A700090910D010C946A118B3B60F4883A00F52B
:103A8000853AA8F4843088F4813009F055C081E08B
:103A900090E00895803E08F44FC0883E30F0803FAB
:103AA00008F44AC090E09065089590E00895853A42
:103AB00009F445C0863A09F045C082E890E40895CB
:103AC000883A09F442C0893A09F442C08A3A09F4B2
:103AD00042C08B3A09F442C08C3A09F442C08D3A94
:103AE00009F442C0803B09F442C08E3A09F442C056
:103AF0008F3A09F442C0813B09F442C0823B09F489
:103B000042C0833B09F442C0843B09F442C0853B78
:103B100009F442C0863B09F442C0873B09F442C025
:103B2000883B09F442C0893B09F442C08A3B09F052
:103B300042C08AE296E4089580E090E0089581E82A
:103B400090E4089583E890E4089582EE94E4089563
:103B500089EE94E408958AEE94E4089585EB94E464
:103B6000089586EB94E4089587EB94E408958CEC33
:103B700094E408958DEC94E4089583E895E4089521
:103B80008AE895E4089582E995E4089584E995E446
:103B9000089581E296E4089583E296E4089584E22C
:103BA00096E4089585E296E4089586E296E4089501
:103BB00087E296E4089580E094E408950E945F0807
:103BC000803EA8F4803C00F5813309F45CC038F4F1
:103BD000893209F452C08A3209F45BC05FC089336C
:103BE000B1F08238A1F0853309F441C057C0833E5B
:103BF00041F128F4803E99F0823EB9F04FC0863EF4
:103C000031F1873E71F14AC00E946E08089590918B
:103C1000C20190FD02C091FF41C080EE3FC0809183
:103C2000C20180FFFACF89E339C08091C20182FFCF
:103C30000CC08091C20184FF02C080E02FC083EEDF
:103C40002DC08091C20182FFF4CF82EE27C0809107
:103C5000C20183FF0AC08091C20184FDEECF87EECE
:103C60001DC08091C20183FFF6CF86EE17C0809100
:103C7000C20185FF06C089E211C08091C20185FFA3
:103C8000FACF85E30BC08091C20186FF06C08AE2AD
:103C900005C08091C20186FFFACF81E30E943C1DDE
:103CA000089580E090E0089508959093B001809386
:103CB000AF010895CF92DF92EF92FF920F931F937F
:103CC0006C01EE24FF24C114D104E104F10421F4B9
:103CD0006B017C0180E001C080E133272F2D1E2D78
:103CE0000D2D011511052105310519F0885F6801B9
:103CF000790197018601A4E03695279517950795D8
:103D0000AA95D1F7011511052105310519F08C5F30
:103D10006801790197018601F2E03695279517959C
:103D20000795FA95D1F7011511052105310519F00F
:103D30008E5F68017901B701A60176956795579561
:103D40004795452B462B472B09F08F5F1F910F910D
:103D5000FF90EF90DF90CF9008958295982F9C7CF4
:103D600096959695837344E0849F90011124922B3D
:103D7000892F8A7A86959575990F892B08951F93B7
:103D8000CF93DF931F92CDB7DEB799830E94AD1E0C
:103D9000182F9981892F0E94AD1E212F30E0322FDC
:103DA0002227A901482BCA010F90DF91CF911F91C3
:103DB00008958091C701843009F11092AE0120E48A
:103DC00088E190E00FB6F894A895809360000FBE4C
:103DD0002093600083B7817F846083BF83B7816055
:103DE00083BF7894889583B78E7F83BF88E10FB6B1
:103DF000F89480936000109260000FBE0895CF93F6
:103E00000E945D080E949C080E945E08C0E08C2F02
:103E10000E94B509892B29F4CF5FC530C1F780E036
:103E200001C081E0CF9108950C9438171F920F9232
:103E30000FB60F9211248F939F93AF93BF938091EE
:103E4000AE01811113C08091B1019091B201A09196
:103E5000B301B091B4014196A11DB11D8093B10190
:103E60009093B201A093B301B093B401BF91AF910D
:103E70009F918F910F900FBE0F901F90189582E029
:103E800084BD93E095BD9AEF97BD80936E00089531
:103E90002FB7F8948091B1019091B201A091B30134
:103EA000B091B4012FBF0895CF92DF92EF92FF92AD
:103EB0000F931F932FB7F8944091B1015091B20125
:103EC0006091B3017091B4012FBF6A017B01EE24B0
:103ED000FF248C0120E030E0C016D106E206F30694
:103EE00010F441505109481B590BCA011F910F9101
:103EF000FF90EF90DF90CF9008951F920F920FB632
:103F00000F9211248F939F93AF93BF938091B10130
:103F10009091B201A091B301B091B4010196A11D9D
:103F2000B11D8093B1019093B201A093B301B093FE
:103F3000B401BF91AF919F918F910F900FBE0F90E1
:103F40001F9018950E947F0DF8942FEF87EA91E655
:103F5000215080409040E1F700C0000087E090EBE6
:103F6000DC018093D0019093D101A093D201B09352
:103F7000D3012CE088E190E00FB6F894A8958093E7
:103F800060000FBE20936000FFCFCF92DF92EF92D0
:103F9000FF920F931F93CF93DF93C82ED12C01E094
:103FA00010E08D2D0E94B5097C01C0E0D0E09801A1
:103FB0000C2E02C0220F331F0A94E2F72E213F215C
:103FC000232B29F42196CF30D10589F709C06C2F16
:103FD0007D2D80E00E945F08C812F4CF81E005C00B
:103FE000D39485E0D812DDCF80E0DF91CF911F918F
:103FF0000F91FF90EF90DF90CF900895CF93C82F4F
:104000008CE20E94C51F882321F08C2FCF910C9445
:10401000C51F80E0CF910895CF930E945221811156
:1040200002C00E9438218AEF93E00E94BB07C5E6D8
:10403000C15049F00E949C088FE39CE90197F1F779
:1040400000C00000F5CF83EF93E00E94BB0789E238
:104050000E94FE1F81110AC18AE20E94FE1F811187
:104060000E94382185E00E94FE1F81110E94A21F3C
:104070000E945D218093AD0187E00E94FE1F88238E
:1040800099F18BE10E94FE1F882351F09091AD01C0
:1040900091FB882780F921E0822780FB91F922C0DB
:1040A0008EE00E94FE1F882351F09091AD0192FB9B
:1040B000882780F921E0822780FB92F913C080E1F4
:1040C0000E94FE1F9091AD01882341F093FB882749
:1040D00080F921E0822780FB93F904C0892F809525
:1040E00080FB90F99093AD018091AD010E94612118
:1040F0000E946F218093C20180EE0E94FE1F8823E0
:1041000041F08091C201982F909590FB80F98093A7
:10411000C20189E30E94FE1F882359F09091C201D9
:1041200091FB882780F921E0822780FB91F9909309
:10413000C20182EE0E94FE1F882359F09091C201B5
:1041400092FB882780F921E0822780FB92F99093E7
:10415000C20186EE0E94FE1F882359F09091C20191
:1041600093FB882780F921E0822780FB93F99093C5
:10417000C20183EE0E94FE1F882359F09091C20174
:1041800094FB882780F921E0822780FB94F99093A3
:10419000C20185E30E94FE1F882359F09091C2015D
:1041A00095FB882780F921E0822780FB95F9909381
:1041B000C20181E30E94FE1F882359F09091C20141
:1041C00096FB882780F921E0822780FB96F990935F
:1041D000C20181E10E94FE1F882359F09091C20123
:1041E00097FB882780F921E0822780FB97F990933D
:1041F000C2018091C2010E94732187E20E94FE1FCA
:10420000C82F8EE10E94FE1F8111C2608FE10E94C3
:10421000FE1F8111C46080E20E94FE1F8111C860F0
:1042200081E20E94FE1F8111C06182E20E94FE1F96
:104230008111C06283E20E94FE1F8111C06484E28A
:104240000E94FE1F882311F0C06802C0CC2329F011
:104250008C2F0E946A216C2F03C00E946621682F58
:1042600070E080E090E0CF910C942C1BCF910895EA
:104270006DEE7EEF80E090E00E94512C60E082E0E5
:1042800090E00E94432C60E083E090E00E94432C89
:1042900060E084E090E00E94432C60E085E090E0E4
:1042A0000C94432C80E090E00E943D2C21E08D3E58
:1042B0009E4F09F020E0822F089582E090E00C9458
:1042C000352C682F82E090E00C94432C83E090E042
:1042D0000C94352C682F83E090E00C94432C84E000
:1042E00090E00C94352C682F84E090E00C94432CE3
:1042F0008091B70180FF0BC06091110185E0689F3C
:10430000B001112475956795759567952AC081FF51
:1043100009C06091110185E0689FB0011124759575
:1043200067951FC082FF07C06091110185E0689FFB
:10433000B001112416C04091B8014423C9F0609126
:104340001001461788F72091110185E0289F900100
:104350001124429FC001439F900D112470E00E94E0
:10436000072C6038710540F46115710539F002C001
:1043700065E070E0862F08958FE7089581E0089545
:104380008091B70180FF08C060910F0170E07595C2
:1043900067957595679521C081FF06C060910F01F3
:1043A00070E07595679519C082FF04C060910F0198
:1043B00070E010C08091B8018823C1F060910E01B7
:1043C0008617A0F790910F01989FC001112470E00B
:1043D0000E94072C6038710528F46115710521F0E1
:1043E000862F08958FE7089581E0089561E070E0D9
:1043F000F4CF803F21F40E947821819504C0813F51
:1044000029F40E9478218093BB010895823F21F412
:104410000E947821819504C0833F29F40E9478216D
:104420008093BA010895893F19F40E94C02105C004
:104430008A3F31F40E94C02181958093BC01089588
:104440008B3F21F40E94C021819504C08C3F29F448
:104450000E94C0218093BD010895843F21F4809182
:10446000B901816017C0853F21F48091B901826054
:1044700011C0863F21F48091B90184600BC0873F51
:1044800021F48091B901886005C0883F31F48091A2
:10449000B90180618093B90108958D3F21F4809125
:1044A000B70181600BC08E3F21F48091B70182601B
:1044B00005C08F3F29F48091B70184608093B701D4
:1044C0000895803F39F48091BB0187FF6CC0109242
:1044D000BB0169C0813F29F48091BB011816BCF370
:1044E00062C09091BA01823F29F497FF5CC010929C
:1044F000BA0159C0833F19F41916CCF354C0893F4F
:1045000041F48091BC0118160CF04DC01092BC0112
:104510004AC08A3F29F48091BC0187FF44C0F6CF8E
:104520008B3F39F48091BD0187FF3DC01092BD01E2
:104530003AC08C3F29F48091BD011816BCF333C0FA
:10454000843F21F48091B9018E7F17C0853F21F40B
:104550008091B9018D7F11C0863F21F48091B9010E
:104560008B7F0BC0873F21F48091B901877F05C005
:10457000883F31F48091B9018F7E8093B90113C0D7
:104580008D3F21F48091B7018E7F0BC08E3F21F4C7
:104590008091B7018D7F05C08F3F29F48091B701CD
:1045A0008B7F8093B7018091BA0181110EC08091F9
:1045B000BB0181110AC08091BC01811106C08091AC
:1045C000BD01811102C01092B80108958091AD0122
:1045D00083FF7EC086E394E00E94BB078091B9010F
:1045E0001F928F9381E394E09F938F930E945408CE
:1045F0008FE294E00E94BB072091BA01822F992795
:1046000087FD90959F932F938CE294E09F938F93D7
:104610000E9454088AE294E00E94BB072091BB01EB
:10462000822F992787FD90959F932F9387E294E09F
:104630009F938F930E94540885E294E00E94BB07E9
:104640002091BC01822F992787FD90959F932F93EE
:1046500082E294E09F938F930E94540880E294E05A
:104660000E94BB072091BD01822F992787FD90955D
:104670009F932F938DE194E09F938F930E94540812
:104680008AE194E00E94BB078091B8011F928F934A
:1046900087E194E09F938F930E94540885E194E012
:1046A0000E94BB078091B7011F928F9382E194E033
:1046B0009F938F930E9454088FE094E00E94BB0761
:1046C0008DB79EB74C960FB6F8949EBF0FBE8DBFA8
:1046D00089EB91E00E94AF110E94481F9093B601B0
:1046E0008093B50108951F93CF93DF938091B50117
:1046F0009091B6010E94541F4091B801442321F0CB
:104700002091120130E006C0209113015AE0259F4C
:10471000900111248217930708F482C08091BA0196
:104720001091BB01D091BC01C091BD01811107C0A6
:10473000111105C0D11103C0CC2309F471C04F3F42
:1047400019F04F5F4093B801181624F40E947821A5
:104750008093BA018091BA0187FF05C00E94782139
:1047600081958093BA01111624F40E9478218093D8
:10477000BB018091BB0187FF05C00E947821819514
:104780008093BB016091BA01662339F11091BB019E
:10479000112319F1772767FD7095872F972F0E94B6
:1047A000182B23E333E343E35FE30E947C2B0E9457
:1047B000E52A6093BA01612F772767FD7095872FEF
:1047C000972F0E94182B23E333E343E35FE30E9418
:1047D0007C2B0E94E52A6093BB011D1624F40E94E5
:1047E000C0218093BC018091BC0187FF05C00E945D
:1047F000C02181958093BC011C1624F40E94C02125
:104800008093BD018091BD0187FF05C00E94C0213A
:1048100081958093BD01DF91CF911F910C94E62289
:10482000DF91CF911F910895E9EBF1E085E0DF0181
:104830001D928A95E9F71092B8011092B701089578
:1048400085E099E00E94BB0788EF98E00E94BB07D3
:104850008BEE98E00C94BB0788E698E00E94BB07BB
:104860008BE598E00E94BB0780E498E00E94BB07BC
:1048700085E298E00E94BB078DE098E00E94BB07AC
:1048800083EF97E00E94BB0785ED97E00E94BB078E
:1048900085EB97E00E94BB0780EA97E00E94BB0788
:1048A00089E897E00E94BB078CE697E00E94BB076F
:1048B0008DE497E00E94BB078DE297E00E94BB0762
:1048C0008BE097E00E94BB0786ED96E00E94BB0755
:1048D00081EC96E00E94BB071F9285E08F938EEBE0
:1048E00096E09F938F930E94540885EB96E00E9478
:1048F000BB071F9281E08F9382EB96E09F938F938B
:104900000E94540880EB96E00E94BB078DB79EB7CB
:1049100008960FB6F8949EBF0FBE8DBF83E896E051
:104920000C94BB07833009F459C028F4813061F03E
:10493000823079F10895853009F49AC008F473C083
:10494000863009F4BAC0089520911301862F90E0B3
:10495000820F911D8F3F910520F4620F6093130128
:1049600003C08FEF809313018FE595E00E94BB0792
:10497000809113011F928F938CE595E09F938F9305
:104980000E9454080F900F900F900F908AE595E0C9
:10499000B8C020911201862F90E0820F911D8F3FA9
:1049A000910520F4620F6093120103C08FEF809392
:1049B00012018BE495E00E94BB07809112011F92C7
:1049C0008F9388E495E09F938F930E9454080F90F3
:1049D0000F900F900F9086E495E093C02091110105
:1049E000862F90E0820F911D8F3F910520F4620F7A
:1049F0006093110103C08FEF8093110186E395E06E
:104A00000E94BB07809111011F928F9383E395E071
:104A10009F938F930E9454080F900F900F900F90C8
:104A200081E395E06EC020911001862F90E0820F07
:104A3000911D8F3F910520F4620F6093100103C018
:104A40008FEF809310018FE195E00E94BB0780916A
:104A500010011F928F938CE195E09F938F930E949A
:104A600054080F900F900F900F908AE195E049C085
:104A700020910F01862F90E0820F911D8F3F9105AD
:104A800020F4620F60930F0103C08FEF80930F013A
:104A900084E095E00E94BB0780910F011F928F93E5
:104AA00081E095E09F938F930E9454080F900F90A0
:104AB0000F900F908FEF94E024C020910E01862F6D
:104AC00090E0820F911D8F3F910520F4620F60935B
:104AD0000E0103C08FEF80930E0187EE94E00E94D9
:104AE000BB0780910E011F928F9384EE94E09F93F9
:104AF0008F930E9454080F900F900F900F9082EEAA
:104B000094E00C94BB07833009F44DC028F4813045
:104B100061F0823049F10895853009F482C008F4CB
:104B200061C0863009F49CC0089580911301681714
:104B300020F4861B8093130102C01092130186EDAE
:104B400094E00E94BB07809113011F928F9383ED25
:104B500094E09F938F930E9454080F900F900F90B2
:104B60000F9081ED94E09AC080911201681720F4B3
:104B7000861B8093120102C01092120182EC94E015
:104B80000E94BB07809112011F928F938FEB94E0DC
:104B90009F938F930E9454080F900F900F900F9047
:104BA0008DEB94E07BC080911101681720F4861B87
:104BB0008093110102C0109211018DEA94E00E94CD
:104BC000BB07809111011F928F938AEA94E09F9313
:104BD0008F930E9454080F900F900F900F9088EAC7
:104BE00094E05CC080911001681720F4861B8093CC
:104BF000100102C01092100186E994E00E94BB07E8
:104C0000809110011F928F9383E994E09F938F937B
:104C10000E9454080F900F900F900F9081E994E03C
:104C20003DC080910F01681720F4861B80930F010F
:104C300002C010920F018BE794E00E94BB078091A5
:104C40000F011F928F9388E794E09F938F930E94A8
:104C500054080F900F900F900F9086E794E01EC0BD
:104C600080910E01681720F4861B80930E0102C00C
:104C700010920E018EE594E00E94BB0780910E0118
:104C80001F928F938BE594E09F938F930E9454081B
:104C90000F900F900F900F9089E594E00C94BB0754
:104CA000CF93C82F84ED98E00E94BB0760919E01CE
:104CB00070919F018091A0019091A1010E945A1EC4
:104CC0001F928F9321ED38E03F932F930E94540859
:104CD0008CEC98E00E94BB071F92CF9329EC38E040
:104CE0003F932F930E94540887EC98E00E94BB07E3
:104CF00061E070E080E090E004C0660F771F881FDD
:104D0000991FCA95D2F70E942C1B8DB79EB70896A3
:104D10000FB6F8949EBF0FBE8DBFCF910C9438177D
:104D2000CF93873208F065C08E3108F0CCC28E3048
:104D300009F44FC210F5873009F41FC2B8F4863069
:104D400009F0C7C28091AD01817F8E7F8093AD0154
:104D50000E9420248EE99EE00E94BB078AE99EE023
:104D60000E94BB0781E08093BE01BEC1883009F478
:104D70006FC08B3009F4BAC1ACC2873109F46DC27F
:104D800088F5803109F438C2863109F0A2C288E77B
:104D90009CE00E94BB070E945E111F928F938EE5DC
:104DA0009CE09F938F930E94540880910B011F9267
:104DB0008F9387E49CE09F938F930E945408809187
:104DC00046011F928F9384E39CE09F938F930E94F0
:104DD00054088DB79EB70C960FB6F8949EBF0FBEC1
:104DE0008DBF82C1893109F421C28B3109F4DEC142
:104DF00070C2893309F45BC178F4893209F461C265
:104E000020F4873209F45DC264C2853309F459C2C3
:104E1000883309F46BC15DC2863409F437C208F4E3
:104E200054C2883409F055C20E94381781E89EE0C8
:104E30000E94BB079FEF23ED80E39150204080400C
:104E4000E1F700C000000E94A21F81E79EE04AC176
:104E500087EC9EE00E94BB0782E29CE00E94BB07B9
:104E60000E9466211F928F938FE19CE09F938F9306
:104E70000E9454088DE19CE00E94BB070E945D21C6
:104E8000C82F8AE09CE00E94BB071F92CF9325E0C9
:104E90003CE03F932F930E94540883E09CE00E94E3
:104EA000BB0789EF9BE00E94BB078C2F81701F928C
:104EB0008F9326EF3BE03F932F930E94540884EF9B
:104EC0009BE00E94BB078AEE9BE00E94BB07C1FBF0
:104ED000882780F91F928F9327EE3BE03F932F9313
:104EE0000E94540885EE9BE00E94BB0789ED9BE081
:104EF0000E94BB07C2FB882780F91F928F9326ED83
:104F00003BE03F932F930E94540884ED9BE00E9466
:104F1000BB078BEC9BE00E94BB07C3FBCC27C0F90F
:104F20001F92CF9388EC9BE09F938F930E9454082D
:104F300086EC9BE00E94BB070E946F21C82F82EB8A
:104F40009BE00E94BB071F92CF932DEA3BE03F936B
:104F50002F930E9454088BEA9BE00E94BB0782E9D2
:104F60009BE00E94BB078C2F81701F928F932FE8CC
:104F70003BE03F932F930E9454088DB79EB78096D5
:104F80000FB6F8949EBF0FBE8DBF8DE89BE00E94C8
:104F9000BB0786E79BE00E94BB07C1FB882780F91F
:104FA0001F928F9323E73BE03F932F930E94540877
:104FB00081E79BE00E94BB078FE59BE00E94BB0757
:104FC000C2FB882780F91F928F932CE53BE03F932B
:104FD0002F930E9454088AE59BE00E94BB0788E457
:104FE0009BE00E94BB07C3FB882780F91F928F9329
:104FF00025E43BE03F932F930E94540883E49BE019
:105000000E94BB0789E39BE00E94BB07C4FB882783
:1050100080F91F928F9326E33BE03F932F930E94EA
:10502000540884E39BE00E94BB0782E29BE00E945D
:10503000BB07C5FB882780F91F928F932FE13BE0C8
:105040003F932F930E9454088DE19BE00E94BB0781
:1050500081E09BE00E94BB07C6FB882780F91F9276
:105060008F932EEF3AE03F932F930E9454088CEFDA
:105070009AE00E94BB0784EF9AE00E94BB07C7FB3F
:10508000CC27C0F91F92CF9381EF9AE09F938F9323
:105090000E9454088FEE9AE00E94BB078DB79EB71E
:1050A0004C960FB6F8949EBF0FBE8DBF1DC00E94D8
:1050B0005911892B79F00E9459119093C001809366
:1050C000BF010E94381780E090E00E9454118EEBDF
:1050D0009EE008C08091BF019091C0010E945411D0
:1050E00083EB9EE00E94BB07C1E0F8C083ED9AE02D
:1050F0000E94BB078CEB9AE00E94BB0784EA9AE00F
:105100000E94BB078CE89AE00E94BB0782E79AE006
:105110000E94BB078BE59AE00E94BB078BE39AE0F5
:105120000E94BB0785E29AE00E94BB0784E19AE0F7
:105130000E94BB078CEF99E00E94BB0782EE99E0CA
:105140000E94BB0789EC99E00E94BB0780EB99E0C5
:105150000E94BB0787E999E00E94BB078EE799E0B0
:105160000E94BB078DE599E00E94BB078BE399E0A5
:105170000E94BB0781E299E0B5CF8091AD01C82FB5
:10518000C17080FF09C08EE59EE00E94BB07809140
:10519000AD01817F8E7F44C08CE49EE00E94BB07FE
:1051A0008091AD0181608093AD019ECF8091AD0172
:1051B00081FBCC27C0F991E0C927C0FB81F980931E
:1051C000AD01CC2319F083E39EE025C089E19EE088
:1051D00089CF8091AD0182FBCC27C0F991E0C9272E
:1051E000C0FB82F98093AD01CC2319F08EEF9DE0D6
:1051F00012C082EE9DE076CF8091AD0183FBCC277B
:10520000C0F991E0C927C0FB83F98093AD01CC239D
:1052100051F08AEC9DE00E94BB078091AD01816056
:105220008093AD015BC081EB9DE05CCF8AE99DE09E
:105230000E94BB0780E79DE00E94BB078DE39DE0D5
:105240000E94BB0780E19DE00E94BB0780ED9CE0CF
:105250000E94BB0782EA9CE045CF8091B10190910A
:10526000B201A091B301B091B401BF93AF939F93EA
:105270008F938EE89CE09F938F930E9454080F9029
:105280000F900F900F900F900F902ECF81E890E02D
:105290000E94BA119FEF21EE84E09150204080409F
:1052A000E1F700C0000080E090E00E94BA119FEF9B
:1052B00029E688E1915020408040E1F700C00000DD
:1052C00013CF80E003C08D5101C089530E94502646
:1052D0000BCF82E39CE00E94BB07C0E08C2FCF91F4
:1052E000089580E0089580E00895CF93C82F8091BD
:1052F000BE01813071F020F0823009F44EC05DC1F2
:10530000A0910C01B0910D018C91823209F057C12E
:1053100007C0A0910C01B0910D018C91823249F42B
:105320008C2F0E947129811135C08C2F0E949026EC
:1053300032C08C2F0E94732981112CC0C431F1F02E
:1053400090F4CB30A1F0C03101F50E942C2486E905
:1053500098E00E94BB0782E998E00E94BB0782E0C8
:105360008093BE0117C0C93249F0C83371F40E945E
:10537000202483EC98E00E94BB070CC08FEA98E0E1
:105380000E94BB071092BE011CC180E998E00E94F8
:10539000BB0717C181E0817016C1C83228F5CE3134
:1053A00008F0C0C0CB30A1F1D0F4C73009F0E8C09C
:1053B0008EE18093130182E3809312018AE080934F
:1053C000110184E18093100188E080930F0188E24D
:1053D00080930E0188E396E00E94BB07D6C0C331DC
:1053E00041F1C431C1F0CCC0CB3409F4BEC028F4C3
:1053F000C93289F0C83361F0C3C0C13509F4B3C004
:10540000C23509F4AEC0CE3409F0BAC06AE0B3C008
:105410000E942C24BAC01092C1018BE696E00E9433
:10542000BB0787E696E00E94BB0781E08093BE0140
:10543000CAC08BE096E00E94BB0786EF95E00E9411
:10544000BB07809113011F928F9383EF95E09F9389
:105450008F930E94540881EF95E00E94BB078CED6A
:1054600095E00E94BB07809112011F928F9389EDF6
:1054700095E09F938F930E94540887ED95E00E94DA
:10548000BB0785EC95E00E94BB07809111011F923C
:105490008F9382EC95E09F938F930E94540880EC49
:1054A00095E00E94BB078CEA95E00E94BB078091C3
:1054B00010011F928F9389EA95E09F938F930E942A
:1054C000540887EA95E00E94BB078FE895E00E94A8
:1054D000BB0780910F011F928F938CE895E09F93FB
:1054E0008F930E9454088AE895E00E94BB0780E7EA
:1054F00095E00E94BB0780910E011F928F938DE66D
:1055000095E09F938F930E9454088BE695E00E944C
:10551000BB078DB79EB748960FB6F8949EBF0FBED7
:105520008DBF33C0CE51EC2FF0E0E85DFE4F80819F
:105530008093C10182E596E00E94BB078091C10182
:105540001F928F938FE496E09F938F930E9454084D
:105550008DE496E00E94BB070F900F900F900F9084
:1055600014C061E003C061E006C06AE08091C1013F
:105570000E9492240AC08091C1010E94832505C027
:1055800086E396E00E94BB0716C084E396E00E9483
:10559000BB078091C1011F928F9381E396E09F9397
:1055A0008F930E9454088EE296E00E94BB070F90F2
:1055B0000F900F900F9081E006C01092BE0180E026
:1055C00002C080E0E8CECF91089504D06894B11174
:1055D0008DC0089570D088F09F5790F0B92F99270B
:1055E000B751A0F0D1F0660F771F881F991F1AF0EE
:1055F000BA95C9F712C0B13081F077D0B1E0089503
:1056000074C0672F782F8827B85F39F0B93FCCF383
:10561000869577956795B395D9F73EF490958095E3
:10562000709561957F4F8F4F9F4F0895E89409C003
:1056300097FB3EF490958095709561957F4F8F4FC5
:105640009F4F9923A9F0F92F96E9BB279395F695DB
:10565000879577956795B795F111F8CFFAF4BB0F59
:1056600011F460FF1BC06F5F7F4F8F4F9F4F16C0BD
:10567000882311F096E911C0772321F09EE8872F47
:10568000762F05C0662371F096E8862F70E060E003
:105690002AF09A95660F771F881FDAF7880F96957C
:1056A000879597F9089557FD9058440F551F59F065
:1056B0005F3F71F04795880F97FB991F61F09F3FFF
:1056C00079F087950895121613061406551FF2CF28
:1056D0004695F1DF08C0161617061806991FF1CF78
:1056E00086957105610508940895E894BB2766279F
:1056F0007727CB0197F908950BD078C069D028F0AF
:105700006ED018F0952309F05AC05FC01124EECF77
:10571000CADFA0F3959FD1F3950F50E0551F629F0C
:10572000F001729FBB27F00DB11D639FAA27F00DFA
:10573000B11DAA1F649F6627B00DA11D661F829F21
:105740002227B00DA11D621F739FB00DA11D621F06
:10575000839FA00D611D221F749F3327A00D611D23
:10576000231F849F600D211D822F762F6A2F112405
:105770009F5750408AF0E1F088234AF0EE0FFF1F58
:10578000BB1F661F771F881F91505040A9F79E3F8F
:10579000510570F014C0AACF5F3FECF3983EDCF3E4
:1057A000869577956795B795F795E7959F5FC1F7CC
:1057B000FE2B880F911D9695879597F9089597F977
:1057C0009F6780E870E060E008959FEF80EC0895A7
:1057D00000240A94161617061806090608950024D0
:1057E0000A9412161306140605060895092E03944A
:1057F000000C11F4882352F0BB0F40F4BF2B11F4BE
:1058000060FF04C06F5F7F4F8F4F9F4F089597FBDE
:10581000072E16F4009407D077FD09D00E94212CA2
:1058200007FC05D03EF4909581959F4F08957095A3
:1058300061957F4F0895EE0FFF1F0590F491E02DC5
:105840000994AA1BBB1B51E107C0AA1FBB1FA617C7
:10585000B70710F0A61BB70B881F991F5A95A9F719
:1058600080959095BC01CD010895F999FECF92BD28
:1058700081BDF89A992780B50895A8E1B0E042E08B
:1058800050E00C94582C262FF999FECF1FBA92BDE8
:1058900081BD20BD0FB6F894FA9AF99A0FBE019611
:1058A00008950E94432C272F0C94442CDC01CB013B
:1058B000FC01F999FECF06C0F2BDE1BDF89A319620
:1058C00000B40D9241505040B8F70895F894FFCFBE
:1058D000050C0AED0ACA0A960A630A01A301280800
:1058E000140A321E3F4D362080033303FD02DD02D1
:1058F000690282029B02B402010203040506070842
:0259000009009C
:00000001FF
